:100000000080002001010000F9000000F90000005C
:1000100080B51448144B21E05C689968DD688C4217
:100020000CD0002205E0A6180832D6E9008941E983
:1000300002898C460831AA42F5D101E004EB050C97
:100040001C696146002204E008320026002741E9CD
:1000500002670831A242F7D1143301380028DBD1FE
:1000600002F098F9010000008824000048F23813DB
:10007000C1F6FF731A780AB901201870704700BFE3
:1000800048F20810C1F6FF7008B503682BB140F2C2
:100090000003C0F2000303B1984708BD80B500AF6C
:1000A00000F0A2F900F0C4FA42F21840C0F20000D9
:1000B00000F0D4FA00F016FE00F032FE00F08CF8EA
:1000C00000E000BF4FF0010000F03EFE0346002BB1
:1000D000F7D000F069FE03469AB248F23A13C1F62F
:1000E000FF731A8048F23A13C1F6FF731B889BB264
:1000F000184600F02DF9E5E780B400AFFEE700BF39
:10010000054B1C7844F001041C70044B1A78D2B2E1
:10011000034B1A70FFF77CFFE8460040F8460040AA
:10012000BC76004080B582B000AF4EF60C53CEF2E4
:10013000000340F20042C0F2FA521A604EF6145325
:10014000CEF200034EF61452CEF20002126842F4D0
:1001500000721A604FF000037B6019E079687B68D9
:10016000032B07D87A6840F20003C0F2000353F86B
:10017000223003E040F2F903C0F2000348F200022B
:10018000C1F6FF7242F821307B6803F101037B6006
:100190007B682F2BE2D947F2BC63C4F200031B78C3
:1001A000DAB248F25013C1F6FF731A704EF60853D4
:1001B000CEF2000348F20002C1F6FF721A6001F0AD
:1001C00051FE48F20013C1F6FF734FF000021A60AF
:1001D00007F10807BD4680BD80B500AF48F23E1369
:1001E000C1F6FF731B78002B08D100F00BF848F222
:1001F0003E13C1F6FF734FF001021A7000F064F86D
:1002000080BD00BF80B582B000AF46F27453C4F227
:1002100000031B78DBB223F03F03BB7146F274533B
:10022000C4F20003BA7942F01902D2B21A7046F24F
:100230009453C4F2000346F29452C4F200021278BE
:10024000D2B242F00102D2B21A7046F29553C4F211
:10025000000346F29552C4F200021278D2B242F084
:100260000102D2B21A704FF4007000F043F84FF45C
:10027000007000F05DF84FF07C0000F069F84FF07E
:10028000090000F075F84FF0000000F081F800F070
:10029000D7F80346FB7146F29553C4F2000346F2C9
:1002A0009552C4F200021278D2B242F01002D2B2D9
:1002B0001A70FB79184600F0C7F800F02BF807F128
:1002C0000807BD4680BD00BF80B400AF46F274533E
:1002D000C4F2000346F27452C4F200021278D2B2A1
:1002E0006FEA42626FEA5262D2B21A70BD4680BCB7
:1002F000704700BF80B483B000AF0346FB8046F672
:100300000823C4F20003FA881A8007F10C07BD46DF
:1003100080BC704780B500AF01E000F059F800F0F4
:1003200047F8034603F01003002BF6D180BD00BF51
:1003300080B483B000AF0346FB8046F68823C4F246
:100340000003FA881A8007F10C07BD4680BC70478D
:1003500080B483B000AF0346FB8046F64823C4F266
:100360000003FA881A8007F10C07BD4680BC70476D
:1003700080B483B000AF0346FB7146F22B53C4F246
:100380000003FA791A7007F10C07BD4680BC70476C
:1003900080B483B000AF0346FB7146F28553C4F2CC
:1003A0000003FA791A7007F10C07BD4680BC70474C
:1003B00080B483B000AF46F26553C4F200031B78EB
:1003C000FB71FB79184607F10C07BD4680BC7047EE
:1003D00080B400AF46F6A823C4F200031B889BB28A
:1003E0001846BD4680BC704780B400AF44F2A233CB
:1003F000C4F2000344F2A232C4F200021278D2B274
:1004000042F00102D2B21A7044F2B233C4F20003D5
:1004100044F2B232C4F200021278D2B242F00102C7
:10042000D2B21A70BD4680BC704700BF0000000009
:100430000230800803D000BF01380046FCD170476D
:10044000EFF3108072B6704780F31088704700BFDA
:1004500080B483B000AF0346FB7101BE07F10C0707
:10046000BD4680BC704700BF80B582B000AF7860E9
:100470000BE048F21813C1F6FF731B681846FFF72C
:10048000D7FF7B68A3F500437B607B68B3F5004F23
:10049000EFD848F21013C1F6FF731B687A6802FBAD
:1004A00003F31846FFF7C4FF07F10807BD4680BDF8
:1004B00080B582B000AF0346FB80FA8848F214137F
:1004C000C1F6FF731B7803FB02F31846FFF7B0FF7A
:1004D00007F10807BD4680BD80B584B000AF034674
:1004E0003960FB714EF60853CEF200031B68FB60C7
:1004F000FB791F2B03D94FF00000FFF7A9FFFB7911
:1005000003F01F0303F110034FEA8302FB68134457
:100510001B68BB60FB7903F01F0303F110034FEA74
:100520008302FB6813443A681A60BB68184607F1F7
:100530001007BD4680BD00BF80B582B000AF024647
:100540000B46FA71BB71BB79072B03D94FF0000042
:10055000FFF77EFFFB791F2B03D94FF00000FFF759
:1005600077FFFB7903F01F0303F1604303F5644356
:10057000BA794FEA4212D2B21A7007F10807BD46A3
:1005800080BD00BF80B500AF4FF02800FFF76CFFC3
:100590004FF0030000F00EFA4FF00500FFF764FF84
:1005A0004FF0030000F006FA4FF00F00FFF75CFF7A
:1005B0004FF0030000F0FEF94FF00100FFF754FF89
:1005C0004FF0020000F0F6F94FF00500FFF74CFF86
:1005D0004FF0060000F07EF84FF00E0000F07AF8C1
:1005E0004FF02C0000F076F84FF0080000F072F8A1
:1005F0004FF0010000F06EF84FF00C0000F06AF8C8
:100600004FF0030000F066F84FF00500FFF72CFFF5
:1006100080BD00BF80B500AF4FF00C0000F05AF86D
:1006200048F23F13C1F6FF734FF001021A7080BD0C
:1006300080B500AF48F24013C1F6FF731B78002B62
:1006400008D1FFF79FFF48F24013C1F6FF734FF048
:1006500001021A70FFF7DEFF80BD00BF80B584B0D5
:1006600000AF78604FF00103BB737B681B78FB73AE
:100670000CE0FB7B184600F011F8BA7B7B68134452
:100680001B78FB73BB7B03F10103BB73FB7B002B6C
:10069000EFD107F11007BD4680BD00BF80B584B023
:1006A00000AF0346FB7100F031F8FB794FEA1313FA
:1006B000FB73FB7B184600F027F9FB7903F00F036F
:1006C000FB73FB7B184600F01FF907F11007BD46CE
:1006D00080BD00BF80B584B000AF0346FB7100F061
:1006E00015F8FB794FEA1313FB73FB7B184600F0F8
:1006F00061F9FB7903F00F03FB73FB7B184600F0F5
:1007000059F907F11007BD4680BD00BF80B582B022
:1007100000AF45F23013C4F2000345F23012C4F2C8
:1007200000021278D2B202F080021A7045F232133F
:10073000C4F200031B78DBB223F00F03FB7145F218
:100740003213C4F20003FA7942F00F02D2B21A70E7
:1007500045F23313C4F200031B78DBB223F00F031E
:10076000FB7145F23313C4F20003FA791A7045F2B3
:100770003413C4F200031B78DBB223F00F03FB71C8
:1007800045F23413C4F20003FA791A7045F23013BB
:10079000C4F2000345F23012C4F200021278D2B261
:1007A00002F0DF021A7045F23013C4F2000345F282
:1007B0003012C4F200021278D2B242F04002D2B239
:1007C0001A704FF00000FFF773FE45F23013C4F2C9
:1007D000000345F23012C4F200021278D2B242F0A5
:1007E0001002D2B21A704FF00100FFF761FE45F21D
:1007F0003113C4F200031B78FB7145F23013C4F2CD
:10080000000345F23012C4F200021278D2B202F0B4
:10081000EF021A704FF00000FFF74AFEFB7903F079
:100820000803FB7145F23013C4F2000345F23012A5
:10083000C4F200021278D2B242F01002D2B21A70A0
:100840004FF00100FFF734FE45F23013C4F200030D
:1008500045F23012C4F200021278D2B202F0EF0276
:100860001A70FB79002BACD145F23013C4F20003AF
:1008700045F23012C4F200021278D2B202F0BF0286
:100880001A7045F23013C4F2000345F23012C4F27C
:1008900000021278D2B202F080021A7045F23213CE
:1008A000C4F2000345F23212C4F200021278D2B24E
:1008B00002F0F0021A7045F23313C4F200031B7801
:1008C000DBB223F00F03FB7145F23313C4F20003D4
:1008D000FA7942F00F02D2B21A7045F23413C4F220
:1008E00000031B78DBB223F00F03FB7145F23413D6
:1008F000C4F20003FA7942F00F02D2B21A7007F183
:100900000807BD4680BD00BF80B582B000AF03467A
:10091000FB71FFF7FBFE45F23013C4F2000345F212
:100920003012C4F200021278D2B242F02002D2B2E7
:100930001A7045F23013C4F2000345F23012C4F2CB
:1009400000021278D2B202F0BF021A7045F23013E0
:10095000C4F2000345F23012C4F200021278D2B29F
:1009600002F0F0021A7045F23013C4F2000345F2AF
:100970003012C4F200021278D1B2FA7941EA0202CE
:10098000D2B242F01002D2B21A704FF00100FFF75B
:100990008FFD45F23013C4F2000345F23012C4F269
:1009A00000021278D2B202F0EF021A7007F10807C3
:1009B000BD4680BD80B582B000AF0346FB7145F2F5
:1009C0003013C4F2000345F23012C4F20002127870
:1009D000D2B202F09F021A7045F23013C4F2000343
:1009E00045F23012C4F200021278D2B202F0F002E4
:1009F0001A7045F23013C4F2000345F23012C4F20B
:100A000000021278D1B2FA7941EA0202D2B242F07F
:100A10001002D2B21A704FF00100FFF749FD45F203
:100A20003013C4F2000345F23012C4F2000212780F
:100A3000D2B202F0EF021A7007F10807BD4680BD7E
:100A400080B500AF4FF0010000F0C0F94FF010008A
:100A500000F06CFF4FF0100000F084FF4FF000003A
:100A600048F6B65146F606124FF0090300F016FE9E
:100A700080BD00BF80B500AF48F24C13C1F6FF73D4
:100A80001B78002B0FD048F22413C1F6FF731B7A9A
:100A9000002B08D100F0D0F848F24C13C1F6FF73D8
:100AA0004FF000021A7048F22413C1F6FF734FF0A2
:100AB00000021A7244F2AA33C4F2000344F2AA32CA
:100AC000C4F200021278D2B242F00102D2B21A701D
:100AD00044F2C533C4F2000344F2C532C4F200024A
:100AE0001278D2B242F00102D2B21A7044F2BA3392
:100AF000C4F2000344F2BA32C4F200021278D2B255
:100B000042F00102D2B21A7048F21C13C1F6FF7310
:100B10001B78DBB2012B47D144F2F563C4F200032A
:100B200044F2F562C4F200021278D2B242F010022E
:100B3000D2B21A7044F2F763C4F2000344F2F762CF
:100B4000C4F200021278D2B242F00802D2B21A7095
:100B500045F69103C4F2000345F69102C4F2000287
:100B60001278D2B242F00302D2B21A704FF00300F0
:100B7000FFF79EFC44F2F563C4F2000344F2F56211
:100B8000C4F200021278D2B202F0EF021A7044F2FC
:100B9000F763C4F2000344F2F762C4F20002127871
:100BA000D2B202F0F7021A7045F67703C4F20003DE
:100BB00045F67702C4F200021278D2B242F0060281
:100BC000D2B21A7044F2A133C4F2000344F2A1324B
:100BD000C4F200021278D2B242F00402D2B21A7009
:100BE00044F2B133C4F2000344F2B132C4F2000261
:100BF0001278D2B242F00402D2B21A7044F2A23396
:100C0000C4F2000344F2A232C4F200021278D2B25B
:100C100042F00202D2B21A7044F2B233C4F20003BC
:100C200044F2B232C4F200021278D2B242F00202AE
:100C3000D2B21A7080BD00BF80B400AF45F68E03FB
:100C4000C4F2000348F22412C1F6FF7212781A703F
:100C500045F68F03C4F2000348F22412C1F6FF7276
:100C600052781A7045F69003C4F2000348F2241239
:100C7000C1F6FF7292781A7045F69103C4F2000330
:100C800048F22412C1F6FF72D2781A7045F6920328
:100C9000C4F2000348F22412C1F6FF7212791A70EE
:100CA00045F69A03C4F2000348F22412C1F6FF721B
:100CB00052791A7045F69B03C4F2000348F22412DD
:100CC000C1F6FF7292791A7045F60733C4F2000339
:100CD00048F22412C1F6FF72D2791A70BD4680BC68
:100CE000704700BF80B500AF48F24613C1F6FF73EE
:100CF0001B78002B10D148F24713C1F6FF731B7805
:100D0000DBB2002B01D1FFF79BFE48F24613C1F680
:100D1000FF734FF001021A70FFF7ACFE80BD00BFF9
:100D200080B400AF44F60063C4F2000344F60062EE
:100D3000C4F200021278D2B242F00102D2B21A70AA
:100D4000BD4680BC704700BF80B485B000AF03468D
:100D5000FB7148F24513C1F6FF731B78DBB2012B20
:100D60000CD148F24413C1F6FF731B78FB73FB7B75
:100D7000012B12D0FB79002BF3D00EE044F6016377
:100D8000C4F200031B78DBB203F00103FB73FB7BAF
:100D9000012B02D0FB79002BF0D0FB7B184607F12A
:100DA0001407BD4680BC704780B483B000AF44F6E2
:100DB0001063C4F200031B88FB80FB881BB218463B
:100DC00007F10C07BD4680BC704700BF80B582B0FC
:100DD00000AF0346FB7148F24513C1F6FF734FF0B5
:100DE00000021A7048F24613C1F6FF731B78002BFD
:100DF00068D145F69603C4F200034FF007021A705B
:100E000045F69703C4F200034FF000021A7045F64E
:100E10009E03C4F200034FF000021A7045F6073338
:100E2000C4F2000345F60732C4F200021278D2B2CF
:100E300042F01802D2B21A7045F69303C4F20003CE
:100E40004FF000021A7045F68833C4F200034FF0E9
:100E500000021A7045F68933C4F200034FF0000215
:100E60001A7045F68003C4F200034FF00A021A70AC
:100E700045F68103C4F200034FF000021A7045F6F4
:100E80008203C4F200034FF07A021A7045F683031E
:100E9000C4F200034FF000021A7045F68D03C4F24D
:100EA00000034FF000021A7044F60163C4F200031D
:100EB0004FF014021A7044F61463C4F200034FF0AA
:100EC00001021A70FB79012B40F0F68044F60063B2
:100ED000C4F200034FF038021A7044F60263C4F201
:100EE00000034FF004021A7044F60363C4F20003D7
:100EF0004FF006021A7044F60463C4F200034FF088
:100F000000021A7044F60563C4F200034FF00002B9
:100F10001A7044F60663C4F200034FF013021A700D
:100F200044F60863C4F200034FF000021A7044F65E
:100F30000963C4F200034FF000021A7044F60A631A
:100F4000C4F200034FF000021A7045F68403C4F2A5
:100F500000034FF014021A7045F68503C4F2000333
:100F60004FF009021A7045F68603C4F200034FF0F1
:100F70000A021A7045F68703C4F200034FF000021C
:100F80001A7045F68803C4F200034FF012021A707B
:100F900045F68903C4F200034FF013021A7045F6B8
:100FA0008A03C4F200034FF055021A7045F68B0312
:100FB000C4F200034FF05A021A7045F68C03C4F2D3
:100FC00000034FF005021A7045F68E03C4F20003C9
:100FD0004FF001021A7045F68F03C4F200034FF080
:100FE00011021A7045F69003C4F200034FF0190283
:100FF0001A7045F69103C4F200036FF068021A708C
:101000004FF0440000F030FC45F69403C4F20003B6
:101010004FF058021A7045F69503C4F200034FF0E2
:1010200000021A7045F69A03C4F200034FF005025D
:101030001A7045F69B03C4F200034FF002021A70C7
:1010400045F69C03C4F200034FF001021A7045F606
:101050009D03C4F200034FF000021A7045F60733F7
:10106000C4F2000345F60732C4F200021278D2B28D
:1010700042F01802D2B21A704FF0000000F0ACFC3F
:1010800048F22013C1F6FF734FF4FA721A604FF062
:101090001D004FF00701FFF74FFA4FF01D0041F61A
:1010A000FD01C0F20001FFF717FA4EF20013CEF275
:1010B00000034FF000521A60FB79022B40F0F680DB
:1010C00044F60063C4F200034FF038021A7044F68D
:1010D0000263C4F200034FF004021A7044F6036383
:1010E000C4F200034FF006021A7044F60463C4F21F
:1010F00000034FF000021A7044F60563C4F20003C7
:101100004FF000021A7044F60663C4F200034FF079
:101110003F021A7044F60863C4F200034FF0000265
:101120001A7044F60963C4F200034FF000021A700B
:1011300044F60A63C4F200034FF000021A7045F649
:101140008403C4F200034FF050021A7045F6850381
:10115000C4F200034FF027021A7045F68603C4F26A
:1011600000034FF02C021A7045F68703C4F2000307
:101170004FF000021A7045F68803C4F200034FF0E6
:1011800012021A7045F68903C4F200034FF01302ED
:101190001A7045F68A03C4F200034FF055021A7024
:1011A00045F68B03C4F200034FF05A021A7045F65D
:1011B0008C03C4F200034FF005021A7045F68E034B
:1011C000C4F200034FF001021A7045F68F03C4F217
:1011D00000034FF011021A7045F69003C4F20003A9
:1011E0004FF019021A7045F69103C4F200036FF034
:1011F00068021A704FF0440000F036FB45F6940385
:10120000C4F200034FF058021A7045F69503C4F279
:1012100000034FF000021A7045F69A03C4F200036F
:101220004FF005021A7045F69B03C4F200034FF01D
:1012300002021A7045F69C03C4F200034FF001024B
:101240001A7045F69D03C4F200034FF000021A70B5
:1012500045F60733C4F2000345F60732C4F2000234
:101260001278D2B242F01802D2B21A704FF00000D7
:1012700000F0B2FB48F22013C1F6FF734FF47A423C
:101280001A604FF01D004FF00701FFF755F94FF0BE
:101290001D0041F60911C0F20001FFF71DF94EF2E1
:1012A0000013CEF200034FF000521A60FB79032BBB
:1012B00040F0F68044F60063C4F200034FF03802B9
:1012C0001A7044F60263C4F200034FF004021A706D
:1012D00044F60363C4F200034FF006021A7044F6AA
:1012E0000463C4F200034FF000021A7044F6056371
:1012F000C4F200034FF000021A7044F60663C4F211
:1013000000034FF03F021A7044F60863C4F2000372
:101310004FF000021A7044F60963C4F200034FF064
:1013200000021A7044F60A63C4F200034FF0000290
:101330001A7045F68403C4F200034FF050021A708D
:1013400045F68503C4F200034FF027021A7045F6F4
:101350008603C4F200034FF02C021A7045F687038F
:10136000C4F200034FF000021A7045F68803C4F27D
:1013700000034FF012021A7045F68903C4F200030D
:101380004FF013021A7045F68A03C4F200034FF0BF
:1013900055021A7045F68B03C4F200034FF05A024F
:1013A0001A7045F68C03C4F200034FF005021A7060
:1013B00045F68E03C4F200034FF001021A7045F6A1
:1013C0008F03C4F200034FF011021A7045F6900328
:1013D000C4F200034FF019021A7045F69103C4F2EB
:1013E00000036FF068021A704FF0440000F03CFAFE
:1013F00045F69403C4F200034FF058021A7045F604
:101400009503C4F200034FF000021A7045F69A03E8
:10141000C4F200034FF005021A7045F69B03C4F2B4
:1014200000034FF002021A7045F69C03C4F2000359
:101430004FF001021A7045F69D03C4F200034FF00D
:1014400000021A7045F60733C4F2000345F607326E
:10145000C4F200021278D2B242F01802D2B21A706C
:101460004FF0000000F0B8FA48F22013C1F6FF7305
:101470004FF47A421A604FF01D004FF00701FFF75A
:101480005BF84FF01D0041F61511C0F20001FFF7A7
:1014900023F84EF20013CEF200034FF000521A6010
:1014A000FB79042B40F0F68044F60063C4F200039D
:1014B0004FF038021A7044F60263C4F200034FF092
:1014C00004021A7044F60363C4F200034FF00602EC
:1014D0001A7044F60463C4F200034FF000021A705D
:1014E00044F60563C4F200034FF000021A7044F69C
:1014F0000663C4F200034FF03F021A7044F608631B
:10150000C4F200034FF000021A7044F60963C4F2FB
:1015100000034FF000021A7044F60A63C4F200039D
:101520004FF000021A7045F68403C4F200034FF036
:1015300050021A7045F68503C4F200034FF02702EB
:101540001A7045F68603C4F200034FF02C021A709D
:1015500045F68703C4F200034FF000021A7045F607
:101560008803C4F200034FF012021A7045F6890393
:10157000C4F200034FF013021A7045F68A03C4F256
:1015800000034FF055021A7045F68B03C4F20003B6
:101590004FF05A021A7045F68C03C4F200034FF064
:1015A00005021A7045F68E03C4F200034FF00102E3
:1015B0001A7045F68F03C4F200034FF011021A703F
:1015C00045F69003C4F200034FF019021A7045F675
:1015D0009103C4F200036FF068021A704FF04400E8
:1015E00000F042F945F69403C4F200034FF05802AC
:1015F0001A7045F69503C4F200034FF000021A700A
:1016000045F69A03C4F200034FF005021A7045F63E
:101610009B03C4F200034FF002021A7045F69C03CC
:10162000C4F200034FF001021A7045F69D03C4F2A4
:1016300000034FF000021A7045F60733C4F20003AE
:1016400045F60732C4F200021278D2B242F0180214
:10165000D2B21A704FF0000000F0BEF948F2201329
:10166000C1F6FF734FF47A421A604FF01D004FF03D
:101670000701FEF761FF4FF01D0041F62111C0F296
:101680000001FEF729FF4EF20013CEF200034FF0E7
:1016900000521A6007F10807BD4680BD80B487B0CC
:1016A00000AFF871B9807A807B70FB79A3F10403F5
:1016B000062B5DD801A252F823F000BFD916000016
:1016C0007117000071170000FF16000025170000B9
:1016D000711700004B1700007B780F2B07D940F2E1
:1016E0001413C4F600131B78DBB2FB7343E040F223
:1016F0001813C4F600131B78DBB2FB733BE07B7856
:101700000F2B07D940F21513C4F600131B78DBB278
:10171000FB7330E040F21913C4F600131B78DBB200
:10172000FB7328E07B780F2B07D940F21613C4F621
:1017300000131B78DBB2FB731DE040F21A13C4F6F2
:1017400000131B78DBB2FB7315E07B780F2B07D9F6
:1017500040F21713C4F600131B78DBB2FB730AE0E8
:1017600040F21B13C4F600131B78DBB2FB7302E0DC
:101770004FF00003FB73FB79002B11D0FB79012B99
:101780000ED0FB79022B0BD0FB79032B08D0FB7911
:10179000052B05D0FB79062B02D0FB79092B03D151
:1017A0004FF000033B8206E097F90F309BB24FEAFF
:1017B00043139BB23B823A8ABB8813447B827B8A69
:1017C0007A8802FB03F37B617B694FEAD3337B8228
:1017D0007B780D2B12D87A8A7B786FEA030303F1AA
:1017E0000F0342FA03F37B8244F60E63C4F2000354
:1017F0007A7802F10102D2B21A7006E044F60E6362
:10180000C4F200034FF00F021A7044F60C63C4F2E6
:1018100000037A8AD2B21A7044F60D63C4F2000350
:101820007A8A4FEA122292B2D2B21A70FB79012B55
:1018300014D144F60C63C4F200034FF000021A7096
:1018400044F60D63C4F200034FF000021A7044F630
:101850000E63C4F200034FF000021A7007F11C0778
:10186000BD4680BC704700BF80B582B000AF034664
:10187000FB7144F2F563C4F2000344F2F562C4F272
:1018800000021278D2B242F01002D2B21A7044F2C0
:10189000F763C4F2000344F2F762C4F20002127864
:1018A000D2B242F00802D2B21A7045F69203C4F2E4
:1018B0000003FA791A704FF00300FEF7F9FD44F2C5
:1018C000F563C4F2000344F2F562C4F20002127838
:1018D000D2B202F0EF021A7044F2F763C4F20003CE
:1018E00044F2F762C4F200021278D2B202F0F702B8
:1018F0001A7007F10807BD4680BD00BF80B400AF75
:10190000BD4680BC704700BF80B400AFBD4680BC00
:10191000704700BF80B400AFBD4680BC704700BFB9
:1019200080B400AFBD4680BC704700BF80B483B0B8
:1019300000AF0346FB7144F20A13C4F2000344F201
:101940000A12C4F200021278D1B2FA7902F0F80257
:1019500041EA0202D2B21A7007F10C07BD4680BC00
:10196000704700BF80B483B000AF0346FB7144F200
:101970008603C4F2000344F28602C4F20002127825
:10198000D1B2FA7902F0F80241EA0202D2B21A7038
:1019900007F10C07BD4680BC704700BF80B582B020
:1019A00000AF4FF00003FB7107E0FB79184600F031
:1019B0002FFAFB7903F10103FB71FB79012BF4D9B9
:1019C00048F23013C1F6FF734FF0FF321A7007F17F
:1019D0000807BD4680BD00BF80B582B000AF03469A
:1019E000FB71FFF7DBFFFB79184600F0EBF948F2DB
:1019F0003013C1F6FF73FA791A7007F10807BD4674
:101A000080BD00BF80B485B000AF786039607B686E
:101A1000BB604FF00003FB6009E0BA68FB68134449
:101A20004FF000021A70FB6803F10103FB60FA68D3
:101A30003B689A42F1D307F11407BD4680BC70475A
:101A400080B489B000AFF860B9607A60FB687B61F0
:101A5000BB68BB614FF00003FB610BE07A69FB6977
:101A60001344B969FA690A4412781A70FB6903F1E0
:101A70000103FB61FA697B689A42EFD307F12407FF
:101A8000BD4680BC704700BF80B582B000AF7860B3
:101A9000396078684FF000013A6800F011FC07F1F6
:101AA0000807BD4680BD00BF80B584B000AFF860B8
:101AB000B9607A60F868B9687A6800F039FB07F1B4
:101AC0001007BD4680BD00BF80B487B000AF78600E
:101AD00039604FF00003FB604FF00003BB602CE067
:101AE000BB684FEA83027B6813441B683B613B6918
:101AF000FB753B6923F0FF033B6117E0FB684FEA8E
:101B000043023B6813441B781A463B691344FA6846
:101B10004FEA42013A680A4452781A70FB6803F1AE
:101B20000103FB60FB7D03F1FF33FB75FB7D002BA5
:101B3000E4D1BB6803F10103BB60BB681D2BCFD9A7
:101B400007F11C07BD4680BC704700BF80B500AFE1
:101B500044F28003C4F200034FF000021A8044F202
:101B60008203C4F200034FF058021A7044F2840357
:101B7000C4F200034FF005021A8044F28603C4F257
:101B800000034FF018021A7044F28803C4F20003F5
:101B90004FF017021A8044F28A03C4F200034FF098
:101BA00018021A7044F20010C4F2000040F20C61F6
:101BB000C4F600014FF00C02FFF776FF44F2003349
:101BC000C4F200034FF002021A7044F20003C4F2A0
:101BD00000034FF008021A7044F20023C4F200031D
:101BE0004FF003021A7044F2A163C4F2000340F202
:101BF0000812C4F600121278D2B21A7044F22223EC
:101C0000C4F200034FF008021A8044F22023C4F209
:101C1000000341F251021A8040F6B830FEF708FC8A
:101C200044F20403C4F200034FF003021A7044F2BA
:101C30000503C4F200034FF001021A7044F20403DA
:101C4000C4F200034FF000021A7044F20403C4F21D
:101C500000034FF007021A7044F20603C4F20003B7
:101C60004FF000021A7044F20803C4F200034FF070
:101C700048021A7044F20403C4F200034FF0000259
:101C80001A7044F20103C4F200034FF002021A700A
:101C900044F20B03C4F200034FF004021A7044F242
:101CA000A233C4F2000344F2A232C4F2000212785A
:101CB000D2B242F00702D2B21A7044F2A133C4F297
:101CC000000344F2A132C4F200021278D2B242F010
:101CD0000702D2B21A7080BD80B400AF44F2AA33BA
:101CE000C4F200034FF444721A8045F20D13C4F29B
:101CF00000034FF002021A7045F26D13C4F20003A4
:101D00004FF020021A7045F62003C4F200034FF092
:101D10001E021A7045F62403C4F200034FF01E029F
:101D20001A7045F62803C4F200034FF01E021A7021
:101D300045F62C03C4F200034FF01E021A7045F65C
:101D40000013C4F2000348F2C0021A8045F60313E0
:101D5000C4F200034FF00C021A7045F60813C4F2E7
:101D6000000348F2C0021A8045F60B13C4F20003C8
:101D70004FF00C021A7045F60033C4F200034FF026
:101D800002021A7045F62033C4F200034FF020021D
:101D90001A7045F62333C4F200034FF020021A7084
:101DA00045F62B33C4F200034FF020021A7045F6BB
:101DB0007603C4F200034FF044021A70BD4680BCA3
:101DC000704700BF80B483B000AF0346FB71FB795E
:101DD000012B18D8FA7942F22C43C0F2000353F8D1
:101DE0002220F97942F22C43C0F2000353F821304B
:101DF0001978F87942F23443C0F200031B5C41EADF
:101E00000303DBB2137007F10C07BD4680BC7047BB
:101E100080B483B000AF0346FB71FB79012B1BD864
:101E2000FA7942F22C43C0F2000353F82220F979E8
:101E300042F22C43C0F2000353F821301978F879AC
:101E400042F23443C0F200031B5C6FEA0303DBB2CF
:101E500001EA0303DBB2137007F10C07BD4680BC37
:101E6000704700BF80B582B000AF72B644F6000381
:101E7000C4F200034FF000021A70FFF767FE44F649
:101E80000003C4F200036FF07F021A7047F21003E0
:101E9000C4F200034FF000021A7047F22003C4F2AC
:101EA00000034FF000021A7045F67C03C4F20003F1
:101EB0004FF001021A7044F2E863C4F2000344F2E6
:101EC000E862C4F200021278D2B242F00102D2B249
:101ED0001A704FF00003FB702FE0FA7813464FEAB8
:101EE000430313444FEA43031A4642F23843C0F215
:101EF000000313447B607B681A7859784FEA01210C
:101F000041EA020299784FEA014141EA0202DB7894
:101F10004FEA036343EA02031A467B6819795B7947
:101F20004FEA032343EA01039BB210461946FFF729
:101F3000ABFDFB7803F10103FB70FB78062BCCD9DA
:101F40004FF0904040F27801C4F60001FFF7BCFD6D
:101F500045F20020C4F2000040F2FC51C4F600013A
:101F60004FF00702FFF76CFD45F20820C4F20000B5
:101F700040F20461C4F600014FF00702FFF760FD74
:101F800045F21020C4F200004FF00701FFF73AFDC0
:101F900045F21820C4F200004FF00701FFF732FDB0
:101FA00045F22020C4F200004FF00701FFF72AFDA0
:101FB00045F22820C4F200004FF00701FFF722FD90
:101FC00045F23020C4F200004FF00701FFF71AFD80
:101FD00045F26020C4F200004FF00601FFF712FD49
:101FE00045F27820C4F200004FF00701FFF70AFD28
:101FF00045F20303C4F2010345F20302C4F20102F5
:102000001278D2B242F00202D2B21A7045F2130331
:10201000C4F2010345F21302C4F201021278D2B2F3
:1020200042F00202D2B21A7044F2A033C4F20003AA
:1020300044F2A032C4F200021278D2B242F040025E
:10204000D2B21A7044F2C233C4F2000344F2C23274
:10205000C4F200021278D2B242F01002D2B21A7068
:1020600045F20210C4F2000040F2CC51C4F6000167
:102070004FF00802FFF718FD45F21210C4F20000FD
:1020800040F2D451C4F600014FF00802FFF70CFDF6
:1020900045F22210C4F2000040F2DC51C4F6000107
:1020A0004FF00802FFF700FD45F23210C4F20000C5
:1020B00040F2E451C4F600014FF00802FFF7F4FCCF
:1020C00045F24210C4F2000040F2EC51C4F60001A7
:1020D0004FF00802FFF7E8FC45F26210C4F200007E
:1020E00040F2F451C4F600014FF00802FFF7DCFCA7
:1020F000FFF7F2FD44F2B030C4F2000044F2A03128
:10210000C4F200014FF00C02FFF7CEFC44F2B033F2
:10211000C4F2000344F2B032C4F200021278D2B228
:1021200002F0FD021A7007F10807BD4680BD00BF2E
:10213000032A2DE9F0070BD83AB1002311F803C0A8
:1021400000F803C001339342F8D1BDE8F0077047AF
:1021500082180C46034603E014F8011C03F8011C26
:1021600003F003061946A44601330134002EF3D1CF
:102170001CF00304634608BFC1EB020C68D0654243
:10218000C4F1040A0CEB050733464FEACA0A5CF8AF
:1021900005604FEAC408551A08E057F8044F264670
:1021A00004FA0AF449EA0404CC5004335C18032D01
:1021B00026FA08F9A5F104050CEB0306EDDC002373
:1021C00002E0F15CE154013319199142F9D3BCE703
:1021D00053F8404C41F8404C53F83C4C41F83C4CCF
:1021E00053F8384C41F8384C53F8344C41F8344CDF
:1021F00053F8304C41F8304C53F82C4C41F82C4CEF
:1022000053F8284C41F8284C53F8244C41F8244CFE
:1022100053F8204C41F8204C53F81C4C41F81C4C0E
:1022200053F8184C41F8184C53F8144C41F8144C1E
:1022300053F8104C41F8104C53F80C4C41F80C4C2E
:1022400053F8084C41F8084C53F8044C41F8044C3E
:102250001C460D4640334031BCF13F0FACF1400C01
:10226000B6DC21462B46541B0FE051F8105C43F8B6
:10227000105C51F80C5C43F80C5C51F8085C43F8B6
:10228000085C51F8045C43F8045C0F2C0D469C4636
:1022900001F1100103F11003A4F11004E5DCCCEB13
:1022A0000201002303E0EC584CF8034004335E19AC
:1022B000032903EB0C04A1F10401F4DC7FE700BF68
:1022C000032AC9B230B407D822B10023C154013364
:1022D0009342FBD130BC704700EB020C034601E097
:1022E00003F8011C03F003041A460133002CF7D154
:1022F0004FF00133C2EB0C0403FB01F31FE042F883
:10230000403C42F83C3C42F8383C42F8343C42F80D
:10231000303C42F82C3C42F8283C42F8243C42F83D
:10232000203C42F81C3C42F8183C42F8143C42F86D
:10233000103C42F80C3C42F8083C42F8043C15467C
:1023400040323F2CA4F14004D9DC2A46C5EB0C04F2
:1023500007E042F8103C42F80C3C42F8083C42F8D6
:10236000043C154610320F2CA4F11004F1DC2A466F
:10237000C5EB0C0501E042F8043C14460432032D81
:10238000A5F10405F7DC01E004F8011B6445FBD36B
:10239000A0E700BF08B500F017F8074800B10068D3
:1023A000064901B109680022FDF778FE044B0BB124
:1023B000AFF30080FEE700BF000000000000000057
:1023C00000000000FEE7000070B542F2704642F2E5
:1023D0007045C0F20006C0F20005761BB61006D0AC
:1023E000002455F8243001349847A642F9D842F227
:1023F000704542F27846C0F20005C0F20006761B36
:1024000000F030F8B61006D0002455F8243001341E
:082410009847A642F9D870BDFF
:10241800536F6D65206261736963206D65737361C5
:1024280067650000035B0040035B0040404000001C
:10243800505100401000C05100401000F0510040C1
:102448001000000001400010001401400008004086
:102458000140000A004C014000020000F8B500BF2E
:10246800F8BC08BC9E4670478100000025010000AA
:10247800F8B500BFF8BC08BC9E4670476D00000068
:1024880000000000A02400000881FF1F30000000A9
:0824980020000000000000001C
:1024A0000000000000366E01C05D00001800000052
:1024B0000000E02E01000000F40100000111199756
:1024C0004405021800000000FF00000000000000AA
:0400000300000101F7
:00000001FF
