:400000000080002081010000790100007901000080B51448144B21E05C689968DD688C420CD0002205E0A6180832D6E9008941E902898C460831AA42F5D101E004EB050C6B
:400040001C696146002204E008320026002741E902670831A242F7D1143301380028DBD102F006FB010000006827000048F23853C1F6FF731A780AB901201870704700BF16
:4000800048F20810C1F6FF7008B503682BB140F20003C0F2000303B1984708BD80B500AF00F0FEF900F020FB42F2F460C0F2000000F06AFB4EF20013CEF200034FF0005276
:4000C0001A6000F0EBFE00F007FF00F0C5F801F04BFD48F25453C1F6FF7348F20C12C1F6FF721A6062B64FF001004FF0000100F011FB48F23A53C1F6FF731B889BB21846FB
:4001000000F064FD4FF001004FF0080100F002FB48F23E53C1F6FF731B881AB248F20C13C1F6FF7333F812309BB2184600F04EFD48F23E53C1F6FF731B8803F101039AB2E6
:4001400048F23E53C1F6FF731A8048F23E53C1F6FF731B881AB240F2FF139A4206DD48F23E53C1F6FF734FF000021A804FF0C80000F0D6F9B7E700BF80B400AFFEE700BF12
:40018000054B1C7844F001041C70044B1A78D2B2034B1A70FFF73CFFE8460040F8460040BC76004080B582B000AF4EF60C53CEF2000340F20042C0F2FA521A604EF61453B7
:4001C000CEF200034EF61452CEF20002126842F400721A604FF000037B6019E079687B68032B07D87A6840F20003C0F2000353F8223003E040F27913C0F2000348F2000252
:40020000C1F6FF7242F821307B6803F101037B607B682F2BE2D947F2BC63C4F200031B78DAB248F25853C1F6FF731A704EF60853CEF2000348F20002C1F6FF721A6001F064
:4002400051FF48F20013C1F6FF734FF000021A6007F10807BD4680BD80B500AF48F24053C1F6FF731B78002B08D100F00BF848F24053C1F6FF734FF001021A7000F064F844
:4002800080BD00BF80B582B000AF46F27B53C4F200031B78DBB223F03F03BB7146F27B53C4F20003BA7942F01902D2B21A7046F29653C4F2000346F29652C4F20002127843
:4002C000D2B242F00102D2B21A7046F29753C4F2000346F29752C4F200021278D2B242F00102D2B21A704FF4007000F043F84FF4007000F05DF84FF4807000F069F84FF099
:40030000030000F075F84FF0000000F09DF800F0F3F80346FB7146F29653C4F2000346F29652C4F200021278D2B242F01002D2B21A70FB79184600F0E3F800F02BF807F14F
:400340000807BD4680BD00BF80B400AF46F27B53C4F2000346F27B52C4F200021278D2B26FEA42626FEA5262D2B21A70BD4680BC704700BF80B483B000AF0346FB8046F61F
:400380000C23C4F20003FA881A8007F10C07BD4680BC704780B500AF01E000F075F800F063F8034603F01003002BF6D180BD00BF80B483B000AF0346FB8046F68C23C4F213
:4003C0000003FA881A8007F10C07BD4680BC704780B483B000AF0346FB8046F64C23C4F20003FA881A8007F10C07BD4680BC704780B483B000AF0346FB7146F27653C4F200
:40040000000346F27652C4F200021278D2B202F0FC021A7046F27653C4F2000346F27652C4F200021278D2B21146FA79D2B202F0030241EA0202D2B2D2B21A7007F10C07E8
:40044000BD4680BC704700BF80B483B000AF0346FB7146F28653C4F20003FA791A7007F10C07BD4680BC704780B483B000AF46F26653C4F200031B78FB71FB79184607F1AB
:400480000C07BD4680BC704780B400AF46F6AC23C4F200031B889BB21846BD4680BC704780B400AF44F2A233C4F2000344F2A232C4F200021278D2B242F00102D2B21A708E
:4004C00044F2B233C4F2000344F2B232C4F200021278D2B242F00102D2B21A70BD4680BC704700BF000000000230800803D000BF01380046FCD17047EFF3108072B67047B0
:4005000080F31088704700BF80B483B000AF0346FB7101BE07F10C07BD4680BC704700BF80B582B000AF78600BE048F21853C1F6FF731B681846FFF7D7FF7B68A3F50043DE
:400540007B607B68B3F5004FEFD848F21053C1F6FF731B687A6802FB03F31846FFF7C4FF07F10807BD4680BD80B582B000AF0346FB80FA8848F21453C1F6FF731B7803FBCC
:4005800002F31846FFF7B0FF07F10807BD4680BD80B584B000AF03463960FB714EF60853CEF200031B68FB60FB791F2B03D94FF00000FFF7A9FFFB7903F01F0303F110034F
:4005C0004FEA8302FB6813441B68BB60FB7903F01F0303F110034FEA8302FB6813443A681A60BB68184607F11007BD4680BD00BF80B582B000AF02460B46FA71BB71BB79B8
:40060000072B03D94FF00000FFF77EFFFB791F2B03D94FF00000FFF777FFFB7903F01F0303F1604303F56443BA794FEA4212D2B21A7007F10807BD4680BD00BF80B500AF3E
:400640004FF02800FFF76CFF4FF0030000F056FA4FF00500FFF764FF4FF0030000F04EFA4FF00F00FFF75CFF4FF0030000F046FA4FF00100FFF754FF4FF0020000F03EFA16
:400680004FF00500FFF74CFF4FF0060000F0C6F84FF00E0000F0C2F84FF02C0000F0BEF84FF0080000F0BAF84FF0010000F0B6F84FF00C0000F0B2F84FF0030000F0AEF836
:4006C0004FF00500FFF72CFF80BD00BF80B500AF4FF00C0000F0A2F848F24153C1F6FF734FF001021A7080BD80B500AF48F24253C1F6FF731B78002B08D1FFF79FFF48F29F
:400700004253C1F6FF734FF001021A70FFF7DEFF80BD00BF80B582B000AF02460B46FA71BB71FB79032B2AD801A252F823F000BF4107000051070000610700007107000037
:40074000BB79A3F18003DBB2184600F067F816E0BB79A3F14003DBB2184600F05FF80EE0BB79A3F16C03DBB2184600F057F806E0BB79A3F12C03DBB2184600F04FF807F17B
:400780000807BD4680BD00BF80B584B000AF78604FF00103BB737B681B78FB730CE0FB7B184600F01FF8BA7B7B6813441B78FB73BB7B03F10103BB73FB7B002BEFD107F1FA
:4007C0001007BD4680BD00BF80B582B000AF0346FB71FB79184600F005F807F10807BD4680BD00BF80B584B000AF0346FB7100F031F8FB794FEA1313FB73FB7B184600F068
:4008000027F9FB7903F00F03FB73FB7B184600F01FF907F11007BD4680BD00BF80B584B000AF0346FB7100F015F8FB794FEA1313FB73FB7B184600F061F9FB7903F00F0325
:40084000FB73FB7B184600F059F907F11007BD4680BD00BF80B582B000AF45F22013C4F2000345F22012C4F200021278D2B202F080021A7045F22213C4F200031B78DBB23B
:4008800023F00F03FB7145F22213C4F20003FA7942F00F02D2B21A7045F22313C4F200031B78DBB223F00F03FB7145F22313C4F20003FA791A7045F22413C4F200031B780A
:4008C000DBB223F00F03FB7145F22413C4F20003FA791A7045F22013C4F2000345F22012C4F200021278D2B202F0DF021A7045F22013C4F2000345F22012C4F20002127839
:40090000D2B242F04002D2B21A704FF00000FFF72BFE45F22013C4F2000345F22012C4F200021278D2B242F01002D2B21A704FF00100FFF719FE45F22113C4F200031B78AB
:40094000FB7145F22013C4F2000345F22012C4F200021278D2B202F0EF021A704FF00000FFF702FEFB7903F00803FB7145F22013C4F2000345F22012C4F200021278D2B2E7
:4009800042F01002D2B21A704FF00100FFF7ECFD45F22013C4F2000345F22012C4F200021278D2B202F0EF021A70FB79002BACD145F22013C4F2000345F22012C4F20002A7
:4009C0001278D2B202F0BF021A7045F22013C4F2000345F22012C4F200021278D2B202F080021A7045F22213C4F2000345F22212C4F200021278D2B202F0F0021A7045F261
:400A00002313C4F200031B78DBB223F00F03FB7145F22313C4F20003FA7942F00F02D2B21A7045F22413C4F200031B78DBB223F00F03FB7145F22413C4F20003FA7942F088
:400A40000F02D2B21A7007F10807BD4680BD00BF80B582B000AF0346FB71FFF7FBFE45F22013C4F2000345F22012C4F200021278D2B242F02002D2B21A7045F22013C4F2C3
:400A8000000345F22012C4F200021278D2B202F0BF021A7045F22013C4F2000345F22012C4F200021278D2B202F0F0021A7045F22013C4F2000345F22012C4F20002127839
:400AC000D1B2FA7941EA0202D2B242F01002D2B21A704FF00100FFF747FD45F22013C4F2000345F22012C4F200021278D2B202F0EF021A7007F10807BD4680BD80B582B014
:400B000000AF0346FB7145F22013C4F2000345F22012C4F200021278D2B202F09F021A7045F22013C4F2000345F22012C4F200021278D2B202F0F0021A7045F22013C4F202
:400B4000000345F22012C4F200021278D1B2FA7941EA0202D2B242F01002D2B21A704FF00100FFF701FD45F22013C4F2000345F22012C4F200021278D2B202F0EF021A70D9
:400B800007F10807BD4680BD80B582B000AF0346FB71FB794FEA1313DBB21A4642F20873C0F200039B5C1846FFF70EFEFB7903F00F0242F20873C0F200039B5C1846FFF781
:400BC00003FE07F10807BD4680BD00BF80B582B000AF0346FB80FB884FEA13239BB2DBB21846FFF7D1FFFB88DBB21846FFF7CCFF07F10807BD4680BD80B500AF4FF001008A
:400C000000F090F94FF0100000F042FF4FF0100000F05AFF4FF002004FF4104146F606124FF0090300F0E6FD80BD00BF80B500AF48F24C53C1F6FF731B78002B0FD048F223
:400C40002453C1F6FF731B7A002B08D100F0D0F848F24C53C1F6FF734FF000021A7048F22453C1F6FF734FF000021A7244F2AA33C4F2000344F2AA32C4F200021278D2B26B
:400C800042F00102D2B21A7044F2C533C4F2000344F2C532C4F200021278D2B242F00102D2B21A7044F2BA33C4F2000344F2BA32C4F200021278D2B242F00102D2B21A70CD
:400CC00048F21C53C1F6FF731B78DBB2012B47D144F2F563C4F2000344F2F562C4F200021278D2B242F01002D2B21A7044F2F763C4F2000344F2F762C4F200021278D2B234
:400D000042F00802D2B21A7045F69103C4F2000345F69102C4F200021278D2B242F00302D2B21A704FF00300FFF71EFC44F2F563C4F2000344F2F562C4F200021278D2B21C
:400D400002F0EF021A7044F2F763C4F2000344F2F762C4F200021278D2B202F0F7021A7045F67703C4F2000345F67702C4F200021278D2B242F00602D2B21A7044F2A133B9
:400D8000C4F2000344F2A132C4F200021278D2B242F00402D2B21A7044F2B133C4F2000344F2B132C4F200021278D2B242F00402D2B21A7044F2A233C4F2000344F2A2329F
:400DC000C4F200021278D2B242F00202D2B21A7044F2B233C4F2000344F2B232C4F200021278D2B242F00202D2B21A7080BD00BF80B400AF45F68E03C4F2000348F22452DD
:400E0000C1F6FF7212781A7045F68F03C4F2000348F22452C1F6FF7252781A7045F69003C4F2000348F22452C1F6FF7292781A7045F69103C4F2000348F22452C1F6FF7271
:400E4000D2781A7045F69203C4F2000348F22452C1F6FF7212791A7045F69A03C4F2000348F22452C1F6FF7252791A7045F69B03C4F2000348F22452C1F6FF7292791A706B
:400E800045F60733C4F2000348F22452C1F6FF72D2791A70BD4680BC704700BF80B500AF48F24653C1F6FF731B78002B10D148F24753C1F6FF731B78DBB2002B01D1FFF713
:400EC0009BFE48F24653C1F6FF734FF001021A70FFF7ACFE80BD00BF80B400AF44F60063C4F2000344F60062C4F200021278D2B242F00102D2B21A70BD4680BC704700BF62
:400F000080B483B000AF44F61063C4F200031B88FB80FB881BB2184607F10C07BD4680BC704700BF80B582B000AF0346FB7148F24553C1F6FF734FF000021A7048F2465345
:400F4000C1F6FF731B78002B68D145F69603C4F200034FF007021A7045F69703C4F200034FF000021A7045F69E03C4F200034FF000021A7045F60733C4F2000345F6073297
:400F8000C4F200021278D2B242F01802D2B21A7045F69303C4F200034FF000021A7045F68833C4F200034FF000021A7045F68933C4F200034FF000021A7045F68003C4F253
:400FC00000034FF00A021A7045F68103C4F200034FF000021A7045F68203C4F200034FF07A021A7045F68303C4F200034FF000021A7045F68D03C4F200034FF000021A7084
:4010000044F60163C4F200034FF014021A7044F61463C4F200034FF001021A70FB79012B40F0F68044F60063C4F200034FF038021A7044F60263C4F200034FF004021A707E
:4010400044F60363C4F200034FF006021A7044F60463C4F200034FF000021A7044F60563C4F200034FF000021A7044F60663C4F200034FF013021A7044F60863C4F2000363
:401080004FF000021A7044F60963C4F200034FF000021A7044F60A63C4F200034FF000021A7045F68403C4F200034FF014021A7045F68503C4F200034FF00B021A7045F629
:4010C0008603C4F200034FF031021A7045F68703C4F200034FF000021A7045F68803C4F200034FF012021A7045F68903C4F200034FF013021A7045F68A03C4F200034FF0EF
:4011000044021A7045F68B03C4F200034FF048021A7045F68C03C4F200034FF001021A7045F68E03C4F200034FF001021A7045F68F03C4F200034FF011021A7045F690037A
:40114000C4F200034FF019021A7045F69103C4F200036FF068021A704FF0520000F030FC45F69403C4F200034FF058021A7045F69503C4F200034FF000021A7045F69A036D
:40118000C4F200034FF005021A7045F69B03C4F200034FF002021A7045F69C03C4F200034FF001021A7045F69D03C4F200034FF000021A7045F60733C4F2000345F60732E7
:4011C000C4F200021278D2B242F01802D2B21A704FF0000000F0B2FC48F22053C1F6FF734FF066021A604FF01D004FF00701FFF7FFF94FF01D0041F65521C0F20001FFF7B8
:40120000C7F94EF20013CEF200034FF000521A60FB79022B40F0F68044F60063C4F200034FF038021A7044F60263C4F200034FF004021A7044F60363C4F200034FF0060266
:401240001A7044F60463C4F200034FF000021A7044F60563C4F200034FF000021A7044F60663C4F200034FF03F021A7044F60863C4F200034FF000021A7044F60963C4F2AE
:4012800000034FF000021A7044F60A63C4F200034FF000021A7045F68403C4F200034FF050021A7045F68503C4F200034FF027021A7045F68603C4F200034FF02C021A70BD
:4012C00045F68703C4F200034FF000021A7045F68803C4F200034FF012021A7045F68903C4F200034FF013021A7045F68A03C4F200034FF055021A7045F68B03C4F20003C8
:401300004FF05A021A7045F68C03C4F200034FF005021A7045F68E03C4F200034FF001021A7045F68F03C4F200034FF011021A7045F69003C4F200034FF019021A7045F6DC
:401340009103C4F200036FF068021A704FF0440000F036FB45F69403C4F200034FF058021A7045F69503C4F200034FF000021A7045F69A03C4F200034FF005021A7045F688
:401380009B03C4F200034FF002021A7045F69C03C4F200034FF001021A7045F69D03C4F200034FF000021A7045F60733C4F2000345F60732C4F200021278D2B242F0180297
:4013C000D2B21A704FF0000000F0B8FB48F22053C1F6FF734FF47A421A604FF01D004FF00701FFF705F94FF01D0041F66D21C0F20001FFF7CDF84EF20013CEF200034FF033
:4014000000521A60FB79032B40F0F68044F60063C4F200034FF038021A7044F60263C4F200034FF004021A7044F60363C4F200034FF006021A7044F60463C4F200034FF055
:4014400000021A7044F60563C4F200034FF000021A7044F60663C4F200034FF03F021A7044F60863C4F200034FF000021A7044F60963C4F200034FF000021A7044F60A635A
:40148000C4F200034FF000021A7045F68403C4F200034FF050021A7045F68503C4F200034FF027021A7045F68603C4F200034FF02C021A7045F68703C4F200034FF0000271
:4014C0001A7045F68803C4F200034FF012021A7045F68903C4F200034FF013021A7045F68A03C4F200034FF055021A7045F68B03C4F200034FF05A021A7045F68C03C4F2E0
:4015000000034FF005021A7045F68E03C4F200034FF001021A7045F68F03C4F200034FF011021A7045F69003C4F200034FF019021A7045F69103C4F200036FF068021A70DF
:401540004FF0440000F03CFA45F69403C4F200034FF058021A7045F69503C4F200034FF000021A7045F69A03C4F200034FF005021A7045F69B03C4F200034FF002021A70FD
:4015800045F69C03C4F200034FF001021A7045F69D03C4F200034FF000021A7045F60733C4F2000345F60732C4F200021278D2B242F01802D2B21A704FF0000000F0BEFAC4
:4015C00048F22053C1F6FF734FF47A421A604FF01D004FF00701FFF70BF84FF01D0041F67921C0F20001FEF7D3FF4EF20013CEF200034FF000521A60FB79042B40F0F680EF
:4016000044F60063C4F200034FF038021A7044F60263C4F200034FF004021A7044F60363C4F200034FF006021A7044F60463C4F200034FF000021A7044F60563C4F2000380
:401640004FF000021A7044F60663C4F200034FF03F021A7044F60863C4F200034FF000021A7044F60963C4F200034FF000021A7044F60A63C4F200034FF000021A7045F680
:401680008403C4F200034FF050021A7045F68503C4F200034FF027021A7045F68603C4F200034FF02C021A7045F68703C4F200034FF000021A7045F68803C4F200034FF0E6
:4016C00012021A7045F68903C4F200034FF013021A7045F68A03C4F200034FF055021A7045F68B03C4F200034FF05A021A7045F68C03C4F200034FF005021A7045F68E0387
:40170000C4F200034FF001021A7045F68F03C4F200034FF011021A7045F69003C4F200034FF019021A7045F69103C4F200036FF068021A704FF0440000F042F945F69403FC
:40174000C4F200034FF058021A7045F69503C4F200034FF000021A7045F69A03C4F200034FF005021A7045F69B03C4F200034FF002021A7045F69C03C4F200034FF00102A1
:401780001A7045F69D03C4F200034FF000021A7045F60733C4F2000345F60732C4F200021278D2B242F01802D2B21A704FF0000000F0C4F948F22053C1F6FF734FF47A42BD
:4017C0001A604FF01D004FF00701FEF711FF4FF01D0041F68521C0F20001FEF7D9FE4EF20013CEF200034FF000521A6007F10807BD4680BD80B487B000AFF871B9807A80F1
:401800007B70FB79A3F10403062B5DD801A252F823F000BF31180000C9180000C9180000571800007D180000C9180000A31800007B780F2B07D940F21413C4F600131B7818
:40184000DBB2FB7343E040F21813C4F600131B78DBB2FB733BE07B780F2B07D940F21513C4F600131B78DBB2FB7330E040F21913C4F600131B78DBB2FB7328E07B780F2BB7
:4018800007D940F21613C4F600131B78DBB2FB731DE040F21A13C4F600131B78DBB2FB7315E07B780F2B07D940F21713C4F600131B78DBB2FB730AE040F21B13C4F600130B
:4018C0001B78DBB2FB7302E04FF00003FB73FB79002B11D0FB79012B0ED0FB79022B0BD0FB79032B08D0FB79052B05D0FB79062B02D0FB79092B03D14FF000033B8206E083
:4019000097F90F309BB24FEA43139BB23B823A8ABB8813447B827B8A7A8802FB03F37B617B694FEAD3337B827B780D2B12D87A8A7B786FEA030303F10F0342FA03F37B8201
:4019400044F60E63C4F200037A7802F10102D2B21A7006E044F60E63C4F200034FF00F021A7044F60C63C4F200037A8AD2B21A7044F60D63C4F200037A8A4FEA122292B25D
:40198000D2B21A70FB79012B14D144F60C63C4F200034FF000021A7044F60D63C4F200034FF000021A7044F60E63C4F200034FF000021A7007F11C07BD4680BC704700BF3A
:4019C00080B582B000AF0346FB7144F2F563C4F2000344F2F562C4F200021278D2B242F01002D2B21A7044F2F763C4F2000344F2F762C4F200021278D2B242F00802D2B2D2
:401A00001A7045F69203C4F20003FA791A704FF00300FEF7A9FD44F2F563C4F2000344F2F562C4F200021278D2B202F0EF021A7044F2F763C4F2000344F2F762C4F2000222
:401A40001278D2B202F0F7021A7007F10807BD4680BD00BF80B500AFFFF752FA03469AB248F23A53C1F6FF731A8080BD80B400AFBD4680BC704700BF80B400AFBD4680BCA1
:401A8000704700BF80B400AFBD4680BC704700BF80B483B000AF0346FB7144F20A13C4F2000344F20A12C4F200021278D1B2FA7902F0F80241EA0202D2B21A7007F10C0783
:401AC000BD4680BC704700BF80B483B000AF0346FB7144F28603C4F2000344F28602C4F200021278D1B2FA7902F0F80241EA0202D2B21A7007F10C07BD4680BC704700BF0F
:401B000080B582B000AF4FF00003FB7107E0FB79184600F0BDFAFB7903F10103FB71FB79012BF4D948F23053C1F6FF734FF0FF321A7007F10807BD4680BD00BF80B582B0EF
:401B400000AF0346FB71FFF7DBFFFB79184600F079FA48F23053C1F6FF73FA791A7007F10807BD4680BD00BF80B500AF48F25053C1F6FF731B78002B08D100F00BF848F265
:401B80005053C1F6FF734FF001021A7000F01CF880BD00BF80B400AF46F22853C4F200034FF007021A7046F23853C4F200034FF048021A7046F28753C4F200034FF00002D1
:401BC0001A70BD4680BC704780B582B000AFFEF793FC0346FB7146F29753C4F2000346F29752C4F200021278D2B242F01002D2B21A7000F009F8FB791846FEF781FC07F1D5
:401C00000807BD4680BD00BF80B400AF44F2A233C4F2000344F2A232C4F200021278D2B242F00802D2B21A7044F2B233C4F2000344F2B232C4F200021278D2B242F00802E5
:401C4000D2B21A70BD4680BC704700BF80B485B000AF786039607B68BB604FF00003FB6009E0BA68FB6813444FF000021A70FB6803F10103FB60FA683B689A42F1D307F19A
:401C80001407BD4680BC704780B489B000AFF860B9607A60FB687B61BB68BB614FF00003FB610BE07A69FB691344B969FA690A4412781A70FB6903F10103FB61FA697B6822
:401CC0009A42EFD307F12407BD4680BC704700BF80B582B000AF7860396078684FF000013A6800F05BFC07F10807BD4680BD00BF80B584B000AFF860B9607A60F868B968F4
:401D00007A6800F083FB07F11007BD4680BD00BF80B487B000AF786039604FF00003FB604FF00003BB602CE0BB684FEA83027B6813441B683B613B69FB753B6923F0FF03AD
:401D40003B6117E0FB684FEA43023B6813441B781A463B691344FA684FEA42013A680A4452781A70FB6803F10103FB60FB7D03F1FF33FB75FB7D002BE4D1BB6803F10103AE
:401D8000BB60BB68202BCFD907F11C07BD4680BC704700BF80B500AF44F28003C4F200034FF000021A8044F28203C4F200034FF058021A7044F28403C4F200034FF005029E
:401DC0001A8044F28603C4F200034FF018021A7044F28803C4F200034FF017021A8044F28A03C4F200034FF018021A7044F28C03C4F200034FF49C721A8044F28E03C4F23D
:401E000000034FF018021A7044F29003C4F2000340F21A621A8044F29203C4F200034FF018021A7044F20010C4F2000040F66001C4F600014FF00C02FFF75AFF44F2003338
:401E4000C4F200034FF002021A7044F20003C4F200034FF008021A7044F20023C4F200034FF003021A7044F2A163C4F2000340F20812C4F600121278D2B21A7044F2222319
:401E8000C4F200034FF008021A8044F22023C4F2000341F251021A8040F6B830FEF724FB44F20403C4F200034FF003021A7044F20503C4F200034FF001021A7044F204033E
:401EC000C4F200034FF000021A7044F20403C4F200034FF007021A7044F20603C4F200034FF000021A7044F20803C4F200034FF048021A7044F20403C4F200034FF000028F
:401F00001A7044F20103C4F200034FF002021A7044F20B03C4F200034FF004021A7044F2A233C4F2000344F2A232C4F200021278D2B242F01F02D2B21A7044F2A133C4F2D6
:401F4000000344F2A132C4F200021278D2B242F00702D2B21A7080BD80B400AF44F2AA33C4F200034FF444721A8045F23D13C4F200034FF008021A7045F26D13C4F2000344
:401F80004FF020021A7045F62003C4F200034FF01E021A7045F62403C4F200034FF01E021A7045F62803C4F200034FF01E021A7045F62C03C4F200034FF01E021A7045F6E3
:401FC0000013C4F2000348F2C0021A8045F60313C4F200034FF00C021A7045F60813C4F2000348F2C0021A8045F60B13C4F200034FF00C021A7045F60033C4F200034FF0AA
:4020000002021A7045F62333C4F200034FF020021A7045F62833C4F200036FF07F021A7045F62B33C4F200034FF020021A7045F67603C4F200034FF044021A70BD4680BC2C
:40204000704700BF80B483B000AF0346FB71FB79012B18D8FA7942F21873C0F2000353F82220F97942F21873C0F2000353F821301978F87942F22073C0F200031B5C41EA79
:402080000303DBB2137007F10C07BD4680BC704780B483B000AF0346FB71FB79012B1BD8FA7942F21873C0F2000353F82220F97942F21873C0F2000353F821301978F879B3
:4020C00042F22073C0F200031B5C6FEA0303DBB201EA0303DBB2137007F10C07BD4680BC704700BF80B582B000AF72B644F60003C4F200034FF000021A70FFF74BFE44F6C8
:402100000003C4F200036FF07F021A7047F21003C4F200034FF000021A7047F22003C4F200034FF000021A7045F67C03C4F200034FF001021A7044F2E863C4F2000344F21A
:40214000E862C4F200021278D2B242F00102D2B21A704FF00003FB702FE0FA7813464FEA430313444FEA43031A4642F22473C0F2000313447B607B681A7859784FEA01217D
:4021800041EA020299784FEA014141EA0202DB784FEA036343EA02031A467B6819795B794FEA032343EA01039BB210461946FFF78FFDFB7803F10103FB70FB78042BCCD937
:4021C0004FF0904040F28401C4F60001FFF7A0FD45F20020C4F2000040F63001C4F600014FF00702FFF750FD45F20820C4F2000040F63801C4F600014FF00702FFF744FD53
:4022000045F21020C4F200004FF00701FFF71EFD45F21820C4F2000040F64001C4F600014FF00702FFF730FD45F22020C4F2000040F64801C4F600014FF00702FFF724FDA1
:4022400045F22820C4F2000040F65001C4F600014FF00702FFF718FD45F23020C4F200004FF00701FFF7F2FC45F26020C4F200004FF00601FFF7EAFC45F27820C4F2000018
:4022800040F65801C4F600014FF00702FFF7FCFC46F21203C4F200036FF03F021A7045F20303C4F2010345F20302C4F201021278D2B242F00202D2B21A7045F21303C4F22D
:4022C000010345F21302C4F201021278D2B242F00202D2B21A7044F2A033C4F2000344F2A032C4F200021278D2B242F04002D2B21A7044F2C233C4F2000344F2C232C4F2AD
:4023000000021278D2B242F01002D2B21A7045F20010C4F2000040F2E871C4F600014FF00A02FFF7E5FC45F2F010C4F2000040F2F471C4F600014FF00A02FFF7D9FC45F24A
:402340001210C4F2000040F60001C4F600014FF00802FFF7CDFC45F22210C4F2000040F60801C4F600014FF00802FFF7C1FC45F23210C4F2000040F61001C4F600014FF006
:402380000802FFF7B5FC45F24210C4F2000040F61801C4F600014FF00802FFF7A9FC45F25210C4F2000040F62001C4F600014FF00802FFF79DFC45F26210C4F2000040F671
:4023C0002801C4F600014FF00802FFF791FCFFF7C3FD44F2B030C4F2000044F2A031C4F200014FF00C02FFF783FC44F2B033C4F2000344F2B032C4F200021278D2B202F089
:40240000FD021A7007F10807BD4680BD032A2DE9F0070BD83AB1002311F803C000F803C001339342F8D1BDE8F007704782180C46034603E014F8011C03F8011C03F00306A0
:402440001946A44601330134002EF3D11CF00304634608BFC1EB020C68D06542C4F1040A0CEB050733464FEACA0A5CF805604FEAC408551A08E057F8044F264604FA0AF431
:4024800049EA0404CC5004335C18032D26FA08F9A5F104050CEB0306EDDC002302E0F15CE154013319199142F9D3BCE753F8404C41F8404C53F83C4C41F83C4C53F8384C33
:4024C00041F8384C53F8344C41F8344C53F8304C41F8304C53F82C4C41F82C4C53F8284C41F8284C53F8244C41F8244C53F8204C41F8204C53F81C4C41F81C4C53F8184C7C
:4025000041F8184C53F8144C41F8144C53F8104C41F8104C53F80C4C41F80C4C53F8084C41F8084C53F8044C41F8044C1C460D4640334031BCF13F0FACF1400CB6DC214684
:402540002B46541B0FE051F8105C43F8105C51F80C5C43F80C5C51F8085C43F8085C51F8045C43F8045C0F2C0D469C4601F1100103F11003A4F11004E5DCCCEB020100238B
:4025800003E0EC584CF8034004335E19032903EB0C04A1F10401F4DC7FE700BF032AC9B230B407D822B10023C15401339342FBD130BC704700EB020C034601E003F8011CE0
:4025C00003F003041A460133002CF7D14FF00133C2EB0C0403FB01F31FE042F8403C42F83C3C42F8383C42F8343C42F8303C42F82C3C42F8283C42F8243C42F8203C42F828
:402600001C3C42F8183C42F8143C42F8103C42F80C3C42F8083C42F8043C154640323F2CA4F14004D9DC2A46C5EB0C0407E042F8103C42F80C3C42F8083C42F8043C1546F2
:4026400010320F2CA4F11004F1DC2A46C5EB0C0501E042F8043C14460432032DA5F10405F7DC01E004F8011B6445FBD3A0E700BF08B500F017F8074800B10068064901B1CE
:4026800009680022FDF70AFD044B0BB1AFF30080FEE700BF000000000000000000000000FEE7000070B542F2507642F25075C0F20006C0F20005761BB61006D0002455F8B1
:4026C000243001349847A642F9D842F2507542F25876C0F20005C0F20006761B00F032F8B61006D0002455F8243001349847A642F9D870BD536F6D65206261736963206D06
:40270000657373616765000030313233343536373839414243444546035B0040035B004040400000C0510040100000000140001000140140000800400140000A004C01409C
:4027400000020000F8B500BFF8BC08BC9E46704781000000A5010000F8B500BFF8BC08BC9E4670476D00000000000000802700000881FF1F3004000028000000000000001B
:402780000000000000010301060109010D0110011301160119011C011F012201260129012C012F013201350138013B013E014101440147014A014D015001530156015901B6
:4027C0005C015F016201650168016B016D0170017301760179017B017E0181018401860189018C018E0191019301960198019B019D01A001A201A501A701AA01AC01AE01E2
:40280000B101B301B501B701B901BC01BE01C001C201C401C601C801CA01CC01CE01CF01D101D301D501D701D801DA01DC01DD01DF01E001E201E301E501E601E701E90194
:40284000EA01EB01ED01EE01EF01F001F101F201F301F401F501F601F701F801F801F901FA01FA01FB01FC01FC01FD01FD01FE01FE01FE01FF01FF01FF0100020002000239
:4028800000020002000200020002000200020002FF01FF01FF01FE01FE01FE01FD01FD01FC01FC01FB01FA01FA01F901F801F801F701F601F501F401F301F201F101F00193
:4028C000EF01EE01ED01EB01EA01E901E701E601E501E301E201E001DF01DD01DC01DA01D801D701D501D301D101CF01CE01CC01CA01C801C601C401C201C001BE01BC01BE
:40290000B901B701B501B301B101AE01AC01AA01A701A501A201A0019D019B0198019601930191018E018C0189018601840181017E017B0179017601730170016D016B0101
:402940006801650162015F015C0159015601530150014D014A014701440141013E013B013801350132012F012C012901260122011F011C0119011601130110010D01090111
:40298000060103010001FD00FA00F700F300F000ED00EA00E700E400E100DE00DA00D700D400D100CE00CB00C800C500C200BF00BC00B900B600B300B000AD00AA00A70050
:4029C000A400A1009E009B0098009500930090008D008A008700850082007F007C007A007700740072006F006D006A0068006500630060005E005B005900560054005200AE
:402A00004F004D004B00490047004400420040003E003C003A00380036003400320031002F002D002B0029002800260024002300210020001E001D001B001A00190017007A
:402A40001600150013001200110010000F000E000D000C000B000A000900080008000700060006000500040004000300030002000200020001000100010000000000000052
:402A800000000000000000000000000000000000010001000100020002000200030003000400040005000600060007000800080009000A000B000C000D000E000F00100073
:402AC00011001200130015001600170019001A001B001D001E0020002100230024002600280029002B002D002F00310032003400360038003A003C003E00400042004400D0
:402B0000470049004B004D004F0052005400560059005B005E0060006300650068006A006D006F007200740077007A007C007F008200850087008A008D009000930095000B
:402B400098009B009E00A100A400A700AA00AD00B000B300B600B900BC00BF00C200C500C800CB00CE00D100D400D700DA00DE00E100E400E700EA00ED00F000F300F7007B
:402B8000FA00FD0000366E01C05D0000180000000000E02E0100000066000000011119975205021800000000FF00000000000000000000000000000000000000000000009D
:402BC00000000000000000000000000000000000000000000000000000000000000000000000000000000000000000000000000000000000000000000000000000000000D5
:402C00000000000000000000000000000000000000000000000000000000000000000000000000000000000000000000000000000000000000000000000000000000000094
:402C40000000000000000000000000000000000000000000000000000000000000000000000000000000000000000000000000000000000000000000000000000000000054
:402C80000000000000000000000000000000000000000000000000000000000000000000000000000000000000000000000000000000000000000000000000000000000014
:020000040003F7
:0200000480007A
:40000000025B004002640040036500400300014001010140040301400105014002070140510801404E090140120B01405A0C01403B0D01400D15014060160140391701400A
:400040006618014054190140551A0140511B0140054001400B4101400142014002430140084401400C4501400746014007470140064801400A490140054C0140085001400F
:400080000151014007022721882D8D07862D870F8A2D38203E1058041804B404E008E204E6028A019201EA0208400A150B030C400E2A1102143F18331A0C2003228C243F79
:4000C00028302A8C2C40307F3102348037013A035425580459045B045C445D408390842B8501861087C0884089048AB88B218C408D028E808F21943B971899209A409B0779
:40010000A009A214A438A748A822AA10B004B101B31EB4F8B5E0B603BE40BF01C105C203C406C5E0C70CC812C9FFCAFFCBFFCC22CEF0CF0FD008D608D804D904DA04DB046A
:40014000DC44DD28DF20E040E101000802050302060509180D28111012401308155016401708184019801B101C081D201F02200421082201230827822A042B10312837029F
:40018000380439103A413C203D104010421049124A024D204E08520859205B405D045F816220630266107101724076407908860191089210930295019720984099149A0858
:4001C0009B109C019D80A210A601A740C0C7C266C4FECA02CC86CE2FD002D20CD6DCD82CDE02E402EA0285808A4091089210930295019720984099149A489B109C01A21069
:40020000A601A740B510E008E6800102049C06220C800D200E1013171430164C1A031C091D181EF01F03202C22D125182705290E2C1432E03318341F3520370739083A081F
:400240003B803F1440324104460E47BC483449FF4AFF4BFF4EF04F44500C5608580459045A045B045C335D2366C06A406B02830291039804A003A403A803AC01AE02B00403
:40028000B101B202B401B502BE15BF11C002C104C5CEC7B0C823C9FFCAFFCBFFCC03CEF0CF04D008D602D72CD804D904DA24DB04DD88DE0BDF20E040E101E2C0E30105046B
:4002C000060209200D280E0210AA1440160118041A101B011D241F04204022202510268027102C102F14300131023440368138023D013E023F8040044102445045184A5052
:40030000500156495E806040670268AA7801790886209108A701AF01B104C0A0C2E2C49FCA60CC91CE91D0E5D610D811DE03E008E204EC488704884497089C44AB80AC80AD
:40034000B2A0B444B708E201E608EA01EE0204010533078C09BF0A060C200D3F1140160419401B2A1D031F8C220925302631278C29402A022B153020320733803408357F49
:4003800036103B303F044020410549FF4AFF4BFF4DA04F0450185425580459045A045B04604062C06440654066C068C06AC06CC06EC0842286408C308E0C98309A039C8011
:4003C000A011A240A608AA04B00FB280B440B630B980BE44C020C105C5D2C610C720C82BC9FFCAFFCBFFCDAFCE0FCF04D018D401D804D904DA04DB04DC40DD30E040E2C076
:40040000E440E540E6C0E8C0EAC0ECC0EEC000400210041405400A050E201044122014441610184419041A041B801C101D601E401F08228026342C243440362037013C54F3
:400440004120452049024A024B044E0250205212589059045A015D025E405F0467086E106F01821484309201C0E5C223C47ECA60CCB0CE70D024D218D6DFD820E003E6026C
:40048000030104240601080D0A30100211041B011E39200D21022210280C2A11310432013301343C350236023A203E043F15400245504601480649FF4A074BFF4C404D207C
:4004C0004EF04F0550085420580459045A045B045C035D23604061A862406320840885208617870388078B888C058E028FC090019222940895019610970C98049A229B441A
:400500009D029F31A007A110A303AA08B101B30EB41FB620B7F0BF01C040C103C5D1C702C813C9FFCAFFCBFFCDA0CF04D018D804D904DA04DB04DC44DD04E040E2C0E4403B
:40054000E540E6C0E8C0EAC0ECC0EEC001800208032005140A400B140C040D080E020F80100812801440160819801A091BA01D101E021F182140228A2404250929012E023C
:40058000320833A0341035023620382039803B143F0240404104471048104B014D01510457405D0260046210641668086B016D60790C7C027D028204860C90409240930299
:4005C00095459721984099079A089B109E10A230A301A410A510A601A740B001B202B410B740C067C29EC45ACA81CCAECE8ED023D680D870003F04400504062A07010C4002
:400600001003120C148018401A151C331D061E0C21062430268C283F2D022F0830803106327F330835013A0C3F014030410645D14702481349FF4AFF4BFF4DA04F04501855
:400640005425580459045A045B045C445D44604062C06440654066C068C06AC06CC06EC0800282048307840E8A108C0A8E049401980899039A049C109E2EA010A220A40E7C
:40068000AF01B304B401B502B63EB701B808BE10BF50D441D804D904DB04DC20DD200108028003010408068508420A690E161208130414201702182019081A801E121F6051
:4006C0002104221225102640271028422F0130083104328037103B043F02410445104608480849014B04500859055A805C085EA06004660874017680800882028301872018
:4007000088018B40900C924D93029420970498209A059B03A298A301AA02AF08B202B302B424B601C0FDC2EFC436CA19CC28CE82D002D204D67BD844E280E680E8F0EC4068
:40074000308037805C02CC30D68015018080840285019C029F80A480C420E010E220E6409F80AF80EA400C04470857807501C204D001D402DE040A206208818087089F0825
:40078000AF80B004B501C208D802EC02EE012A8086089D80A608B610CA08EA020C085F0287029D80AE80C204D60153015B048202D480D640E6205C01660280019A02AB0579
:4007C000D680D880E280EA80EE202D809D80B008CA04EE04001C02100C140E0C101D12101A191C1D000F000002002002020002001400000000002000000080000000000021
:400800000050500050000000007F7F000000000000404000400088001180800080004000004242004200000000000000000020000200000020000000504000000000000019
:4008400040000000000000000080000011000000000200000000000080000000200000000100180101001801180018010000000000000000000000000000000000000000A0
:400880000000000000000000000000000000000000000000000000000000000000000000000000000000000000000000000000000000000000000000000000000000000038
:4008C00000000000000000000000000000000000000000000000000000000000000000000000000000000000000000000000000000000000000000000000000000000000F8
:4009000000000000000000000000000000000000000000000000000000000000000000000000000000000000000000000000000000000000000000000000000000000000B7
:400940000000000000000000000000000000000000000000000000000000000000000000000000000000000000000000000000000000000000000000000000000000000077
:0200000490006A
:0400000000000006F6
:0200000490105A
:04000000BC90ACAF55
:0200000490303A
:02000000916D00
:0200000490501A
:0C00000000010E13C06901010E2851D64A
:0200000490402A
:4000000000000000000000000000000000000000000000000000000000000000000000000000000000000000000000000000000000000000000000000000000000000000C0
:400040000000000000000000000000000000000000000000000000000000000000000000000000000000000000000000000000000000000000000000000000000000000080
:400080000000000000000000000000000000000000000000000000000000000000000000000000000000000000000000000000000000000000000000000000000000000040
:4000C0000000000000000000000000000000000000000000000000000000000000000000000000000000000000000000000000000000000000000000000000000000000000
:00000001FF
