:1000000000800020BD000000B5000000B500000029
:1000100080B51448144B21E05C689968DD688C4217
:100020000CD0002205E0A6180832D6E9008941E983
:1000300002898C460831AA42F5D101E004EB050C97
:100040001C696146002204E008320026002741E9CD
:1000500002670831A242F7D1143301380028DBD1FE
:1000600000F0B0FF01000000AC10000048F22013C7
:10007000C1F6FF731A780AB901201870704700BFE3
:1000800048F20810C1F6FF7008B503682BB140F2C2
:100090000003C0F2000303B1984708BD80B500AF6C
:1000A00000F006F941F24800C0F2000000F016F935
:1000B000FEE700BF80B400AFFEE700BF054B1C7831
:1000C00044F001041C70044B1A78D2B2034B1A702E
:1000D000FFF79EFFE8460040F8460040BC7600402F
:1000E00080B582B000AF4EF60C53CEF2000340F262
:1000F0000042C0F2FA521A604EF61453CEF20003D8
:100100004EF61452CEF20002126842F400721A60E7
:100110004FF000037B6019E079687B68032B07D8F8
:100120007A6840F20003C0F2000353F8223003E083
:1001300040F2B503C0F2000348F20002C1F6FF72BC
:1001400042F821307B6803F101037B607B682F2B31
:10015000E2D947F2BC63C4F200031B78DAB248F27A
:100160002313C1F6FF731A704EF60853CEF2000344
:1001700048F20002C1F6FF721A6000F087FC48F2F4
:100180000013C1F6FF734FF000021A6007F1080771
:10019000BD4680BD80B582B000AF78600BE048F20C
:1001A0001813C1F6FF731B68184600F0C9FD7B6881
:1001B000A3F500437B607B68B3F5004FEFD848F2AE
:1001C0001013C1F6FF731B687A6802FB03F318462D
:1001D00000F0B6FD07F10807BD4680BD80B582B0CE
:1001E00000AF0346FB80FA8848F21413C1F6FF7390
:1001F0001B7803FB02F3184600F0A2FD07F1080785
:10020000BD4680BD80B500AF4FF02800FFF7C2FFAC
:100210004FF0030000F00EFA4FF00500FFF7BAFFB1
:100220004FF0030000F006FA4FF00F00FFF7B2FFA7
:100230004FF0030000F0FEF94FF00100FFF7AAFFB6
:100240004FF0020000F0F6F94FF00500FFF7A2FFB3
:100250004FF0060000F07EF84FF00E0000F07AF844
:100260004FF02C0000F076F84FF0080000F072F824
:100270004FF0010000F06EF84FF00C0000F06AF84B
:100280004FF0030000F066F84FF00500FFF782FF23
:1002900080BD00BF80B500AF4FF00C0000F05AF8F1
:1002A00048F22113C1F6FF734FF001021A7080BDAE
:1002B00080B500AF48F22213C1F6FF731B78002B04
:1002C00008D1FFF79FFF48F22213C1F6FF734FF0EA
:1002D00001021A70FFF7DEFF80BD00BF80B584B059
:1002E00000AF78604FF00103BB737B681B78FB7332
:1002F0000CE0FB7B184600F011F8BA7B7B681344D6
:100300001B78FB73BB7B03F10103BB73FB7B002BEF
:10031000EFD107F11007BD4680BD00BF80B584B0A6
:1003200000AF0346FB7100F031F8FB794FEA13137D
:10033000FB73FB7B184600F027F9FB7903F00F03F2
:10034000FB73FB7B184600F01FF907F11007BD4651
:1003500080BD00BF80B584B000AF0346FB7100F0E4
:1003600015F8FB794FEA1313FB73FB7B184600F07B
:1003700061F9FB7903F00F03FB73FB7B184600F078
:1003800059F907F11007BD4680BD00BF80B582B0A6
:1003900000AF45F22013C4F2000345F22012C4F26C
:1003A00000021278D2B202F080021A7045F22213D3
:1003B000C4F200031B78DBB223F00F03FB7145F29C
:1003C0002213C4F20003FA7942F00F02D2B21A707B
:1003D00045F22313C4F200031B78DBB223F00F03B2
:1003E000FB7145F22313C4F20003FA791A7045F247
:1003F0002413C4F200031B78DBB223F00F03FB715C
:1004000045F22413C4F20003FA791A7045F220135E
:10041000C4F2000345F22012C4F200021278D2B2F4
:1004200002F0DF021A7045F22013C4F2000345F215
:100430002012C4F200021278D2B242F04002D2B2CC
:100440001A704FF00000FFF7C9FE45F22013C4F206
:10045000000345F22012C4F200021278D2B242F038
:100460001002D2B21A704FF00100FFF7B7FE45F24A
:100470002113C4F200031B78FB7145F22013C4F270
:10048000000345F22012C4F200021278D2B202F048
:10049000EF021A704FF00000FFF7A0FEFB7903F0A7
:1004A0000803FB7145F22013C4F2000345F2201249
:1004B000C4F200021278D2B242F01002D2B21A7024
:1004C0004FF00100FFF78AFE45F22013C4F200034B
:1004D00045F22012C4F200021278D2B202F0EF020A
:1004E0001A70FB79002BACD145F22013C4F2000343
:1004F00045F22012C4F200021278D2B202F0BF021A
:100500001A7045F22013C4F2000345F22012C4F21F
:1005100000021278D2B202F080021A7045F2221361
:10052000C4F2000345F22212C4F200021278D2B2E1
:1005300002F0F0021A7045F22313C4F200031B7894
:10054000DBB223F00F03FB7145F22313C4F2000367
:10055000FA7942F00F02D2B21A7045F22413C4F2B3
:1005600000031B78DBB223F00F03FB7145F2241369
:10057000C4F20003FA7942F00F02D2B21A7007F106
:100580000807BD4680BD00BF80B582B000AF0346FE
:10059000FB71FFF7FBFE45F22013C4F2000345F2A6
:1005A0002012C4F200021278D2B242F02002D2B27B
:1005B0001A7045F22013C4F2000345F22012C4F26F
:1005C00000021278D2B202F0BF021A7045F2201374
:1005D000C4F2000345F22012C4F200021278D2B233
:1005E00002F0F0021A7045F22013C4F2000345F243
:1005F0002012C4F200021278D1B2FA7941EA020262
:10060000D2B242F01002D2B21A704FF00100FFF7DE
:10061000E5FD45F22013C4F2000345F22012C4F2B6
:1006200000021278D2B202F0EF021A7007F1080746
:10063000BD4680BD80B582B000AF0346FB7145F278
:100640002013C4F2000345F22012C4F20002127813
:10065000D2B202F09F021A7045F22013C4F20003D6
:1006600045F22012C4F200021278D2B202F0F00277
:100670001A7045F22013C4F2000345F22012C4F2AE
:1006800000021278D1B2FA7941EA0202D2B242F003
:100690001002D2B21A704FF00100FFF79FFD45F231
:1006A0002013C4F2000345F22012C4F200021278B3
:1006B000D2B202F0EF021A7007F10807BD4680BD02
:1006C00080B485B000AF786039607B68BB604FF064
:1006D0000003FB6009E0BA68FB6813444FF00002B6
:1006E0001A70FB6803F10103FB60FA683B689A42E9
:1006F000F1D307F11407BD4680BC704780B489B0C0
:1007000000AFF860B9607A60FB687B61BB68BB6171
:100710004FF00003FB610BE07A69FB691344B96990
:10072000FA690A4412781A70FB6903F10103FB614C
:10073000FA697B689A42EFD307F12407BD4680BC73
:10074000704700BF80B582B000AF786039607868CC
:100750004FF000013A6800F0CBFB07F10807BD46F7
:1007600080BD00BF80B584B000AFF860B9607A602A
:10077000F868B9687A6800F0F3FA07F11007BD4627
:1007800080BD00BF80B487B000AF786039604FF0A3
:100790000003FB604FF00003BB602CE0BB684FEA36
:1007A00083027B6813441B683B613B69FB753B69B3
:1007B00023F0FF033B6117E0FB684FEA43023B680D
:1007C00013441B781A463B691344FA684FEA420106
:1007D0003A680A4452781A70FB6803F10103FB601F
:1007E000FB7D03F1FF33FB75FB7D002BE4D1BB6880
:1007F00003F10103BB60BB68202BCFD907F11C07B5
:10080000BD4680BC704700BF80B500AF44F2800396
:10081000C4F200034FF000021A8044F28203C4F2D3
:1008200000034FF058021A7044F28403C4F200032C
:100830004FF002021A8044F28603C4F200034FF024
:1008400018021A7044F20010C4F2000040F2046171
:10085000C4F600014FF00C02FFF784FF44F20033AE
:10086000C4F200034FF002021A7044F20003C4F213
:1008700000034FF008021A7044F20023C4F2000390
:100880004FF003021A7044F2A163C4F2000340F275
:100890000812C4F600121278D2B21A7044F222235F
:1008A000C4F200034FF008021A8044F22023C4F27D
:1008B000000341F251021A8040F6B83000F040FACD
:1008C00044F20403C4F200034FF003021A7044F22E
:1008D0000503C4F200034FF001021A7044F204034E
:1008E000C4F200034FF000021A7044F20403C4F291
:1008F00000034FF007021A7044F20603C4F200032B
:100900004FF000021A7044F20803C4F200034FF0E3
:1009100048021A7044F20403C4F200034FF00002CC
:100920001A7044F20103C4F200034FF002021A707D
:1009300044F20B03C4F200034FF004021A7044F2B5
:10094000A233C4F2000344F2A232C4F200021278CD
:10095000D2B242F00302D2B21A7044F2A133C4F20E
:10096000000344F2A132C4F200021278D2B242F083
:100970000702D2B21A7080BD80B400AF44F2AA332D
:10098000C4F200034FF444721A8045F20D13C4F20E
:1009900000034FF060021A7045F23D13C4F20003E9
:1009A0004FF020021A7045F24D13C4F200034FF0CD
:1009B00008021A7045F62003C4F200034FF01E022D
:1009C0001A7045F62403C4F200034FF01E021A7099
:1009D00045F62803C4F200034FF01E021A7045F6D4
:1009E0002C03C4F200034FF01E021A7045F60013E8
:1009F000C4F2000348F2C0021A8045F60313C4F2A1
:100A000000034FF00C021A7045F60813C4F20003FD
:100A100048F2C0021A8045F60B13C4F200034FF0EF
:100A20000C021A7045F60033C4F200034FF0400286
:100A30001A7045F60433C4F200034FF020021A7016
:100A400045F62033C4F200036FF07F021A7045F6BA
:100A50002333C4F200034FF020021A7045F6283306
:100A6000C4F200034FF020021A7045F62B33C4F293
:100A700000034FF020021A7045F67603C4F200031B
:100A80004FF044021A70BD4680BC704780B582B0FA
:100A900000AF72B644F60003C4F200034FF0000248
:100AA0001A70FFF7B1FE44F60003C4F200036FF0C2
:100AB0007F021A7047F21003C4F200034FF00002E5
:100AC0001A7047F22003C4F200034FF000021A70BC
:100AD00045F67C03C4F200034FF001021A7044F2A1
:100AE000E863C4F2000344F2E862C4F20002127840
:100AF000D2B242F00102D2B21A704FF00003FB7082
:100B00002FE0FA7813464FEA430313444FEA4303B6
:100B10001A4641F25C03C0F2000313447B607B6819
:100B20001A7859784FEA012141EA020299784FEA8E
:100B3000014141EA0202DB784FEA036343EA020320
:100B40001A467B6819795B794FEA032343EA01036C
:100B50009BB210461946FFF7F5FDFB7803F1010340
:100B6000FB70FB78062BCCD94FF0904040F284010B
:100B7000C4F60001FFF706FE45F20020C4F20000B3
:100B800040F2F451C4F600014FF00702FFF7B6FD42
:100B900045F20820C4F2000040F2FC51C4F6000106
:100BA0004FF00702FFF7AAFD45F21020C4F2000043
:100BB0004FF00701FFF784FD45F21820C4F2000052
:100BC0004FF00701FFF77CFD45F22020C4F2000042
:100BD0004FF00701FFF774FD45F22820C4F2000032
:100BE0004FF00701FFF76CFD45F23020C4F2000022
:100BF0004FF00701FFF764FD45F26020C4F20000EA
:100C00004FF00601FFF75CFD45F27820C4F20000CA
:100C10004FF00701FFF754FD45F20303C4F201034F
:100C200045F20302C4F201021278D2B242F002028B
:100C3000D2B21A7045F21303C4F2010345F2130253
:100C4000C4F201021278D2B242F00202D2B21A7099
:100C500044F2A033C4F2000344F2A032C4F2000212
:100C60001278D2B242F04002D2B21A7044F2C233C9
:100C7000C4F2000344F2C232C4F200021278D2B2CB
:100C800042F01002D2B21A7045F20210C4F2000013
:100C900040F2CC51C4F600014FF00802FFF762FDAC
:100CA00045F21210C4F2000040F2D451C4F6000123
:100CB0004FF00802FFF756FD45F22210C4F2000083
:100CC00040F2DC51C4F600014FF00802FFF74AFD84
:100CD00045F23210C4F2000040F2E451C4F60001C3
:100CE0004FF00802FFF73EFD45F24210C4F200004B
:100CF00040F2EC51C4F600014FF00802FFF732FD5C
:100D0000FFF73AFE44F2B030C4F2000044F2A031E2
:100D1000C4F200014FF00C02FFF724FD44F2B0339F
:100D2000C4F2000344F2B032C4F200021278D2B22C
:100D300002F0FD021A7007F10807BD4680BD00BF32
:100D40000230800803D000BF01380046FCD1704754
:100D5000EFF3108072B6704780F31088704700BFC1
:100D6000032A2DE9F0070BD83AB1002311F803C08C
:100D700000F803C001339342F8D1BDE8F007704793
:100D800082180C46034603E014F8011C03F8011C0A
:100D900003F003061946A44601330134002EF3D1B3
:100DA0001CF00304634608BFC1EB020C68D0654227
:100DB000C4F1040A0CEB050733464FEACA0A5CF893
:100DC00005604FEAC408551A08E057F8044F264654
:100DD00004FA0AF449EA0404CC5004335C18032DE5
:100DE00026FA08F9A5F104050CEB0306EDDC002357
:100DF00002E0F15CE154013319199142F9D3BCE7E7
:100E000053F8404C41F8404C53F83C4C41F83C4CB2
:100E100053F8384C41F8384C53F8344C41F8344CC2
:100E200053F8304C41F8304C53F82C4C41F82C4CD2
:100E300053F8284C41F8284C53F8244C41F8244CE2
:100E400053F8204C41F8204C53F81C4C41F81C4CF2
:100E500053F8184C41F8184C53F8144C41F8144C02
:100E600053F8104C41F8104C53F80C4C41F80C4C12
:100E700053F8084C41F8084C53F8044C41F8044C22
:100E80001C460D4640334031BCF13F0FACF1400CE5
:100E9000B6DC21462B46541B0FE051F8105C43F89A
:100EA000105C51F80C5C43F80C5C51F8085C43F89A
:100EB000085C51F8045C43F8045C0F2C0D469C461A
:100EC00001F1100103F11003A4F11004E5DCCCEBF7
:100ED0000201002303E0EC584CF8034004335E1990
:100EE000032903EB0C04A1F10401F4DC7FE700BF4C
:100EF000032AC9B230B407D822B10023C154013348
:100F00009342FBD130BC704700EB020C034601E07A
:100F100003F8011C03F003041A460133002CF7D137
:100F20004FF00133C2EB0C0403FB01F31FE042F866
:100F3000403C42F83C3C42F8383C42F8343C42F8F1
:100F4000303C42F82C3C42F8283C42F8243C42F821
:100F5000203C42F81C3C42F8183C42F8143C42F851
:100F6000103C42F80C3C42F8083C42F8043C154660
:100F700040323F2CA4F14004D9DC2A46C5EB0C04D6
:100F800007E042F8103C42F80C3C42F8083C42F8BA
:100F9000043C154610320F2CA4F11004F1DC2A4653
:100FA000C5EB0C0501E042F8043C14460432032D65
:100FB000A5F10405F7DC01E004F8011B6445FBD34F
:100FC000A0E700BF08B500F017F8074800B10068B7
:100FD000064901B109680022FFF760F8044B0BB124
:100FE000AFF30080FEE700BF00000000000000003B
:100FF00000000000FEE7000070B541F2940641F2E7
:101000009405C0F20006C0F20005761BB61006D0AB
:10101000002455F8243001349847A642F9D841F20B
:10102000940541F29C06C0F20005C0F20006761B52
:1010300000F02AF8B61006D0002455F82430013408
:081040009847A642F9D870BDE3
:10104800536F6D65206261736963206D65737361A9
:1010580067650000505100402000C051004010005A
:10106800F051004010000000014000100014014041
:10107800000800400140000A004C01400002000046
:10108800F8B500BFF8BC08BC9E4670478100000058
:10109800E1000000F8B500BFF8BC08BC9E467047E8
:1010A8006D00000000000000C01000000881FF1F54
:0810B800180000000800000010
:1010C0000000000000366E01C05D00001800000046
:0810D0000000E02E000000000A
:04000003000000BD3C
:00000001FF
