:1000000000800020FD030000F5030000F503000060
:1000100080B51448144B21E05C689968DD688C4217
:100020000CD0002205E0A6180832D6E9008941E983
:1000300002898C460831AA42F5D101E004EB050C97
:100040001C696146002204E008320026002741E9CD
:1000500002670831A242F7D1143301380028DBD1FE
:1000600008F064F8010000006C84000048F660238A
:10007000C1F6FF731A780AB901201870704700BFE3
:1000800048F20810C1F6FF7008B503682BB140F2C2
:100090000003C0F2000303B1984708BDB0B584B0B7
:1000A00000AFC7E90201C7E9002348F20C13C1F60B
:1000B000FF731B68184602F005FF02460B46104608
:1000C0001946D7E9022302F051FF02460B461446B7
:1000D0001D4648F21013C1F6FF731B68184602F064
:1000E000F1FE02460B4610461946D7E9002302F0FE
:1000F0003DFF02460B462046294602F085FD02469A
:100100000B4614461D4648F21413C1F6FF731B68D4
:10011000184602F0D7FE02460B4610461946D7E9AC
:10012000082302F023FF02460B462046294602F030
:100130006BFD02460B4614461D4648F21813C1F6E5
:10014000FF731B68184602F0BDFE02460B461046C0
:100150001946D7E90A2302F009FF02460B4620465A
:10016000294602F051FD02460B4614461D4648F250
:100170001C13C1F6FF731B68184602F0A3FE02466B
:100180000B4610461946D7E90C2302F0EFFE024653
:100190000B462046294602F037FD02460B46144620
:1001A0001D4648F22013C1F6FF731B68184602F083
:1001B00089FE02460B4610461946D7E90E2302F087
:1001C000D5FE02460B462046294602F01DFD02469A
:1001D0000B4614461D4648F22413C1F6FF731B68F4
:1001E000184602F06FFE02460B4610461946D7E944
:1001F000102302F0BBFE02460B462046294602F0C1
:1002000003FD02460B461046194607F11007BD468E
:10021000B0BD00BF2DE9B04F9CB00AAF744BBB63BB
:10022000734BFB63724B3B64714B7B64704BBB62E3
:100230006F4BFB626E4B3B636D4B7B6300F06EFA62
:1002400001F042F800F0B8FD48F20820C0F20000CA
:1002500000F002FE4EF20013CEF200034FF0005207
:100260001A6001F0A5F901F0C1F900F033F900F0CE
:1002700077FA00F08BFB02F001F848F6B423C1F6E0
:10028000FF7348F22812C1F6FF721A6041F28830FB
:1002900000F0AEFC62B63B6C7B64FB6B3B64BB6BFB
:1002A000FB63FB6B184602F00DFE804689463B6CF3
:1002B000184602F007FE04460D467B6C184602F015
:1002C00001FEC7E90001BB6A184602F0FBFDC7E961
:1002D0000201FB6A184602F0F5FDC7E904013B6B19
:1002E000184602F0EFFD82468B467B6B184602F003
:1002F000E9FD02460B46D7E90001CDE90001D7E947
:100300000201CDE90201D7E90401CDE90401CDE9FB
:1003100006ABCDE908234046494622462B46FFF767
:10032000BDFE02460B461046194603F0B9F80346D7
:10033000BB6302F01DF803461A4648F66823C1F66F
:10034000FF731A7048F66823C1F6FF731B78562BAB
:1003500015D148F66223C1F6FF731B881BB24FEA22
:1003600023239BB2DBB2184602F028F848F662233A
:10037000C1F6FF731B88DBB2184602F01FF848F283
:100380002013C1F6FF731B68184602F09BFD02465E
:100390000B4607F11801084648F21C21C0F2000183
:1003A00003F000FA4FF001004FF0000100F01AFDD9
:1003B00007F11803184600F04FFD4FF001004FF011
:1003C000080100F00FFD48F66623C1F6FF731B8895
:1003D0001AB248F22813C1F6FF7333F812309BB2F9
:1003E000184600F05BFF4FF0320000F001FC52E7CE
:1003F0000000000080B400AFFEE700BF054B1C7892
:1004000044F001041C70044B1A78D2B2034B1A70EA
:10041000FFF7FEFDE8460040F8460040BC7600408D
:1004200080B582B000AF4EF60C53CEF2000340F21E
:100430000042C0F2FA521A604EF61453CEF2000394
:100440004EF61452CEF20002126842F400721A60A4
:100450004FF000037B6019E079687B68032B07D8B5
:100460007A6840F20003C0F2000353F8223003E040
:1004700040F2F533C0F2000348F20002C1F6FF7209
:1004800042F821307B6803F101037B607B682F2BEE
:10049000E2D947F2BC63C4F200031B78DAB248F633
:1004A000B823C1F6FF731A704EF60853CEF200035C
:1004B00048F20002C1F6FF721A6002F015FA48F223
:1004C0000013C1F6FF734FF000021A6007F108072E
:1004D000BD4680BD80B500AF48F66A23C1F6FF7304
:1004E0001B78002B08D100F00BF848F66A23C1F600
:1004F000FF734FF001021A7000F064F880BD00BF76
:1005000080B582B000AF46F27553C4F200031B7889
:10051000DBB223F03F03BB7146F27553C4F2000314
:10052000BA7942F01902D2B21A7046F29453C4F268
:10053000000346F29452C4F200021278D2B242F0A2
:100540000102D2B21A7046F29553C4F2000346F289
:100550009552C4F200021278D2B242F00102D2B235
:100560001A704FF4007000F043F84FF4007000F080
:100570005DF84FF4807000F069F84FF0030000F070
:1005800075F84FF0000000F09DF800F01DFB0346E9
:10059000FB7146F29453C4F2000346F29452C4F243
:1005A00000021278D2B242F01002D2B21A70FB7975
:1005B000184600F00DFB00F02BF807F10807BD46C8
:1005C00080BD00BF80B400AF46F27553C4F2000393
:1005D00046F27552C4F200021278D2B26FEA426259
:1005E0006FEA5262D2B21A70BD4680BC704700BF3B
:1005F00080B483B000AF0346FB8046F60823C4F204
:100600000003FA881A8007F10C07BD4680BC7047CA
:1006100080B500AF01E000F075F800F063F8034624
:1006200003F01003002BF6D180BD00BF80B483B06F
:1006300000AF0346FB8046F68823C4F20003FA8825
:100640001A8007F10C07BD4680BC704780B483B0A8
:1006500000AF0346FB8046F64823C4F20003FA8845
:100660001A8007F10C07BD4680BC704780B483B088
:1006700000AF0346FB7146F27453C4F2000346F226
:100680007452C4F200021278D2B202F0FC021A7064
:1006900046F27453C4F2000346F27452C4F20002EC
:1006A0001278D2B21146FA79D2B202F0030241EACC
:1006B0000202D2B2D2B21A7007F10C07BD4680BC5A
:1006C000704700BF80B483B000AF0346FB7146F2B1
:1006D0008453C4F20003FA791A7007F10C07BD467F
:1006E00080BC704780B483B000AF46F26453C4F25C
:1006F00000031B78FB71FB79184607F10C07BD4618
:1007000080BC704780B400AF46F6A823C4F2000353
:100710001B889BB21846BD4680BC704780B400AFB2
:1007200044F2A233C4F2000344F2A232C4F2000243
:100730001278D2B242F00102D2B21A7044F2B2334D
:10074000C4F2000344F2B232C4F200021278D2B210
:1007500042F00102D2B21A70BD4680BC704700BFA1
:1007600080B500AF48F66B23C1F6FF731B78002BF2
:1007700008D100F00BF848F66B23C1F6FF734FF079
:1007800001021A7000F056F880BD00BF80B582B03B
:1007900000AF46F27643C4F200031B78DBB223F0CD
:1007A0003F03BB7146F27643C4F20003BA7942F0CC
:1007B0000902D2B21A7046F29443C4F2000346F220
:1007C0009442C4F200021278D2B242F00102D2B2D4
:1007D0001A704FF0FF0000F043F84FF0FF0000F0F8
:1007E0005DF84FF0800000F069F84FF0030000F072
:1007F00075F84FF0000000F09DF800F0E5F90346B1
:10080000FB7146F29443C4F2000346F29442C4F2F0
:1008100000021278D2B242F01002D2B21A70FB7902
:10082000184600F0D5F900F02BF807F10807BD468F
:1008300080BD00BF80B400AF46F27643C4F200032F
:1008400046F27642C4F200021278D2B26FEA4262F5
:100850006FEA5262D2B21A70BD4680BC704700BFC8
:1008600080B483B000AF0346FB7146F20443C4F288
:100870000003FA791A7007F10C07BD4680BC704777
:1008800080B500AF01E000F075F800F063F80346B2
:1008900003F01003002BF6D180BD00BF80B483B0FD
:1008A00000AF0346FB7146F24443C4F20003FA79F9
:1008B0001A7007F10C07BD4680BC704780B483B046
:1008C00000AF0346FB7146F22443C4F20003FA79F9
:1008D0001A7007F10C07BD4680BC704780B483B026
:1008E00000AF0346FB7146F27443C4F2000346F2C4
:1008F0007442C4F200021278D2B202F0FC021A7002
:1009000046F27443C4F2000346F27442C4F2000299
:100910001278D2B21146FA79D2B202F0030241EA59
:100920000202D2B2D2B21A7007F10C07BD4680BCE7
:10093000704700BF80B483B000AF0346FB7146F23E
:100940008443C4F20003FA791A7007F10C07BD461C
:1009500080BC704780B483B000AF46F26443C4F2F9
:1009600000031B78FB71FB79184607F10C07BD46A5
:1009700080BC704780B400AF46F25443C4F2000319
:100980001B78DBB21846BD4680BC704780B500AF0F
:1009900048F66C23C1F6FF731B78002B08D100F0DA
:1009A0000BF848F66C23C1F6FF734FF001021A7082
:1009B00000F056F880BD00BF80B582B000AF46F2AF
:1009C0007243C4F200031B78DBB223F03F03BB7118
:1009D00046F27243C4F20003BA7942F00902D2B27D
:1009E0001A7046F29243C4F2000346F29242C4F2F5
:1009F00000021278D2B242F00102D2B21A704FF065
:100A0000FF0000F043F84FF0FF0000F05DF84FF0FA
:100A1000800000F069F84FF0030000F075F84FF027
:100A2000000000F09DF800F0CFF80346FB7146F29D
:100A30009243C4F2000346F29242C4F200021278DA
:100A4000D2B242F01002D2B21A70FB79184600F00E
:100A5000BFF800F02BF807F10807BD4680BD00BFC6
:100A600080B400AF46F27243C4F2000346F2724211
:100A7000C4F200021278D2B26FEA42626FEA5262A6
:100A8000D2B21A70BD4680BC704700BF80B483B03C
:100A900000AF0346FB7146F20243C4F20003FA7949
:100AA0001A7007F10C07BD4680BC704780B500AFD7
:100AB00001E000F075F800F063F8034603F010035E
:100AC000002BF6D180BD00BF80B483B000AF0346D9
:100AD000FB7146F24243C4F20003FA791A7007F13F
:100AE0000C07BD4680BC704780B483B000AF03469E
:100AF000FB7146F22243C4F20003FA791A7007F13F
:100B00000C07BD4680BC704780B483B000AF03467D
:100B1000FB7146F27543C4F2000346F27542C4F21B
:100B200000021278D2B202F0FC021A7046F275434B
:100B3000C4F2000346F27542C4F200021278D2B247
:100B40001146FA79D2B202F0030241EA0202D2B2AD
:100B5000D2B21A7007F10C07BD4680BC704700BFC7
:100B600080B483B000AF0346FB7146F28243C4F207
:100B70000003FA791A7007F10C07BD4680BC704774
:100B800080B483B000AF46F26243C4F200031B7826
:100B9000FB71FB79184607F10C07BD4680BC704716
:100BA00080B400AF46F25243C4F200031B78DBB2BC
:100BB0001846BD4680BC70470230800803D000BF95
:100BC00001380046FCD17047EFF3108072B67047D1
:100BD00080F31088704700BF80B483B000AF034635
:100BE000FB7101BE07F10C07BD4680BC704700BF1A
:100BF00080B582B000AF78600BE048F23453C1F6A4
:100C0000FF731B681846FFF7D7FF7B68A3F5004307
:100C10007B607B68B3F5004FEFD848F22C53C1F6E8
:100C2000FF731B687A6802FB03F31846FFF7C4FFE3
:100C300007F10807BD4680BD80B582B000AF03460E
:100C4000FB80FA8848F23053C1F6FF731B7803FB30
:100C500002F31846FFF7B0FF07F10807BD4680BD55
:100C600080B584B000AF03463960FB714EF608537F
:100C7000CEF200031B68FB60FB791F2B03D94FF0FA
:100C80000000FFF7A9FFFB7903F01F0303F1100336
:100C90004FEA8302FB6813441B68BB60FB7903F0D7
:100CA0001F0303F110034FEA8302FB6813443A6801
:100CB0001A60BB68184607F11007BD4680BD00BF2B
:100CC00080B582B000AF02460B46FA71BB71BB79AA
:100CD000072B03D94FF00000FFF77EFFFB791F2B96
:100CE00003D94FF00000FFF777FFFB7903F01F03F4
:100CF00003F1604303F56443BA794FEA4212D2B27A
:100D00001A7007F10807BD4680BD00BF80B500AF6F
:100D10004FF02800FFF76CFF4FF0030000F056FA89
:100D20004FF00500FFF764FF4FF0030000F04EFAAC
:100D30004FF00F00FFF75CFF4FF0030000F046FAA2
:100D40004FF00100FFF754FF4FF0020000F03EFAB1
:100D50004FF00500FFF74CFF4FF0060000F0C6F81B
:100D60004FF00E0000F0C2F84FF02C0000F0BEF87B
:100D70004FF0080000F0BAF84FF0010000F0B6F8AC
:100D80004FF00C0000F0B2F84FF0030000F0AEF8A6
:100D90004FF00500FFF72CFF80BD00BF80B500AF0E
:100DA0004FF00C0000F0A2F848F66D23C1F6FF7377
:100DB0004FF001021A7080BD80B500AF48F66E2377
:100DC000C1F6FF731B78002B08D1FFF79FFF48F691
:100DD0006E23C1F6FF734FF001021A70FFF7DEFFBA
:100DE00080BD00BF80B582B000AF02460B46FA71ED
:100DF000BB71FB79032B2AD801A252F823F000BF64
:100E0000110E0000210E0000310E0000410E000006
:100E1000BB79A3F18003DBB2184600F067F816E057
:100E2000BB79A3F14003DBB2184600F05FF80EE097
:100E3000BB79A3F16C03DBB2184600F057F806E06B
:100E4000BB79A3F12C03DBB2184600F04FF807F191
:100E50000807BD4680BD00BF80B584B000AF786094
:100E60004FF00103BB737B681B78FB730CE0FB7BCB
:100E7000184600F01FF8BA7B7B6813441B78FB739D
:100E8000BB7B03F10103BB73FB7B002BEFD107F1AD
:100E90001007BD4680BD00BF80B582B000AF0346DD
:100EA000FB71FB79184600F005F807F10807BD460D
:100EB00080BD00BF80B584B000AF0346FB7100F079
:100EC00031F8FB794FEA1313FB73FB7B184600F0F4
:100ED00027F9FB7903F00F03FB73FB7B184600F047
:100EE0001FF907F11007BD4680BD00BF80B584B073
:100EF00000AF0346FB7100F015F8FB794FEA1313BE
:100F0000FB73FB7B184600F061F9FB7903F00F03DC
:100F1000FB73FB7B184600F059F907F11007BD463B
:100F200080BD00BF80B582B000AF45F22013C4F28F
:100F3000000345F22012C4F200021278D2B202F08D
:100F400080021A7045F22213C4F200031B78DBB250
:100F500023F00F03FB7145F22213C4F20003FA7968
:100F600042F00F02D2B21A7045F22313C4F200030A
:100F70001B78DBB223F00F03FB7145F22313C4F29D
:100F80000003FA791A7045F22413C4F200031B78A7
:100F9000DBB223F00F03FB7145F22413C4F200030C
:100FA000FA791A7045F22013C4F2000345F22012B8
:100FB000C4F200021278D2B202F0DF021A7045F2D7
:100FC0002013C4F2000345F22012C4F2000212788A
:100FD000D2B242F04002D2B21A704FF00000FFF7D6
:100FE0002BFE45F22013C4F2000345F22012C4F296
:100FF00000021278D2B242F01002D2B21A704FF050
:101000000100FFF719FE45F22113C4F200031B781B
:10101000FB7145F22013C4F2000345F22012C4F222
:1010200000021278D2B202F0EF021A704FF0000004
:10103000FFF702FEFB7903F00803FB7145F2201372
:10104000C4F2000345F22012C4F200021278D2B2B8
:1010500042F01002D2B21A704FF00100FFF7ECFD1F
:1010600045F22013C4F2000345F22012C4F200023C
:101070001278D2B202F0EF021A70FB79002BACD1D9
:1010800045F22013C4F2000345F22012C4F200021C
:101090001278D2B202F0BF021A7045F22013C4F2E5
:1010A000000345F22012C4F200021278D2B202F01C
:1010B00080021A7045F22213C4F2000345F2221294
:1010C000C4F200021278D2B202F0F0021A7045F2B5
:1010D0002313C4F200031B78DBB223F00F03FB7170
:1010E00045F22313C4F20003FA7942F00F02D2B2A0
:1010F0001A7045F22413C4F200031B78DBB223F00C
:101100000F03FB7145F22413C4F20003FA7942F095
:101110000F02D2B21A7007F10807BD4680BD00BFAA
:1011200080B582B000AF0346FB71FFF7FBFE45F2CE
:101130002013C4F2000345F22012C4F20002127818
:10114000D2B242F02002D2B21A7045F22013C4F299
:10115000000345F22012C4F200021278D2B202F06B
:10116000BF021A7045F22013C4F2000345F22012A8
:10117000C4F200021278D2B202F0F0021A7045F204
:101180002013C4F2000345F22012C4F200021278C8
:10119000D1B2FA7941EA0202D2B242F01002D2B2DE
:1011A0001A704FF00100FFF747FD45F22013C4F21B
:1011B000000345F22012C4F200021278D2B202F00B
:1011C000EF021A7007F10807BD4680BD80B582B0F6
:1011D00000AF0346FB7145F22013C4F2000345F251
:1011E0002012C4F200021278D2B202F09F021A70EA
:1011F00045F22013C4F2000345F22012C4F20002AB
:101200001278D2B202F0F0021A7045F22013C4F242
:10121000000345F22012C4F200021278D1B2FA792A
:1012200041EA0202D2B242F01002D2B21A704FF07A
:101230000100FFF701FD45F22013C4F2000345F25F
:101240002012C4F200021278D2B202F0EF021A7039
:1012500007F10807BD4680BD80B582B000AF0346E8
:10126000FB71FB794FEA1313DBB21A4648F22423D1
:10127000C0F200039B5C1846FFF70EFEFB7903F0FB
:101280000F0248F22423C0F200039B5C1846FFF7CC
:1012900003FE07F10807BD4680BD00BF80B582B0E0
:1012A00000AF0346FB80FB884FEA13239BB2DBB2FF
:1012B0001846FFF7D1FFFB88DBB21846FFF7CCFFDB
:1012C00007F10807BD4680BD80B400AF44F2A233E9
:1012D000C4F2000344F2A232C4F200021278D2B285
:1012E00042F01002D2B21A7044F2B233C4F20003D8
:1012F00044F2B232C4F200021278D2B242F01002CA
:10130000D2B21A70BD4680BC704700BF80B500AF36
:101310004FF0010000F090F94FF0100000F042FF94
:101320004FF0100000F05AFF4FF002004FF4104150
:1013300046F606124FF0090300F0E6FD80BD00BF3F
:1013400080B500AF48F67823C1F6FF731B78002BF9
:101350000FD048F24053C1F6FF731B7A002B08D11F
:1013600000F0D0F848F67823C1F6FF734FF0000282
:101370001A7048F24053C1F6FF734FF000021A7220
:1013800044F2AA33C4F2000344F2AA32C4F20002C7
:101390001278D2B242F00102D2B21A7044F2C533CE
:1013A000C4F2000344F2C532C4F200021278D2B291
:1013B00042F00102D2B21A7044F2BA33C4F200030E
:1013C00044F2BA32C4F200021278D2B242F0010200
:1013D000D2B21A7048F23853C1F6FF731B78DBB2F1
:1013E000012B47D144F2F563C4F2000344F2F562E5
:1013F000C4F200021278D2B242F01002D2B21A70D5
:1014000044F2F763C4F2000344F2F762C4F200024C
:101410001278D2B242F00802D2B21A7045F69103A5
:10142000C4F2000345F69102C4F200021278D2B26F
:1014300042F00302D2B21A704FF00300FFF7FCFB38
:1014400044F2F563C4F2000344F2F562C4F2000210
:101450001278D2B202F0EF021A7044F2F763C4F2CB
:10146000000344F2F762C4F200021278D2B202F032
:10147000F7021A7045F67703C4F2000345F67702C7
:10148000C4F200021278D2B242F00602D2B21A704E
:1014900044F2A133C4F2000344F2A132C4F20002C8
:1014A0001278D2B242F00402D2B21A7044F2B133CE
:1014B000C4F2000344F2B132C4F200021278D2B294
:1014C00042F00402D2B21A7044F2A233C4F2000312
:1014D00044F2A232C4F200021278D2B242F0020206
:1014E000D2B21A7044F2B233C4F2000344F2B23200
:1014F000C4F200021278D2B242F00202D2B21A70E2
:1015000080BD00BF80B400AF45F68E03C4F2000377
:1015100048F24052C1F6FF7212781A7045F68F03F6
:10152000C4F2000348F24052C1F6FF7252781A70BA
:1015300045F69003C4F2000348F24052C1F6FF7230
:1015400092781A7045F69103C4F2000348F24052B3
:10155000C1F6FF72D2781A7045F69203C4F2000306
:1015600048F24052C1F6FF7212791A7045F69A039A
:10157000C4F2000348F24052C1F6FF7252791A7069
:1015800045F69B03C4F2000348F24052C1F6FF72D5
:1015900092791A7045F60733C4F2000348F24052BC
:1015A000C1F6FF72D2791A70BD4680BC704700BF89
:1015B00080B500AF48F67223C1F6FF731B78002B8D
:1015C00010D148F67323C1F6FF731B78DBB2002BF2
:1015D00001D1FFF79BFE48F67223C1F6FF734FF06F
:1015E00001021A70FFF7ACFE80BD00BF80B400AFEF
:1015F00044F60063C4F2000344F60062C4F2000241
:101600001278D2B242F00102D2B21A70BD4680BC4A
:10161000704700BF80B483B000AF44F61063C4F2DB
:1016200000031B88FB80FB881BB2184607F10C07E0
:10163000BD4680BC704700BF80B582B000AF034696
:10164000FB7148F67123C1F6FF734FF000021A7068
:1016500048F67223C1F6FF731B78002B68D145F65C
:101660009603C4F200034FF007021A7045F6970381
:10167000C4F200034FF000021A7045F69E03C4F254
:1016800000034FF000021A7045F60733C4F200035E
:1016900045F60732C4F200021278D2B242F01802C4
:1016A000D2B21A7045F69303C4F200034FF0000261
:1016B0001A7045F68833C4F200034FF000021A7026
:1016C00045F68933C4F200034FF000021A7045F664
:1016D0008003C4F200034FF00A021A7045F681033A
:1016E000C4F200034FF000021A7045F68203C4F200
:1016F00000034FF07A021A7045F68303C4F2000328
:101700004FF000021A7045F68D03C4F200034FF04B
:1017100000021A7044F60163C4F200034FF0140291
:101720001A7044F61463C4F200034FF001021A70F9
:10173000FB79012B40F0F68044F60063C4F200030D
:101740004FF038021A7044F60263C4F200034FF0FF
:1017500004021A7044F60363C4F200034FF0060259
:101760001A7044F60463C4F200034FF000021A70CA
:1017700044F60563C4F200034FF000021A7044F609
:101780000663C4F200034FF013021A7044F60863B4
:10179000C4F200034FF000021A7044F60963C4F269
:1017A00000034FF000021A7044F60A63C4F200030B
:1017B0004FF000021A7045F68403C4F200034FF0A4
:1017C00014021A7045F68503C4F200034FF00B02B1
:1017D0001A7045F68603C4F200034FF031021A7006
:1017E00045F68703C4F200034FF000021A7045F675
:1017F0008803C4F200034FF012021A7045F6890301
:10180000C4F200034FF013021A7045F68A03C4F2C3
:1018100000034FF044021A7045F68B03C4F2000334
:101820004FF048021A7045F68C03C4F200034FF0E3
:1018300001021A7045F68E03C4F200034FF0010254
:101840001A7045F68F03C4F200034FF011021A70AC
:1018500045F69003C4F200034FF019021A7045F6E2
:101860009103C4F200036FF068021A704FF0520047
:1018700000F030FC45F69403C4F200034FF0580228
:101880001A7045F69503C4F200034FF000021A7077
:1018900045F69A03C4F200034FF005021A7045F6AC
:1018A0009B03C4F200034FF002021A7045F69C033A
:1018B000C4F200034FF001021A7045F69D03C4F212
:1018C00000034FF000021A7045F60733C4F200031C
:1018D00045F60732C4F200021278D2B242F0180282
:1018E000D2B21A704FF0000000F0B2FC48F23C5344
:1018F000C1F6FF734FF066021A604FF01D004FF003
:101900000701FFF7DDF94FF01D0042F26911C0F247
:101910000001FFF7A5F94EF20013CEF200034FF0DD
:1019200000521A60FB79022B40F0F68044F6006307
:10193000C4F200034FF038021A7044F60263C4F296
:1019400000034FF004021A7044F60363C4F200036C
:101950004FF006021A7044F60463C4F200034FF01D
:1019600000021A7044F60563C4F200034FF000024F
:101970001A7044F60663C4F200034FF03F021A7077
:1019800044F60863C4F200034FF000021A7044F6F4
:101990000963C4F200034FF000021A7044F60A63B0
:1019A000C4F200034FF000021A7045F68403C4F23B
:1019B00000034FF050021A7045F68503C4F200038D
:1019C0004FF027021A7045F68603C4F200034FF069
:1019D0002C021A7045F68703C4F200034FF0000290
:1019E0001A7045F68803C4F200034FF012021A7011
:1019F00045F68903C4F200034FF013021A7045F64E
:101A00008A03C4F200034FF055021A7045F68B03A7
:101A1000C4F200034FF05A021A7045F68C03C4F268
:101A200000034FF005021A7045F68E03C4F200035E
:101A30004FF001021A7045F68F03C4F200034FF015
:101A400011021A7045F69003C4F200034FF0190218
:101A50001A7045F69103C4F200036FF068021A7021
:101A60004FF0440000F036FB45F69403C4F2000347
:101A70004FF058021A7045F69503C4F200034FF078
:101A800000021A7045F69A03C4F200034FF00502F3
:101A90001A7045F69B03C4F200034FF002021A705D
:101AA00045F69C03C4F200034FF001021A7045F69C
:101AB0009D03C4F200034FF000021A7045F607338D
:101AC000C4F2000345F60732C4F200021278D2B223
:101AD00042F01802D2B21A704FF0000000F0B8FBCA
:101AE00048F23C53C1F6FF734FF47A421A604FF04C
:101AF0001D004FF00701FFF7E3F84FF01D0042F221
:101B00008111C0F20001FFF7ABF84EF20013CEF2E4
:101B100000034FF000521A60FB79032B40F0F6806F
:101B200044F60063C4F200034FF038021A7044F622
:101B30000263C4F200034FF004021A7044F6036318
:101B4000C4F200034FF006021A7044F60463C4F2B4
:101B500000034FF000021A7044F60563C4F200035C
:101B60004FF000021A7044F60663C4F200034FF00F
:101B70003F021A7044F60863C4F200034FF00002FB
:101B80001A7044F60963C4F200034FF000021A70A1
:101B900044F60A63C4F200034FF000021A7045F6DF
:101BA0008403C4F200034FF050021A7045F6850317
:101BB000C4F200034FF027021A7045F68603C4F200
:101BC00000034FF02C021A7045F68703C4F200039D
:101BD0004FF000021A7045F68803C4F200034FF07C
:101BE00012021A7045F68903C4F200034FF0130283
:101BF0001A7045F68A03C4F200034FF055021A70BA
:101C000045F68B03C4F200034FF05A021A7045F6F2
:101C10008C03C4F200034FF005021A7045F68E03E0
:101C2000C4F200034FF001021A7045F68F03C4F2AC
:101C300000034FF011021A7045F69003C4F200033E
:101C40004FF019021A7045F69103C4F200036FF0C9
:101C500068021A704FF0440000F03CFA45F6940315
:101C6000C4F200034FF058021A7045F69503C4F20F
:101C700000034FF000021A7045F69A03C4F2000305
:101C80004FF005021A7045F69B03C4F200034FF0B3
:101C900002021A7045F69C03C4F200034FF00102E1
:101CA0001A7045F69D03C4F200034FF000021A704B
:101CB00045F60733C4F2000345F60732C4F20002CA
:101CC0001278D2B242F01802D2B21A704FF000006D
:101CD00000F0BEFA48F23C53C1F6FF734FF47A426B
:101CE0001A604FF01D004FF00701FEF7E9FF4FF0BB
:101CF0001D0042F28D11C0F20001FEF7B1FF4EF25D
:101D00000013CEF200034FF000521A60FB79042B4F
:101D100040F0F68044F60063C4F200034FF038024E
:101D20001A7044F60263C4F200034FF004021A7002
:101D300044F60363C4F200034FF006021A7044F63F
:101D40000463C4F200034FF000021A7044F6056306
:101D5000C4F200034FF000021A7044F60663C4F2A6
:101D600000034FF03F021A7044F60863C4F2000308
:101D70004FF000021A7044F60963C4F200034FF0FA
:101D800000021A7044F60A63C4F200034FF0000226
:101D90001A7045F68403C4F200034FF050021A7023
:101DA00045F68503C4F200034FF027021A7045F68A
:101DB0008603C4F200034FF02C021A7045F6870325
:101DC000C4F200034FF000021A7045F68803C4F213
:101DD00000034FF012021A7045F68903C4F20003A3
:101DE0004FF013021A7045F68A03C4F200034FF055
:101DF00055021A7045F68B03C4F200034FF05A02E5
:101E00001A7045F68C03C4F200034FF005021A70F5
:101E100045F68E03C4F200034FF001021A7045F636
:101E20008F03C4F200034FF011021A7045F69003BD
:101E3000C4F200034FF019021A7045F69103C4F280
:101E400000036FF068021A704FF0440000F042F98E
:101E500045F69403C4F200034FF058021A7045F699
:101E60009503C4F200034FF000021A7045F69A037E
:101E7000C4F200034FF005021A7045F69B03C4F24A
:101E800000034FF002021A7045F69C03C4F20003EF
:101E90004FF001021A7045F69D03C4F200034FF0A3
:101EA00000021A7045F60733C4F2000345F6073204
:101EB000C4F200021278D2B242F01802D2B21A7002
:101EC0004FF0000000F0C4F948F23C53C1F6FF7334
:101ED0004FF47A421A604FF01D004FF00701FEF7F1
:101EE000EFFE4FF01D0042F29911C0F20001FEF723
:101EF000B7FE4EF20013CEF200034FF000521A600C
:101F000007F10807BD4680BD80B487B000AFF87107
:101F1000B9807A807B70FB79A3F10403062B5DD82E
:101F200001A252F823F000BF451F0000DD1F000092
:101F3000DD1F00006B1F0000911F0000DD1F00006F
:101F4000B71F00007B780F2B07D940F21413C4F69B
:101F500000131B78DBB2FB7343E040F21813C4F6A6
:101F600000131B78DBB2FB733BE07B780F2B07D9A8
:101F700040F21513C4F600131B78DBB2FB7330E09C
:101F800040F21913C4F600131B78DBB2FB7328E090
:101F90007B780F2B07D940F21613C4F600131B7879
:101FA000DBB2FB731DE040F21A13C4F600131B787A
:101FB000DBB2FB7315E07B780F2B07D940F21713C8
:101FC000C4F600131B78DBB2FB730AE040F21B136C
:101FD000C4F600131B78DBB2FB7302E04FF0000382
:101FE000FB73FB79002B11D0FB79012B0ED0FB7911
:101FF000022B0BD0FB79032B08D0FB79052B05D0E6
:10200000FB79062B02D0FB79092B03D14FF000039B
:102010003B8206E097F90F309BB24FEA43139BB225
:102020003B823A8ABB8813447B827B8A7A8802FB94
:1020300003F37B617B694FEAD3337B827B780D2B83
:1020400012D87A8A7B786FEA030303F10F0342FA0E
:1020500003F37B8244F60E63C4F200037A7802F144
:102060000102D2B21A7006E044F60E63C4F2000315
:102070004FF00F021A7044F60C63C4F200037A8A20
:10208000D2B21A7044F60D63C4F200037A8A4FEAA2
:10209000122292B2D2B21A70FB79012B14D144F6FB
:1020A0000C63C4F200034FF000021A7044F60D6393
:1020B000C4F200034FF000021A7044F60E63C4F23B
:1020C00000034FF000021A7007F11C07BD4680BCE8
:1020D000704700BF80B582B000AF0346FB7144F289
:1020E000F563C4F2000344F2F562C4F20002127810
:1020F000D2B242F01002D2B21A7044F2F763C4F2C4
:10210000000344F2F762C4F200021278D2B242F045
:102110000802D2B21A7045F69203C4F20003FA79AB
:102120001A704FF00300FEF787FD44F2F563C4F226
:10213000000344F2F562C4F200021278D2B202F057
:10214000EF021A7044F2F763C4F2000344F2F7623C
:10215000C4F200021278D2B202F0F7021A7007F14C
:102160000807BD4680BD00BF80B500AFFFF752FA3B
:1021700003469AB248F66223C1F6FF731A8080BD07
:1021800080B400AFBD4680BC704700BF80B400AFD4
:10219000BD4680BC704700BF80B400AFBD4680BC68
:1021A000704700BF80B483B000AF0346FB7144F2B8
:1021B0000A13C4F2000344F20A12C4F200021278B5
:1021C000D1B2FA7902F0F80241EA0202D2B21A70F0
:1021D00007F10C07BD4680BC704700BF80B483B0D8
:1021E00000AF0346FB7144F28603C4F2000344F2DD
:1021F0008602C4F200021278D1B2FA7902F0F80233
:1022000041EA0202D2B21A7007F10C07BD4680BC47
:10221000704700BF80B582B000AF4FF00003FB7184
:1022200007E0FB79184600F035FBFB7903F1010369
:10223000FB71FB79012BF4D948F24C53C1F6FF73C3
:102240004FF0FF321A7007F10807BD4680BD00BF8E
:1022500080B582B000AF0346FB71FFF7DBFFFB796F
:10226000184600F0F1FA48F24C53C1F6FF73FA79C0
:102270001A7007F10807BD4680BD00BF80B500AFEA
:1022800048F67C23C1F6FF731B78002B08D100F0C1
:102290000BF848F67C23C1F6FF734FF001021A7069
:1022A00000F02AF880BD00BF80B400AF46F28D4335
:1022B000C4F200034FF072021A7046F28B43C4F26C
:1022C00000034FF000021A7046F22343C4F20003E9
:1022D0004FF007021A7046F23343C4F200034FF086
:1022E00048021A7046F28F43C4F200034FF0000216
:1022F0001A70BD4680BC704780B582B000AFFEF753
:1023000063FC0346FB7146F29D43C4F2000346F2B0
:102310009D42C4F200021278D2B242F02002D2B240
:102320001A7046F29B43C4F2000346F29B42C4F289
:1023300000021278D2B242F01002D2B21A7046F203
:102340009F43C4F2000346F29F42C4F20002127897
:10235000D2B242F01002D2B21A7000F049F8FB7902
:102360001846FEF735FC07F10807BD4680BD00BFE3
:1023700080B483B000AF4FF00003BB7146F26B43F3
:10238000C4F200031B78FB71FB7903F02003002BE0
:102390000DD046F24E43C4F200031B78BB71FB79AB
:1023A00003F01E03002B02D04FF00003BB71BB797A
:1023B000184607F10C07BD4680BC704780B483B057
:1023C00000AF0346FB7146F26F43C4F200031B7873
:1023D000DBB203F00403002BF5D146F24F43C4F205
:1023E0000003FA791A7007F10C07BD4680BC7047EC
:1023F00080B400AF44F2A233C4F2000344F2A2322C
:10240000C4F200021278D2B242F00802D2B21A70BC
:1024100044F2B233C4F2000344F2B232C4F2000216
:102420001278D2B242F00802D2B21A70BD4680BC15
:10243000704700BF80B485B000AF786039607B68BA
:10244000BB604FF00003FB6009E0BA68FB6813440F
:102450004FF000021A70FB6803F10103FB60FA6899
:102460003B689A42F1D307F11407BD4680BC704720
:1024700080B489B000AFF860B9607A60FB687B61B6
:10248000BB68BB614FF00003FB610BE07A69FB693D
:102490001344B969FA690A4412781A70FB6903F1A6
:1024A0000103FB61FA697B689A42EFD307F12407C5
:1024B000BD4680BC704700BF80B582B000AF786079
:1024C000396078684FF000013A6801F001F907F1CE
:1024D0000807BD4680BD00BF80B584B000AFF8607E
:1024E000B9607A60F868B9687A6801F029F807F18C
:1024F0001007BD4680BD00BF80B487B000AF7860D4
:1025000039604FF00003FB604FF00003BB602CE02C
:10251000BB684FEA83027B6813441B683B613B69DD
:10252000FB753B6923F0FF033B6117E0FB684FEA53
:1025300043023B6813441B781A463B691344FA680C
:102540004FEA42013A680A4452781A70FB6803F174
:102550000103FB60FB7D03F1FF33FB75FB7D002B6B
:10256000E4D1BB6803F10103BB60BB68242BCFD966
:1025700007F11C07BD4680BC704700BF80B500AFA7
:1025800044F28003C4F200034FF000021A8044F2C8
:102590008203C4F200034FF058021A7044F284031D
:1025A000C4F200034FF005021A8044F28603C4F21D
:1025B00000034FF018021A7044F28803C4F20003BB
:1025C0004FF017021A8044F28A03C4F200034FF05E
:1025D00018021A7044F28C03C4F200034FF49C7288
:1025E0001A8044F28E03C4F200034FF018021A70EE
:1025F00044F29003C4F2000340F21A621A8044F2DB
:102600009203C4F200034FF018021A7044F2001053
:10261000C4F2000040F6B421C4F600014FF00C02F1
:10262000FFF75AFF44F20033C4F200034FF00202F6
:102630001A7044F20003C4F200034FF008021A704B
:1026400044F20023C4F200034FF003021A7044F274
:10265000A163C4F2000340F20812C4F6001212781B
:10266000D2B21A7044F22223C4F200034FF00802DF
:102670001A8044F22023C4F2000341F251021A806E
:1026800040F6B830FEF798FA44F20403C4F20003AF
:102690004FF003021A7044F20503C4F200034FF036
:1026A00001021A7044F20403C4F200034FF0000266
:1026B0001A7044F20403C4F200034FF007021A70C8
:1026C00044F20603C4F200034FF000021A7044F211
:1026D0000803C4F200034FF048021A7044F20403E6
:1026E000C4F200034FF000021A7044F20103C4F276
:1026F00000034FF002021A7044F20B03C4F200030D
:102700004FF004021A7044F2A233C4F2000344F200
:10271000A232C4F200021278D2B242F01F02D2B248
:102720001A7044F2A133C4F2000344F2A132C4F29D
:1027300000021278D2B242F00702D2B21A7080BD03
:1027400080B400AF44F2AA33C4F200034FF44472E1
:102750001A8045F23D13C4F200034FF008021A70CC
:1027600045F24D13C4F200034FF002021A7045F215
:102770006D13C4F200034FF020021A7045F62003D7
:10278000C4F200034FF01E021A7045F62403C4F28F
:1027900000034FF01E021A7045F62803C4F200032E
:1027A0004FF01E021A7045F62C03C4F200034FF0DE
:1027B0001E021A7045F60013C4F2000348F2C0026C
:1027C0001A8045F60313C4F200034FF00C021A708E
:1027D00045F60813C4F2000348F2C0021A8045F619
:1027E0000B13C4F200034FF00C021A7045F60033CD
:1027F000C4F200034FF002021A7045F62033C4F20F
:1028000000034FF020021A7045F62333C4F2000390
:102810004FF020021A7045F62833C4F200036FF01F
:102820007F021A7045F62B33C4F200034FF02002EA
:102830001A7045F67603C4F200034FF044021A7092
:10284000BD4680BC704700BF80B483B000AF034674
:10285000FB71FB79012B18D8FA7948F23423C0F2C6
:10286000000353F82220F97948F23423C0F2000320
:1028700053F821301978F87948F23C23C0F200036C
:102880001B5C41EA0303DBB2137007F10C07BD4682
:1028900080BC704780B483B000AF0346FB71FB7906
:1028A000012B1BD8FA7948F23423C0F2000353F805
:1028B0002220F97948F23423C0F2000353F8213082
:1028C0001978F87948F23C23C0F200031B5C6FEAE8
:1028D0000303DBB201EA0303DBB2137007F10C0759
:1028E000BD4680BC704700BF80B582B000AF72B6F5
:1028F00044F60003C4F200034FF000021A70FFF721
:102900003DFE44F60003C4F200036FF07F021A702C
:1029100047F21003C4F200034FF000021A7047F2AE
:102920002003C4F200034FF000021A7045F67C0346
:10293000C4F200034FF001021A7044F2E863C4F2DB
:10294000000344F2E862C4F200021278D2B242F00C
:102950000102D2B21A704FF00003FB702FE0FA7838
:1029600013464FEA430313444FEA43031A4648F21F
:102970004023C0F2000313447B607B681A785978C7
:102980004FEA012141EA020299784FEA014141EA06
:102990000202DB784FEA036343EA02031A467B68CC
:1029A00019795B794FEA032343EA01039BB210468E
:1029B0001946FFF781FDFB7803F10103FB70FB78FB
:1029C000042BCCD94FF0904040F29401C4F60001A2
:1029D000FFF792FD45F20020C4F2000040F68C2182
:1029E000C4F600014FF00702FFF742FD45F2082050
:1029F000C4F200004FF00701FFF71CFD45F2102064
:102A0000C4F200004FF00701FFF714FD45F2182053
:102A1000C4F200004FF00701FFF70CFD45F2202043
:102A2000C4F2000040F69421C4F600014FF0070202
:102A3000FFF71EFD45F22820C4F2000040F69C215D
:102A4000C4F600014FF00702FFF712FD45F23020F7
:102A5000C4F200004FF00701FFF7ECFC45F26020E4
:102A6000C4F2000040F6A421C4F600014FF00602B3
:102A7000FFF7FEFC45F27820C4F2000040F6AC21DE
:102A8000C4F600014FF00702FFF7F2FC45F2030322
:102A9000C4F2010345F20302C4F201021278D2B279
:102AA00042F00202D2B21A7045F21303C4F20103DB
:102AB00045F21302C4F201021278D2B242F00202CD
:102AC000D2B21A7044F2A033C4F2000344F2A0322E
:102AD000C4F200021278D2B242F04002D2B21A70AE
:102AE00044F2C233C4F2000344F2C232C4F2000220
:102AF0001278D2B242F01002D2B21A7045F200102F
:102B0000C4F2000040F64821C4F600014FF00A026A
:102B1000FFF7E2FC45F2C210C4F2000040F6542177
:102B2000C4F600014FF00802FFF7A2FC45F2F210D4
:102B3000C4F2000040F65C21C4F600014FF0080228
:102B4000FFF7CAFC45F22210C4F2000040F66421EF
:102B5000C4F600014FF00802FFF7BEFC45F2321048
:102B6000C4F2000040F66C21C4F600014FF00802E8
:102B7000FFF7B2FC45F24210C4F2000040F67421A7
:102B8000C4F600014FF00802FFF7A6FC45F2521010
:102B9000C4F2000040F67C21C4F600014FF00802A8
:102BA000FFF79AFC45F26210C4F2000040F684215F
:102BB000C4F600014FF00802FFF78EFCFFF7C0FDDE
:102BC00044F2B030C4F2000044F2A031C4F200017B
:102BD0004FF00C02FFF780FC44F2B033C4F2000364
:102BE00044F2B032C4F200021278D2B202F0FD0216
:102BF0001A7007F10807BD4680BD00BF81F0004193
:102C000002E000BF83F0004330B54FEA41044FEAD1
:102C1000430594EA050F08BF90EA020F1FBF54EA6C
:102C2000000C55EA020C7FEA645C7FEA655C00F008
:102C3000E2804FEA5454D4EB5555B8BF6D420CDDD9
:102C40002C4480EA020281EA030382EA000083EA5C
:102C5000010180EA020281EA0303362D88BF30BDFC
:102C600011F0004F4FEA01314FF4801C4CEA113152
:102C700002D0404261EB410113F0004F4FEA0333B1
:102C80004CEA133302D0524263EB430394EA050F3C
:102C900000F0A780A4F10104D5F1200E0DDB02FAAB
:102CA0000EFC22FA05F2801841F1000103FA0EF23F
:102CB000801843FA05F359410EE0A5F120050EF105
:102CC000200E012A03FA0EFC28BF4CF0020C43FA36
:102CD00005F3C01851EBE37101F0004507D54FF043
:102CE000000EDCF1000C7EEB00006EEB0101B1F593
:102CF000801F1BD3B1F5001F0CD349085FEA3000D9
:102D00004FEA3C0C04F101044FEA445212F5800FE3
:102D100080F09A80BCF1004F08BF5FEA500C50F180
:102D2000000041EB045141EA050130BD5FEA4C0C63
:102D3000404141EB010111F4801FA4F10104E9D1EC
:102D400091F0000F04BF01460020B1FA81F308BFE3
:102D50002033A3F10B03B3F120020CDA0C3208DDAF
:102D600002F1140CC2F10C0201FA0CF021FA02F18A
:102D70000CE002F11402D8BFC2F1200C01FA02F1FA
:102D800020FA0CFCDCBF41EA0C019040E41AA2BF1F
:102D900001EB0451294330BD6FEA04041F3C1CDAE7
:102DA0000C340EDC04F11404C4F1200220FA04F007
:102DB00001FA02F340EA030021FA04F345EA0301B1
:102DC00030BDC4F10C04C4F1200220FA02F001FA73
:102DD00004F340EA0300294630BD21FA04F02946F5
:102DE00030BD94F0000F83F4801306BF81F480118E
:102DF0000134013D4EE77FEA645C18BF7FEA655C01
:102E000029D094EA050F08BF90EA020F05D054EAD2
:102E1000000C04BF1946104630BD91EA030F1EBFD7
:102E20000021002030BD5FEA545C05D140004941DB
:102E300028BF41F0004130BD14F580043CBF01F5CE
:102E4000801130BD01F0004545F0FE4141F47001B4
:102E50004FF0000030BD7FEA645C1ABF194610468F
:102E60007FEA655C1CBF0B46024650EA013406BF90
:102E700052EA033591EA030F41F4002130BD00BF4F
:102E800090F0000F04BF0021704730B54FF480640C
:102E900004F132044FF000054FF0000150E700BF8D
:102EA00090F0000F04BF0021704730B54FF48064EC
:102EB00004F1320410F0004548BF40424FF00001D9
:102EC0003EE700BF42004FEAE2014FEA31014FEA1C
:102ED00002701FBF12F07F4393F07F4F81F060516B
:102EE000704792F0000F14BF93F07F4F704730B5DA
:102EF0004FF4607401F0004521F0004120E700BF6D
:102F000050EA010208BF704730B54FF000050AE0F3
:102F100050EA010208BF704730B511F0004502D5F4
:102F2000404261EB41014FF4806404F132045FEAF6
:102F3000915C3FF4DCAE4FF003025FEADC0C18BF9B
:102F400003325FEADC0C18BF033202EBDC02C2F191
:102F5000200300FA03FC20FA02F001FA03FE40EA23
:102F60000E0021FA02F11444C1E600BF70B54FF023
:102F7000FF0C4CF4E06C1CEA11541DBF1CEA135505
:102F800094EA0C0F95EA0C0F00F0DEF82C4481EA6D
:102F9000030621EA4C5123EA4C5350EA013518BF8D
:102FA00052EA033541F4801143F4801338D0A0FB7A
:102FB00002CE4FF00005E1FB02E506F00042E0FB27
:102FC00003E54FF00006E1FB03569CF0000F18BF2D
:102FD0004EF0010EA4F1FF04B6F5007F64F54074D5
:102FE00004D25FEA4E0E6D4146EB060642EAC62168
:102FF00041EA55514FEAC52040EA5E504FEACE2ED5
:10300000B4F1FD0C88BFBCF5E06F1ED8BEF1004FD7
:1030100008BF5FEA500E50F1000041EB045170BD53
:1030200006F0004646EA010140EA020081EA030197
:10303000B4EB5C04C2BFD4EB0C0541EA045170BD93
:1030400041F480114FF0000E013C00F3AB8014F10D
:10305000360FDEBF002001F0004170BDC4F1000456
:10306000203C35DA0C341BDC04F11404C4F12005D7
:1030700000FA05F320FA04F001FA05F240EA020032
:1030800001F0004221F0004110EBD37021FA04F668
:1030900042EB06015EEA430E08BF20EAD37070BD22
:1030A000C4F10C04C4F1200500FA04F320FA05F081
:1030B00001FA04F240EA020001F0004110EBD37083
:1030C00041F100015EEA430E08BF20EAD37070BDF3
:1030D000C4F1200500FA05F24EEA020E20FA04F3CC
:1030E00001FA05F243EA020321FA04F001F000417B
:1030F00021FA04F220EA020000EBD3705EEA430EEC
:1031000008BF20EAD37070BD94F0000F0FD101F01A
:103110000046400041EB010111F4801F08BF013C53
:10312000F7D041EA060195F0000F18BF704703F091
:103130000046520043EB030313F4801F08BF013D18
:10314000F7D043EA0603704794EA0C0F0CEA1355D4
:1031500018BF95EA0C0F0CD050EA410618BF52EA8E
:103160004306D1D181EA030101F000414FF0000094
:1031700070BD50EA410606BF1046194652EA4306A2
:1031800019D094EA0C0F02D150EA013613D195EA16
:103190000C0F05D152EA03361CBF104619460AD15E
:1031A00081EA030101F0004141F0FE4141F4700168
:1031B0004FF0000070BD41F0FE4141F4780170BD58
:1031C00070B54FF0FF0C4CF4E06C1CEA11541DBFBD
:1031D0001CEA135594EA0C0F95EA0C0F00F0A7F8BF
:1031E000A4EB050481EA030E52EA03354FEA0131EC
:1031F00000F088804FEA03334FF0805545EA1313FF
:1032000043EA12634FEA022245EA111545EA1065C6
:103210004FEA00260EF000419D4208BF964244F15D
:10322000FD0404F5407402D25B084FEA3202B61A7C
:1032300065EB03055B084FEA32024FF480104FF450
:10324000002CB6EB020E75EB030E22BFB61A7546C4
:1032500040EA0C005B084FEA3202B6EB020E75EB57
:10326000030E22BFB61A754640EA5C005B084FEABF
:103270003202B6EB020E75EB030E22BFB61A75468C
:1032800040EA9C005B084FEA3202B6EB020E75EB97
:10329000030E22BFB61A754640EADC0055EA060E58
:1032A00018D04FEA051545EA16754FEA06164FEA9B
:1032B000C30343EA52734FEAC2025FEA1C1CC0D147
:1032C00011F4801F0BD141EA00014FF000004FF0D4
:1032D000004CB6E711F4801F04BF01430020B4F195
:1032E000FD0C88BFBCF5E06F3FF6AFAEB5EB030C4D
:1032F00004BFB6EB020C5FEA500C50F1000041EB4A
:10330000045170BD0EF0004E4EEA113114EB5C0416
:10331000C2BFD4EB0C0541EA045170BD41F48011E9
:103320004FF0000E013C90E645EA060E8DE60CEAF1
:10333000135594EA0C0F08BF95EA0C0F3FF43BAF0E
:1033400094EA0C0F0AD150EA01347FF434AF95EAC5
:103350000C0F7FF425AF104619462CE795EA0C0FA9
:1033600006D152EA03353FF4FDAE1046194622E776
:1033700050EA410618BF52EA43067FF4C5AE50EA50
:1033800041047FF40DAF52EA43057FF4EBAE12E740
:103390004FF0FF3C06E000BF4FF0010C02E000BF21
:1033A0004FF0010C4DF804CD4FEA410C7FEA6C5C04
:1033B0004FEA430C18BF7FEA6C5C1BD001B050EAA7
:1033C000410C0CBF52EA430C91EA030F02BF90EA92
:1033D000020F0020704710F1000F91EA030F58BF51
:1033E000994208BF90422CBFD8176FEAE37040F0B3
:1033F000010070474FEA410C7FEA6C5C02D150EA51
:10340000013C07D14FEA430C7FEA6C5CD6D152EA0B
:10341000033CD3D05DF8040B704700BF84461046D0
:1034200062468C461946634600E000BF01B5FFF7CF
:10343000B7FF002848BF10F1000F01BD4DF808ED9F
:10344000FFF7F4FF0CBF012000205DF808FB00BF70
:103450004DF808EDFFF7EAFF34BF012000205DF8CA
:1034600008FB00BF4DF808EDFFF7E0FF94BF012017
:1034700000205DF808FB00BF4DF808EDFFF7CEFF18
:1034800094BF012000205DF808FB00BF4DF808ED57
:10349000FFF7C4FF34BF012000205DF808FB00BF28
:1034A0004FEA4102B2F1E04324BFB3F5001CDCF166
:1034B000FE5C0DD901F0004C4FEAC0024CEA50709E
:1034C000B2F1004F40EB830008BF20F001007047CD
:1034D00011F0804F21D113F13872BCBF01F00040D0
:1034E000704741F480114FEA5252C2F11802C2F102
:1034F000200C10FA0CF320FA02F018BF40F0010083
:103500004FEAC1234FEAD32303FA0CFC40EA0C0034
:1035100023FA02F34FEA4303CCE77FEA625307D171
:1035200050EA01331EBF4FF0FE4040F440007047A8
:1035300001F0004040F0FE4040F40000704700BF42
:10354000032A2DE9F0070BD83AB1002311F803C084
:1035500000F803C001339342F8D1BDE8F00770478B
:1035600082180C46034603E014F8011C03F8011C02
:1035700003F003061946A44601330134002EF3D1AB
:103580001CF00304634608BFC1EB020C68D065421F
:10359000C4F1040A0CEB050733464FEACA0A5CF88B
:1035A00005604FEAC408551A08E057F8044F26464C
:1035B00004FA0AF449EA0404CC5004335C18032DDD
:1035C00026FA08F9A5F104050CEB0306EDDC00234F
:1035D00002E0F15CE154013319199142F9D3BCE7DF
:1035E00053F8404C41F8404C53F83C4C41F83C4CAB
:1035F00053F8384C41F8384C53F8344C41F8344CBB
:1036000053F8304C41F8304C53F82C4C41F82C4CCA
:1036100053F8284C41F8284C53F8244C41F8244CDA
:1036200053F8204C41F8204C53F81C4C41F81C4CEA
:1036300053F8184C41F8184C53F8144C41F8144CFA
:1036400053F8104C41F8104C53F80C4C41F80C4C0A
:1036500053F8084C41F8084C53F8044C41F8044C1A
:103660001C460D4640334031BCF13F0FACF1400CDD
:10367000B6DC21462B46541B0FE051F8105C43F892
:10368000105C51F80C5C43F80C5C51F8085C43F892
:10369000085C51F8045C43F8045C0F2C0D469C4612
:1036A00001F1100103F11003A4F11004E5DCCCEBEF
:1036B0000201002303E0EC584CF8034004335E1988
:1036C000032903EB0C04A1F10401F4DC7FE700BF44
:1036D000032AC9B230B407D822B10023C154013340
:1036E0009342FBD130BC704700EB020C034601E073
:1036F00003F8011C03F003041A460133002CF7D130
:103700004FF00133C2EB0C0403FB01F31FE042F85E
:10371000403C42F83C3C42F8383C42F8343C42F8E9
:10372000303C42F82C3C42F8283C42F8243C42F819
:10373000203C42F81C3C42F8183C42F8143C42F849
:10374000103C42F80C3C42F8083C42F8043C154658
:1037500040323F2CA4F14004D9DC2A46C5EB0C04CE
:1037600007E042F8103C42F80C3C42F8083C42F8B2
:10377000043C154610320F2CA4F11004F1DC2A464B
:10378000C5EB0C0501E042F8043C14460432032D5D
:10379000A5F10405F7DC01E004F8011B6445FBD347
:1037A000A0E700BF0EB448F2505330B59CB01FAC38
:1037B000C1F6FF73054601A954F8042B4FF0FF3CF6
:1037C00018684FF40273ADF8103023460595019543
:1037D0006FF00045ADF812C0069503951B9400F0FC
:1037E000B9F8019B00221A701CB0BDE8304003B04C
:1037F000704700BF0CB40B4610B59CB01EAC01A9BD
:1038000005934FF4027C54F8042B01934FF0FF33DF
:10381000ADF8123023461B946FF00044ADF810C091
:103820000694039400F096F8019B00221A701CB0D5
:10383000BDE8104002B070472DE9F04F85B09246C8
:103840000C46039090681768002800F081804FF0C4
:1038500000090B684D46002D54D0A668B542B0460D
:103860003EBF18462E46A8463CD3A08910F4906F60
:1038700008BF184636D06269216902EB420B5B1A19
:1038800003F1010C0BEBDB7BAC444FEA6B0BE34524
:103890005A463CBFE3465A4610F4806F37D0114673
:1038A0000398019302F0F6FB019B00283BD01A46D7
:1038B000216901930290FFF743FEA289019BDDF885
:1038C00008C022F4906242F08002A2812E46A846EF
:1038D000C3EB0B020CEB0300A260C4F810C0206025
:1038E000C4F814B04246494602F0E0FEA2682368DC
:1038F000961BA660DAF8082043442360551BCAF8DB
:103900000850FDB1D7F800907D680837A3E7039809
:10391000019303F0D7FB019B84460028D6D103987E
:10392000216902F08DFA039A0C234FF0FF301360E7
:103930000023A289CAF8043042F04002CAF80830D5
:10394000A28102E02846CAF8045005B0BDE8F08F15
:103950005060FAE72DE9F04FC5B00E469A4615467D
:10396000099002F053FBB38913F0800F00681B909D
:1039700003D03369002B01F08C800DF17409B3463C
:103980004C46002210920023189217921A920D9220
:103990002DAA199328320DF1F703169207930023ED
:1039A000CDF8DC90389339932B78B3F1250218BF0A
:1039B0000122002B0CBF002202F0010202B32E46AE
:1039C00016F8013F1A1E18BF0122252B0CBF00223A
:1039D00002F00102002AF3D1771B08BF35460FD051
:1039E0006760389B399A01332560D219072B3992C9
:1039F000389379DC08340D983546C0190D9033782A
:103A0000002B00F0378700214FF00002CDF828A0EE
:103A10006B1C0C914FF0FF388DF80F218A466A78A5
:103A20002B204FF0200C5D1CA2F12003582B00F23C
:103A30001982DFE813F02902170217023502170274
:103A4000170217021702170217023C024802170258
:103A5000C802CF021702EF02F602F602F602F602E1
:103A6000F602F602F602F602F60217021702170233
:103A700017021702170217021702170217024F0246
:103A80008802170288021702170217021702C102E2
:103A900017021702EE031702170217021702170286
:103AA000930317021702AD0317021702170217023A
:103AB000170217021702170217021702C703D803CB
:103AC0008802880288020B03D803170217020F032B
:103AD0001702190329033E038C0317025903170227
:103AE000840317021702EA000998594637AAFFF71C
:103AF000A3FE00287CD14C467DE71899012940F3AC
:103B00005284119A01236360389B2260399A0133F1
:103B100038930132072B399200F39685083401233C
:103B20006360389B399A01331B980132072B399215
:103B30002060389300F37D8508341098002200231C
:103B40001999FFF77BFC002840F003851899119B19
:103B50004A1E6260591C389B2160399901333893A1
:103B60008A18072B399200F32F8408341A9A1A986E
:103B700062603EAA389B2260399A0133389312184A
:103B8000072B399200F34F8104F108031AF0040F58
:103B900000F056810C990B9A8E1A002E40F350813A
:103BA000102E48F26027D8BFC0F2000740F3DE8332
:103BB0001024C0F200070DF1DC08DDF824A003E0BA
:103BC000103E102E40F3D2835C60389A399901324E
:103BD0001F601031072A399103F108033892EFDD95
:103BE000504659464246FFF727FE4B460028E7D08D
:103BF0005E46B3890D9813F0400F18BF4FF0FF30A9
:103C00000D900D9845B0BDE8F08F1AF0200F48F2E6
:103C1000A420C0F200001492179000F0C3820A9909
:103C2000CB1D23F0070303F108020A92D3E90067D2
:103C300056EA07010CBF002201221AEA020F40F0E7
:103C4000BC8402234FF000018DF80F11B8F1000F72
:103C5000A8BF2AF0800AB8F1000F18BF42F0010295
:103C6000002A00F06081012B00F03484022B00F068
:103C700017841699CDF82C8011914FEAD6084FEA97
:103C8000D70C48EA477806F00700674646463030CA
:103C900056EA070201F8010DEFD11AF0010FDDF825
:103CA0002C80119140F0DB84169B5B1A0E930E9BC7
:103CB000CDF854804345B8BF43460B939DF80F3170
:103CC00013B10B9901310B911AF00202139202D039
:103CD0000B9B02330B931AF08400129038D10C998D
:103CE0000B9A8E1A002E33DD102E48F26027D8BFB3
:103CF000C0F2000720DD4FF01008C0F2000702E01C
:103D0000103E102E18DDC4F80480389B399A013318
:103D100027601032072B399204F108043893EFDD45
:103D20000998594637AA4C46FFF786FD00287FF4CC
:103D30005FAF103E102EE6DC6660389B27605A1C91
:103D4000399B38929B19072A399300F3F78308347B
:103D50009DF80F3173B101236360389B43AA03328E
:103D60002260399A013338930132072B399200F3DC
:103D700040830834139B6BB102236360389B43AAD2
:103D80002260399A013338930232072B399200F3BB
:103D90003A8308341298802800F0B28215980E9B5E
:103DA000C61A002E2EDD102EA74FC8BF4FF01008E8
:103DB00003DC1BE0103E102E18DDC4F80480389B95
:103DC000399A013327601032072B399204F1080425
:103DD0003893EFDD0998594637AA4C46FFF72CFD7A
:103DE00000287FF405AF103E102EE6DC6660389B9D
:103DF00027605A1C399B38929B19072A399300F384
:103E0000EE8208341AF4807F40F019820E99119ADC
:103E10006160389B2260399A013338935218072B1E
:103E200039927FF7B1AE0998594637AAFFF704FDDA
:103E300000287FF4DDAE1AF0040F4B467FF4AAAEE3
:103E4000399B0D980B9A0C998A42ACBF8018401888
:103E50000D90002B40F09E820023DDF828A03893BF
:103E60004C46A1E51492002A00F0048501208DF84B
:103E7000B4204FF000012DAA0B908DF80F11119274
:103E80000E90002115911FE79DF80F31002B40F097
:103E90000C840A992B468DF80FC12A780A91C2E545
:103EA0000A994AF0010A2A782B460A91BBE50A9B37
:103EB0000A9A1B68111D002B0C93C0F2B2852A7858
:103EC0002B460A91AFE50A992B468DF80F012A7807
:103ED0000A91A8E54AF0100A14921AF0200F00F097
:103EE00087810A98C31D23F0070303F108010A9193
:103EF000D3E90067002E77F10000C0F2768356EA1E
:103F000007014FF001030CBF00220122B8F1000F9E
:103F1000A8BF2AF0800AB8F1000F18BF42F00102D2
:103F2000002A7FF4A0AE002B40F0E5811AF0010FCB
:103F300000F0E18130238DF8DB302DAB01202733F9
:103F40000E901193B3E61AF0080F149200F0BF839D
:103F50000A98C31D23F0070303F108010A915E6864
:103F60001F68199610973846314603F085FA0346C4
:103F7000002800F093843846002200233146FFF7E2
:103F800067FA002840F015849DF80F31032048F2AD
:103F9000982248F294210B901498C0F20001C0F2CC
:103FA00000022AF0800A4728D8BF0A46032111924E
:103FB00000220E91159283E60A994AF0080A2A789F
:103FC0002B460A912FE50A992A784AF0040A2B46D3
:103FD0000A9128E52B4613F8012B2A2A00F0CF86F8
:103FE000A2F13001092988BF4FF0000810D802352E
:103FF0004FF0000815F8012C08EB88082B46013516
:1040000001EB4808A2F130010929F3D948EAE87820
:104010001D4609E50A994AF0800A2A782B460A913A
:1040200001E5A2F1300100262B4606EB860613F8C7
:10403000012B01EB4606A2F130011D460929F3D9F7
:104040000C961D46F0E400BF708200004AF0400A62
:104050000A9934E72A786C2A00F018840A994AF001
:10406000100A2B460A91DEE41AF0200F00F0238399
:104070000A990D9A0B6810464FEAE0710A9AC3E953
:10408000000102F1040A8FE41AF02003149200F0F8
:10409000C7800A9BDA1D002322F0070202F1080004
:1040A0000A90D2E9006756EA07010CBF00220122FC
:1040B000C8E50A9A48F2A4200A997823C0F20000C1
:1040C0001493166804318DF80D314AF0020A30233A
:1040D000321E18BF01228DF80C3136464FF0000712
:1040E000179002230A91ADE50A9B14924FF000024B
:1040F000181D8DF80F211B680A901193002B00F0FA
:104100004D85B8F1000F1198C0F22A850021424672
:1041100002F092FA0346002800F06E8511981B1AEF
:104120000E93434540F38284CDF83880002128EA7D
:10413000E8789DF80F31CDF82C801591C0E51AF084
:10414000200F149210D00A9BDA1D0123A4E70A99CC
:104150004AF0200A2A782B460A9164E44AF0100AB1
:1041600014921AF0200FEED11AF0100F40F0548282
:104170001AF0400F00F050820A980123011D0A91A5
:104180000688321E18BF012236464FF0000759E557
:104190001AF0200F149248F28022C0F20002179207
:1041A0007FF43DAD1AF0100F40F02D821AF0400F51
:1041B00000F029820A990A1D0A920E8836464FF0AD
:1041C000000735E5149201200A9A4FF000010B9088
:1041D0000E90136804328DF80F110A922DAA8DF8F3
:1041E000B43011924DE61AF0200F14927FF479AE9C
:1041F0001AF0100F40F0ED811AF0400F00F0E98145
:104200000A98011D0A91B0F9006036464FEAE67738
:1042100070E64AF0100A14921AF020037FF439AFC6
:104220001AF0100200F05F820A9A101D0A901668B8
:10423000321E18BF012236464FF0000702E5149BDC
:10424000652B7FF75AAC1098002200231999FFF7CD
:10425000F5F8002800F0E18001236360389A48F205
:10426000C023C0F200032360399B0132389201332E
:10427000072A3993D8BF04F1080300F39F82429ABA
:104280001898824203DB1AF0010F3FF47FAC1B99B0
:1042900001225A60389A19603999013238920131F5
:1042A000072A399100F3EB830833189A561E002E23
:1042B0007FF76CAC102EA04F40F3E98110240DF174
:1042C000DC0803E0103E102E40F3E1815C60389A78
:1042D000399901321F601031072A399103F108031F
:1042E0003892EFDD099859464246FFF7A5FA4B464A
:1042F0000028E7D07CE4169900220E921191D6E4B2
:104300000C990B9A8E1A002E7FF748AD102E8A4F0B
:10431000C8BF4FF0100803DC1BE0103E102E18DD64
:10432000C4F80480389B399A013327601032072B78
:10433000399204F108043893EFDD0998594637AAF9
:104340004C46FFF779FA00287FF452AC103E102E4D
:10435000E6DC6660389B27605A1C399B38929B19B3
:10436000072A399300F38881083417E55E60389A8C
:104370001F60399B01323892F318072A39937FF76F
:1043800060AD0998594637AAFFF756FA00283FF45E
:1043900057AD2DE40998594637AAFFF74DFA002882
:1043A0003FF45AAD24E41AF0010F7FF4AAAB0123C5
:1043B0006360389B399A013311990132072B399286
:1043C000216038937FF7D1AB0998594637AAFFF798
:1043D00033FA00287FF40CAC4C46FFF7C7BB0998B2
:1043E000594637AAFFF728FA00287FF401AC4C465B
:1043F00008E50998594637AAFFF71EFA00287FF406
:10440000F7AB4C46B6E40998594637AAFFF714FAB9
:1044100000287FF4EDAB4C46BCE4429B002B40F3FC
:10442000D98118998B42C0F26F81119A6160389BD3
:104430002260399A013338935218072B3992D8BF2A
:1044400004F1080300F3BA83429C1898241A002C44
:1044500040F39B81102C384F40F38B81CDF838A06E
:104460001026AA460DF1DC08099D03E0103C102C33
:1044700040F37C815E60389A399901321F601031B7
:10448000072A399103F108033892EFDD284659468F
:104490004246FFF7D1F94B460028E7D0FFF7A8BB0B
:1044A0001698DDF85CC003461190310906F00F0242
:1044B00041EA077138091CF802200E46074656EA01
:1044C000070103F8012DF0D1169A1193D21A0E921A
:1044D000FFF7EDBB00230922B24273EB0700169BE6
:1044E0003EBFCDF82C80A0461C461AD23046394635
:1044F0000A22002303F0A6FA30463946002302F1CF
:10450000300C0A2204F801CD03F09CFA06460F464F
:1045100009200021B042B941E8D323464446DDF8E2
:104520002C805A1E3036119203F8016C169B9B1A90
:104530000E93FFF7BCBB00BF70820000099859467C
:1045400037AAFFF779F900287FF452AB4C46FFF702
:10455000FFBB1898461E002E7FF708AB102E9C4F0D
:10456000C8BF4FF0100803DC1BE0103E102E18DD12
:10457000C4F80480389B399A013327601032072B26
:10458000399204F108043893EFDD0998594637AAA7
:104590004C46FFF751F900287FF42AAB103E102E4D
:1045A000E6DC6660389B399A013327609219072B45
:1045B000399238937FF7D9AA06E7149830214AF048
:1045C000020A012202238DF80C118DF80D01FFF76C
:1045D00039BB0A9A131D16680A9336464FEAE677E6
:1045E000002E77F10000BFF68AAC764267EB4707F2
:1045F0002D2356EA07028DF80F310CBF002201224D
:104600000123FFF723BB0A9B181D1E680A9036463C
:104610004FF00007FFF70CBB0A9A131D16680A93A8
:104620000123321E18BF012236464FF00007FFF764
:1046300009BB0998594637AAFFF7FEF800287FF40E
:10464000D7AA4C46FFF779BA0998594637AAFFF717
:10465000F3F800287FF4CCAA4C46FFF760BA302864
:1046600000F09682119A302302F8013D169B1192B8
:104670009B1A0E93FFF71BBB0998594637AAFFF701
:10468000DBF800287FF4B4AA4C46FFF787BB5E60D6
:10469000389A399901321F608919072A399138925D
:1046A0003FF7C1AB0833FFF771BA0A992B462A7856
:1046B0000A91FFF7B8B91AF0100F00F0CD810A98EF
:1046C0000D9900F1040A03681960FFF76DB90A9AA1
:1046D000D31D23F0070303F108000A905E681F68EA
:1046E000199610973FE41AF0400300F0A9810A9947
:1046F00013460A1D0A920E88321E18BF0122364642
:104700004FF00007FFF79EBA119A63603899226054
:10471000399A01313891D3180729399300F362820D
:1047200008340123429E6360389B399A01331B98F9
:104730000132072B3893D8BF04F108032060399267
:1047400000F34682429A119918988E191E60811AB8
:10475000596039998A1A3899121839920131389169
:1047600007293FF760AB0833FFF710BA5546DDF86D
:1047700038A05C60389A399901321F600919072AFC
:104780003991389200F37F8208331AF0010F3FF419
:10479000FDA91B9901225A60389A19603999013292
:1047A00038920131072A39913FF73DAB0833FFF7C3
:1047B000EDB92D238DF80F31FFF7E8BB0998594665
:1047C00037AAFFF739F800287FF412AA4B4656E5BE
:1047D0007082000001236360389A48F2C023C0F25F
:1047E00000032360399B013238920133072A399341
:1047F000D8BF04F1080300F37381429A2AB91898CC
:1048000018B91AF0010F3FF4C1A91B9901225A608F
:10481000389A19603999013238920131072A399151
:1048200000F368810833429C6442002C40F3878186
:10483000102C9E4F40F3A08110260DF1DC0803E000
:10484000103C102C40F398815E60389A39990132FF
:104850001F601031072A399103F108033892EFDD08
:10486000099859464246FEF7E7FF4B460028E7D035
:10487000FFF7BEB9399B5E46002B3FF4BAA90998F1
:10488000594637AAFEF7D8FFFFF7B3B90A994AF09D
:10489000200A6A786B1C0A91FFF7C5B83846314682
:1048A000089302F0FBFD089B002840F00181B8F15D
:1048B000FF3F08BF08F107080ED0149A672A14BFFB
:1048C00000230123472A08BF43F0010323B1B8F1B5
:1048D000000F08BF4FF0010833463A46CDE93A23AE
:1048E0004AF4807A3B9B002BC0F20A820023159386
:1048F0001499662914BF00230123462908BF43F0F9
:1049000001031293002B00F08A810323CDF82C8041
:104910000B990E970F9600930998DDE90E230191EC
:1049200042A9029141A9039140A9049100F0E8FA3B
:10493000149AB2F1670318BF0123472A0CBF002362
:1049400003F0010311902BB91AF0010F08BFDDF835
:1049500000C11AD0119B0B98129903EB000C29B1DE
:104960001B78302B00F0D080429B9C4438460022BC
:1049700000233146CDF820C0FEF760FDDDF820C0F1
:10498000002800F07381CDF800C1149811996728B0
:1049900014BF00230123472808BF43F00103C1EBE4
:1049A0000C011891002B00F04A81429A12F1030F7A
:1049B0000E9202DB904580F24B81149B023B1493D4
:1049C0000E9A1498531E4293002B8DF8F800C0F2F3
:1049D000D1812B228DF8F920092B00F362813FA9A8
:1049E00030338DF8FB3030238DF8FA303EAB189A17
:1049F000CB1A18991A935918012A0E9140F3CC81B9
:104A00000E9801300E9020EAE0710B91159B002B5F
:104A100000F0FD802D2300208DF80F311590FFF759
:104A200050B90C9B5B420C93FFF7CEBA0E9A002054
:104A30009DF80F3122EAE27215900B92FFF740B910
:104A40000A98011D0A910668321E18BF01223646D7
:104A50004FF00007FFF7F6B81AF0400F17BF0A9A99
:104A60000A990D9802F1040A11BF136801F1040AB2
:104A70000B680D9A14BF18801A60FEF795BF09984D
:104A8000594637AAFEF7D8FE00287FF4B1A84B4656
:104A90000BE40998402101F0FDFA306030610028F4
:104AA00000F08D8140237361FEF767BF70820000C4
:104AB000032048F2A02248F29C210B901498C0F2E7
:104AC0000001C0F2000215934728D8BF0A462AF019
:104AD000800A032111929DF80F310E91FFF7F0B873
:104AE0000998594637AAFEF7A7FE00287FF480A848
:104AF0004B4682E60998594637AAFEF79DFE0028E4
:104B00007FF476A84B468EE63846002200233146D5
:104B1000CDF820C0FEF792FCDDF820C000287FF41D
:104B200023AF0B9AC2F1010342931EE7099859463D
:104B300037AAFEF781FE00287FF45AA84B46189A40
:104B400011985A60389A3999186001321898389239
:104B50000918072A39913FF766A90833FFF716B8F5
:104B60000021159102F0AAFD9DF80F3120EAE072B4
:104B70000E900B92FFF7A4B85C60389A1F60511C2E
:104B8000399A3891121907293992CFDC0833D6E7C0
:104B900016991198081A0E90FFF789B8B8F1060F08
:104BA00034BF4146062148F2B822C0F2000221EA91
:104BB000E1730E9111920B93FFF763B9099859466F
:104BC00037AAFEF739FE00287FF412A84B463BE4D3
:104BD0000998594637AAFEF72FFE00287FF408A847
:104BE0004B46AFE50998594637AAFEF725FE00283F
:104BF0007EF4FEAF4C4694E5CDF8388028EAE8789C
:104C00001590CDF82C809DF80F31FFF759B80E980C
:104C10009DF80F3120EAE0700B90FFF751B8149A1D
:104C2000652A14BF00230123452A08BF43F001036E
:104C3000002B32D008F101030B93022368E614988D
:104C4000652862DD149A662A1CBF429B0E936FD0C2
:104C5000189A0E9B9A425BDC1AF0010F40F081809B
:104C600023EAE37067210B901491CFE6409B9C45AB
:104C700098BF9C467FF689AE302203F8012B9C45F5
:104C80004093FAD881E60998594637AAFEF7D4FD31
:104C900000287EF4ADAF4B4677E5CDF82C8002338B
:104CA00036E646F2676C0DF1F700C6F2666C8CFBD7
:104CB0000321DA17C2EBA10202EB8201A3EB41014F
:104CC00013463031092A00F8011DF0DC3033421E52
:104CD000D9B200F8011C079B934298BF0DF1FA016D
:104CE0007FF684AE02460DF1FB0301E012F8011BD2
:104CF00003F8011C1946079801339042F6D875E66F
:104D00002D2006F100461590F2E542990E9157E6E6
:104D10000E9918980029DABF0E9AC2F102030123F6
:104D20001B18672123EAE3720E9314910B926DE630
:104D3000429800280E9038DDB8F1000F07D11AF024
:104D4000010F04BF20EAE0710B913FF45FAE0E9AB1
:104D500066201490531C43440E9323EAE3710B9195
:104D600054E60E9A6723149301320E9222EAE270FF
:104D70000B904BE62D225B428DF8F9202CE60A9928
:104D80001A78D1F8008004310A91B8F1000FB8BF49
:104D90004FF0FF38FEF747BE1AF0010F04BF21EABB
:104DA000E1730B933FF432AE2AE6B8F1000F0ED157
:104DB0001AF0010F0BD101220B920E9226E60998F0
:104DC0000C234FF0FF310D910360FEF71ABF08F17D
:104DD0000203662023EAE3710E9314900B9115E60B
:104DE0002DE9F84F03690E69824689469E4200F319
:104DF0008380F21C01F1140500F11404013E9200BD
:104E00008B18121803F1040859685068013102F038
:104E1000B3FC0746002839D000239C461A46E958BF
:104E2000E0581FFA81FE4FEA114B81B20EFB07CE0C
:104E300051180BFB07FC0CEB1E4C1FFA8EFECEEB41
:104E400001011FFA8CF24FEA1C4CC2EB10421FFA10
:104E500081FE02EB21424EEA0241E150043312147A
:104E600059198845DBD2321D0AEB8203596869B9AA
:104E70009C4209D25AF8222012B105E01A681AB9E8
:104E8000043B013E9C42F9D3CAF8106049465046A3
:104E900001F0BEFC00282CDB002301379C46EA58B9
:104EA000E05891B2120C1FFA80F9C2EB1042C1EB2C
:104EB0000901614402EB214289B241EA0241E15019
:104EC00004334FEA224C5A199045E8D2321D0AEBBE
:104ED0008203596869B99C4209D25AF8222012B15A
:104EE00005E01A681AB9043B013E9C42F9D3CAF89E
:104EF00010603846BDE8F88F0020BDE8F88F00BF8D
:104F00002DE9F04F466AA1B00446904699462D9D82
:104F1000002E00F02384326882B1616A4FF0010CE8
:104F2000766820460B6856604A6819460CFA02F209
:104F30009A6001F0A7FD636A00221A60B9F10006C9
:104F400038DB00232B6040F20003C7F6F0731A46EB
:104F500006EA0303934217D0002200234046494645
:104F6000CDE90689FEF76AFA002829D02C9801239A
:104F70002E990360002900F0D080794B581E2E9A9C
:104F8000136021B0BDE8F08F2C9842F20F730360DC
:104F9000B8F1000F00F0958048F2D020C0F2000078
:104FA0002E990029EDD0C278C31C002AE7D000F169
:104FB0000803E4E726F000460123B1462B60C2E770
:104FC0002046DDE906231EA900911FA9019101F0E9
:104FD000ABFDC6F30A558346002D7ED0DDE9060100
:104FE000A5F57E751F9F073D21F07F4323F47003D5
:104FF00043F07E51002341F4E001199340F2000395
:105000000022C3F6F873FDF7FDFD4FA3D3E900239B
:10501000FDF7ACFF4EA3D3E90023FDF7F5FDCDE985
:1050200008012846FDF73CFF4BA3D3E90023FDF719
:105030009DFF02460B46DDE90801FDF7E5FDCDE9E0
:10504000080102F0D7FC002200230646DDE9080132
:10505000FEF7FEF940B13046FDF722FFDDE90823F7
:10506000FEF7ECF900B9013E162E5BD90123189327
:10507000013FB7EB050A42BFCAF1000ACDF83CA0D8
:105080004FF0000A01D400220F92002EC0F271836B
:10509000B2440023179615932A9B092B62D8052B3F
:1050A00040F377862A98002704382A902A998B1E85
:1050B000032B00F2DD83DFE813F0A503D803D5034B
:1050C000C40326F07F4626F47006002E7FF464AFFA
:1050D00048F2C420C0F2000062E71F9F1E9BFB182D
:1050E00003F586639D1C202DDCBFC5F1200008FA66
:1050F00000F008DD1E3BC5F1400216FA02F228FA64
:1051000003F342EA0300FDF7BBFEA5F58665012225
:10511000033D1992A1F1F87170E748F2C020C0F286
:1051200000002EE748F22033DDE90601C0F200035B
:1051300003EBC603D3E90023FEF78AF9002840F009
:105140002083189094E700BF61436F63A787D23F25
:10515000B3C8608B288AC63FFB799F501344D33F66
:10516000C182000000234FF0FF301F4601212A9327
:105170001190169108902B93656A00236B6020466E
:10518000696801F09BFC636A28601B681093002F1C
:1051900000F05B81002E40F32A8448F2203306F0B1
:1051A0000F02C0F20003351103EBC20315F0100F1C
:1051B000D3E90001CDE90C0100F0E78248F2F833B1
:1051C000DDE90601C0F2000305F00F054FF003080A
:1051D000D3E90823FDF7F4FFCDE91201BDB148F290
:1051E000F837DDE90C23C0F2000715F0010F104677
:1051F000194607D0D7E9002308F10108FDF7B6FEEC
:1052000002460B4608376D10EFD1CDE90C23DDE9DE
:105210000C23DDE91201FDF7D3FFCDE90C0118994C
:10522000002900F0DE8040F20003DDE90C010022DD
:10523000C3F6F0734FF00005FEF70AF908B14FF01E
:105240000105089A002AD4BF002505F00105002DAC
:1052500000F0C780119B002B40F3F58040F2000363
:105260000022C4F22403DDE90C01FDF77FFECDE945
:105270000C0108F10100711E1291FDF711FE0246AA
:105280000B46DDE90C01FDF771FE40F20003002240
:10529000C4F21C03FDF7B8FCDDF844C08046A1F160
:1052A0005079169B002B00F0AD8348F2203340F27A
:1052B0000001C0F20003002003EBCC03C3F6E07151
:1052C000CDF80CC053E90223FDF77AFF42464B4666
:1052D000109DFDF797FC80468946DDE90C0102F040
:1052E00089FB0746FDF7DCFD02460B46DDE90C01B4
:1052F000FDF788FC07F13003CDE90C01404605F8C5
:10530000013B4946DDE90C23FEF7C0F8002840F0D8
:10531000138240F20001DDE90C230020C3F6F07196
:10532000FDF770FC02460B4640464946FEF7AEF8D4
:10533000DDF80CC0002840F0E783BCF1010F40F31A
:105340008280CDF868B00127CDF870A01D96664622
:10535000DDE90CAB0C9410E040F200010020C3F634
:10536000F071FDF74FFC42464B46FEF771F80028FE
:1053700040F0C783B74280F28B8440F2000340467E
:1053800049460022C4F224030135FDF7EFFD40F247
:1053900000030022C4F22403804689465046594641
:1053A000FDF7E4FD8B46824602F024FB0446FDF740
:1053B00077FD303402460B4650465946FDF722FC35
:1053C000109A4B46D4554246013782468B46FEF72B
:1053D0003FF852465B460028BED0DDF868B00C9C12
:1053E000AAE14046FDF75CFDDDE90C23FDF7BEFDBB
:1053F00040F200030022C4F21C03FDF705FC089AEA
:10540000A1F150758046A946002A40F0EC8240F296
:105410000003DDE90C010022C4F21403FDF7F2FBE6
:1054200042462B46CDE90C01FEF730F8002840F04B
:105430004A824246DDE90C0105F10043FEF708F817
:10544000002840F0D581DDE906891E9B6FEA03073D
:105450004FEAD7770E2ECCBF002707F00107002FA9
:1054600000F0B7802B9848F22033C0F2000308996F
:1054700003EBC603C20F0029CCBF002202F00102D9
:10548000D3E90001CDE90401002A40F0A0810246E1
:105490000B4640464946FDF793FE109D02F0AAFADE
:1054A0008246FDF7FDFCDDE90423FDF75FFD0246C2
:1054B0000B4640464946FDF7A5FB0AF1300305F8C7
:1054C000013B089A012A8046894652D040F20003E7
:1054D0000022C4F22403FDF749FD00220023CDE998
:1054E0000601FDF7ABFF002840F0EB8110984FF06C
:1054F0000108CDF82CB0A346871C0F96DDF820904C
:10550000DDE906450AE0FDF731FD002200230446EF
:105510000D46FDF793FF002840F0CE81DDE904231E
:105520002046294608F10108FDF74AFE3E4602F0F2
:1055300061FA8246FDF7B4FCDDE90423FDF716FDB0
:1055400002460B4620462946FDF75CFB00220AF185
:10555000300C07F801CC0137C14540F20003C4F21A
:105560002403D0D135465C460F9E8046DDF82CB032
:10557000894642464B4640464946FDF745FB804634
:1055800089464246DDE904014B46FDF761FF60B9FB
:10559000DDE9040142464B46FDF750FF002800F0CC
:1055A00090811AF0010F00F08C81109900E01D46E7
:1055B00015F8012C6B1E392A40F067838B42F6D117
:1055C00010993023013631220B70109B1A701296FD
:1055D000B2E0169A002A40F0DF80159F0F9D0C92D2
:1055E000002DD4BF00230123BAF1000FD4BF002344
:1055F00003F001034BB1AA45B4BF53462B460F98A5
:10560000C3EB0A0AED1AC01A0F90159900291CDD88
:10561000169A002A00F0E982002F12DD0C993A4612
:10562000204601F0ABFC5A460C9020460C9901F044
:10563000BDFB594603462046039301F023FA039B22
:105640009B46159BDA1B40F011830121204601F097
:1056500047FC06901798002805DD06992046179A02
:1056600001F08CFC06902A99012940F30A81002759
:10567000179B002B40F061820123534413F01F035A
:1056800040F02A811C230F9A9A44ED18D2180F92E9
:105690000F9B002B05DD59461A46204601F028FBDA
:1056A0008346BAF1000F05DD06995246204601F007
:1056B0001FFB06901898002840F029822A98089924
:1056C0000228D4BF002301230029CCBF002303F00C
:1056D0000103002B00F00C81002940F08C80052292
:1056E0000699089B204601F005FC0690584606994D
:1056F00001F08EF800287EDD109D01360027DDF8D0
:1057000030A0312305F8013B0699204601F0BAF993
:10571000BAF1000F00F0D5803B1E18BF012357459A
:105720000CBF002303F00103002B40F0D080514652
:10573000204601F0A7F912962046594601F0A2F939
:10574000129A531C00222A702C982E99036000296B
:1057500000F0D4812E9A1098156012E4102000F009
:1057600091FCC66046608660066006466062FFF790
:10577000D2BB0F98714200221591801B17920F9097
:105780008AE40021013E189172E4DDE906234FF01E
:105790000208CDE9122321E52A98012840F36C8202
:1057A000089A1598531E9842C0F25882C71A089B4F
:1057B000002BA8BF0F9DC0F273820F9A20460121D3
:1057C0009A44D2180F9201F08BFB0C9008E7089BCB
:1057D00073B940F200030022C4F21403DDE90401AE
:1057E000FDF7C4FB42464B46FDF746FE00286AD053
:1057F000002206920C922B9B0027DDF830A0DE439E
:10580000109D81E7002116912B98002840F39F817D
:105810002B98014611900890656A002217296A604A
:1058200040F2AB8204235B00013203F11400884292
:10583000F9D9089B6A600E2B8CBF002707F001077F
:105840009DE4012216922B9BF3181193591C0029F9
:10585000C8BF0891E0DC0E298CBF002707F00107C4
:10586000089189E401231693CEE700221692EAE715
:105870004FF0FF33002701201193169008932B97C8
:105880007AE4B8F1000F7FF4F2AE29F07F4323F4FD
:105890007003002B7FF4EBAE40F20003C7F6F07309
:1058A00009EA0303002B3FF4E2AE0F9A0AF1010A62
:1058B000012701320F92DBE635465C460F9EDDF88C
:1058C0002CB0129638E7002006900C9014E7394669
:1058D000204601F0D7F82AE7C3F12003042B40F358
:1058E00054820F99043B9A44ED18C9180F91CFE6E2
:1058F0001699002900F03181002D05DD0C992A460A
:10590000204601F0F5F90C90002F40F0EA81DDF817
:1059100030A0109D012308F001000C9F11900F95FD
:105920001D460C9606995846FFF75AFA394630300C
:105930000B90584600F06CFF0699524606462046EA
:1059400001F05AF9C3688046002B3DD04FF00109A1
:105950004146204601F096F82A9959EA010103D1FF
:10596000119A002A00F0EB81002EC0F29E812A9A43
:10597000324303D1119B002B00F09781B9F1000F46
:1059800000F3CE810F990B9A01F8012B089B0F9120
:105990009D4200F0C28159460A220023204601F0B0
:1059A000A9FA57453946834614D00A2200232046D7
:1059B000013501F09FFA51460A220023074620468E
:1059C00001F098FA8246ADE75846414600F020FFC4
:1059D0008146BDE720460A220023013501F08AFAFC
:1059E000074682469EE71296DDF820C059E47542CC
:1059F000002D40F00181DDE906014FF00208CDE9FC
:105A00000C010CE448F220314246C0F200014B4642
:105A100001EBCC01CDF80CC0109D51E90201FDF75E
:105A2000A5FACDE91A01DDE90C0101F0E3FF074613
:105A3000FDF736FA0B460246DDE90C01FDF7E2F808
:105A400007F13003CDE90C0105F8013BDDF80CC08E
:105A5000BCF1010F29D0D146DDE90C01B246109E00
:105A60001C9501276546A04640F200030022C4F2BF
:105A70002403FDF77BFACDE90C0101F0BBFF0446DE
:105A8000FDF70EFA303402460B46DDE90C01FDF756
:105A9000B9F8F4550137AF42E6D11C9D013F564697
:105AA0004446CA46ED19CDE90C0140F2000300223C
:105AB000C3F6E073DDE91A01FDF7A6F802460B46CE
:105AC000DDE90C01FDF7E2FCF0B940F20001DDE98F
:105AD0001A230020C3F6E071FDF794F802460B4646
