:10000000008000204D030000450300004503000070
:1000100080B51448144B21E05C689968DD688C4217
:100020000CD0002205E0A6180832D6E9008941E983
:1000300002898C460831AA42F5D101E004EB050C97
:100040001C696146002204E008320026002741E9CD
:1000500002670831A242F7D1143301380028DBD1FE
:1000600003F0A6FE01000000F43E000048F2304319
:10007000C1F6FF731A780AB901201870704700BFE3
:1000800048F20810C1F6FF7008B503682BB140F2C2
:100090000003C0F2000303B1984708BD80B500AF6C
:1000A0004FF0010002F0C6F803464FEAE30318469A
:1000B00003F0FEF902460B461046194602F052FFC5
:1000C00002460B461046194603F01AFD024648F256
:1000D000A843C1F6FF731A6002F066F880BD00BF46
:1000E00080B582B000AF01F071FE03467B607B6893
:1000F000562B13D148F2A843C1F6FF731B684FEA91
:100100001323DBB2184601F087FE48F2A843C1F67C
:10011000FF731B68DBB2184601F07EFE07F108078B
:10012000BD4680BD80B500AF02F024FB01F010F8A1
:1001300002F068FB02F05CF902F0EEF900F0A0FDBD
:100140004EF20013CEF200034FF000521A6001F09D
:1001500073F901F08FF900F067F902F00FF84FF032
:10016000550002F057F800F043F84FF4967000F095
:10017000A3FC4FF0020002F0EBF84FF0000001F09A
:1001800087FE01F0A9FD62B64FF001004FF00001BB
:1001900000F08CFD48F23443C1F6FF731B889BB21C
:1001A000184600F0BFFF4FF0200000F0B9FD48F204
:1001B000A843C1F6FF731B684FEA13439BB218466E
:1001C00000F0B0FF48F2A843C1F6FF731B689BB272
:1001D000184600F0A7FF01F0B5FE01F08FFF4FF0C9
:1001E000640000F069FC4FF0020002F0B1F8CBE7C8
:1001F00080B500AF00F0AAFB03461A4648F2AC43B4
:10020000C1F6FF731A7048F28843C1F6FF734FEAD4
:1002100013439BB24FF004004FF000011A464FF415
:10022000804302F037F903461A4648F28443C1F688
:10023000FF731A7048F2AC43C1F6FF731B7818467F
:100240004FF020014FF0FF024FF0010300F0BAFB26
:1002500048F2AC43C1F6FF731A7848F28843C1F6FE
:10026000FF739BB2104619464CF2A07200F0E4FBFB
:1002700048F28443C1F6FF731A7848F2AC43C1F6E2
:10028000FF731B781046194600F0EEFA48F28443DB
:10029000C1F6FF731B7818464FF0010100F030FAE9
:1002A0004FF07F004FF0000141F6FF7241F6FF73FF
:1002B00002F084F903461A4648F28543C1F6FF73FB
:1002C0001A7000F043FB03461A4648F28043C1F619
:1002D000FF731A7048F28043C1F6FF731B7818460B
:1002E0004FF004014FF0FF024FF0030300F06AFBF0
:1002F00048F28043C1F6FF731A7848F2A843C1F66A
:10030000FF731B689BB210464CF2A8711A4600F0AE
:1003100093FB48F28543C1F6FF731A7848F2804395
:10032000C1F6FF731B781046194600F09DFA48F29B
:100330008543C1F6FF731B7818464FF0010100F0AA
:10034000DFF980BD80B400AFFEE700BF054B1C782D
:1003500044F001041C70044B1A78D2B2034B1A709B
:10036000FFF756FEE8460040F8460040BC760040E5
:1003700080B582B000AF4EF60C53CEF2000340F2CF
:100380000042C0F2FA521A604EF61453CEF2000345
:100390004EF61452CEF20002126842F400721A6055
:1003A0004FF000037B6019E079687B68032B07D866
:1003B0007A6840F20003C0F2000353F8223003E0F1
:1003C00040F24533C0F2000348F20002C1F6FF726A
:1003D00042F821307B6803F101037B607B682F2B9F
:1003E000E2D947F2BC63C4F200031B78DAB248F2E8
:1003F000AD43C1F6FF731A704EF60853CEF20003F8
:1004000048F20002C1F6FF721A6002F04DFC00F0E3
:100410003FF948F20013C1F6FF734FF000021A6073
:1004200007F10807BD4680BD80B500AF48F26043C4
:10043000C1F6FF731B78002B08D100F00BF848F2CF
:100440006043C1F6FF734FF001021A7000F064F8C8
:1004500080BD00BF80B582B000AF46F27553C4F2D4
:1004600000031B78DBB223F03F03BB7146F27553E8
:10047000C4F20003BA7942F01902D2B21A7046F2FD
:100480009453C4F2000346F29452C4F2000212786C
:10049000D2B242F00102D2B21A7046F29553C4F2BF
:1004A000000346F29552C4F200021278D2B242F032
:1004B0000102D2B21A704FF4007000F043F84FF40A
:1004C000007000F05DF84FF4807000F069F84FF0B4
:1004D000010000F075F84FF0000000F09DF800F00A
:1004E000CFF80346FB7146F29553C4F2000346F27F
:1004F0009552C4F200021278D2B242F01002D2B287
:100500001A70FB79184600F0BFF800F02BF807F1DD
:100510000807BD4680BD00BF80B400AF46F27553EA
:10052000C4F2000346F27552C4F200021278D2B24D
:100530006FEA42626FEA5262D2B21A70BD4680BC64
:10054000704700BF80B483B000AF0346FB8046F61F
:100550000823C4F20003FA881A8007F10C07BD468D
:1005600080BC704780B500AF01E000F075F800F086
:1005700063F8034603F01003002BF6D180BD00BFE3
:1005800080B483B000AF0346FB8046F68823C4F2F4
:100590000003FA881A8007F10C07BD4680BC70473B
:1005A00080B483B000AF0346FB8046F64823C4F214
:1005B0000003FA881A8007F10C07BD4680BC70471B
:1005C00080B483B000AF0346FB7146F27453C4F2AB
:1005D000000346F27452C4F200021278D2B202F062
:1005E000FC021A7046F27453C4F2000346F27452CD
:1005F000C4F200021278D2B21146FA79D2B202F0F5
:10060000030241EA0202D2B2D2B21A7007F10C0719
:10061000BD4680BC704700BF80B483B000AF0346C6
:10062000FB7146F28553C4F20003FA791A7007F1A0
:100630000C07BD4680BC704780B483B000AF46F263
:100640006553C4F200031B78FB71FB79184607F170
:100650000C07BD4680BC704780B400AF46F6A823A7
:10066000C4F200031B889BB21846BD4680BC70478D
:100670000230800803D000BF01380046FCD170472B
:10068000EFF3108072B6704780F31088704700BF98
:1006900080B483B000AF48F26243C1F6FF734FF0FD
:1006A0007F021A7048F26143C1F6FF736FF07F0258
:1006B0001A704FF07F03FB710FE0FB794FEAC30321
:1006C00003F1804303F5F043FA7902F1FF32D2B22D
:1006D0001A70FB7903F1FF33FB71FB79002BECD12E
:1006E000FB794FEAC30303F1804303F5F0434FF076
:1006F00000021A7007F10C07BD4680BC704700BFAE
:1007000080B485B000AF02460B46FA71BB714FF062
:100710000103FB60FB79172B22D8FB794FEA031208
:1007200047F21003C4F200031344FA794FEA0211AE
:1007300047F21002C4F200020A441278D2B202F068
:10074000DF02B979002902D04FF0210101E04FF01A
:10075000010142EA0102D2B21A704FF00003FB60BD
:10076000FB68184607F11407BD4680BC704700BF00
:1007700080B485B000AF02460B46FA71BB714FF0F2
:100780000103FB60FB79172B22D8FB794FEA031298
:1007900047F21003C4F2000313441B78DBB223F0CA
:1007A0000E03FB72FB794FEA031247F21003C4F207
:1007B00000031344BA7902F007024FEA4202D1B2B1
:1007C000FA7A41EA0202D2B21A704FF00003FB60DB
:1007D000FB68184607F11407BD4680BC704700BF90
:1007E00080B485B000AF13460246FA710A46BA805B
:1007F0007B804FF00103BB60BA8841F6FF739A42D9
:1008000002D14FF40053BB807A8841F6FF739A42BD
:1008100002D14FF400537B80FB79172B1CD8FB7956
:100820004FEAC30303F1804303F5EC4303F10403F0
:10083000FB60FB68BA881A80FB794FEAC30303F1B7
:10084000804303F5EC4303F1040303F102037A88C8
:100850001A804FF00003BB60BB68184607F114070D
:10086000BD4680BC704700BF80B485B000AF024673
:100870000B46FA71BB714FF00103FB60FB79172B3C
:100880000CD8FB794FEA031247F21003C4F20003BD
:100890001344BA795A724FF00003FB60FB681846A4
:1008A00007F11407BD4680BC704700BF80B485B017
:1008B00000AFF871B9717A713B714FF00103FB60C1
:1008C000FB79172B3BD8FB794FEAC30303F1804335
:1008D00003F5EC43BA7902F07F0279794FEAC1114E
:1008E000C9B242EA0102D2B21A70FB794FEAC303DD
:1008F00003F1804303F5EC433A7E4FEA0212D1B292
:100900003A7902F00F0241EA0202D2B25A70FB7940
:100910004FEAC30303F1804303F5EC433A7F02F04F
:100920000F029A70FB794FEAC30303F1804303F58A
:10093000EC434FF00002DA704FF00003FB60FB68FD
:10094000184607F11407BD4680BC704780B582B0D9
:1009500000AF4FF0FF33FB71FFF792FE0346BB7110
:1009600048F26143C1F6FF731B78182B20D948F277
:100970006243C1F6FF731B78FB7148F26143C1F615
:10098000FF731B7803F1FF33DAB248F26143C1F61B
:10099000FF731A70FB794FEAC30303F1804303F539
:1009A000F0431B78DAB248F26243C1F6FF731A7063
:1009B000BB791846FFF768FEFB79184607F1080770
:1009C000BD4680BD80B485B000AFF871B980FA70C3
:1009D000BB704FF00103BB60FB795BB2002B24DBE3
:1009E000BB8803F47043002B1FD1FB794FEAC3038C
:1009F00003F1804303F5F043FB60FB68BA881A807B
:100A0000FB794FEAC30303F1804303F5F043FA781F
:100A10009A70FB794FEAC30303F1804303F5F04377
:100A2000BA78DA704FF00003BB60BB68184607F174
:100A30001407BD4680BC704780B485B000AF134634
:100A40000246FA710A46BA807B804FF00103BB6010
:100A5000FB795BB2002B1CDBFB794FEAC30303F18C
:100A6000804303F5F04303F10403FB60FB68BA889D
:100A70001A80FB794FEAC30303F1804303F5F04387
:100A800003F1040303F102037A881A804FF0000394
:100A9000BB60BB68184607F11407BD4680BC7047B1
:100AA00080B483B000AF0346FB7101BE07F10C07B1
:100AB000BD4680BC704700BF80B582B000AF786093
:100AC0000BE048F21C33C1F6FF731B681846FFF7B2
:100AD000CFFD7B68A3F500437B607B68B3F5004FD7
:100AE000EFD848F21433C1F6FF731B687A6802FB33
:100AF00003F31846FFF7BCFD07F10807BD4680BDAC
:100B000080B582B000AF0346FB80FA8848F2183304
:100B1000C1F6FF731B7803FB02F31846FFF7A8FD2D
:100B200007F10807BD4680BD80B584B000AF03461D
:100B30003960FB714EF60853CEF200031B68FB6070
:100B4000FB791F2B03D94FF00000FFF7A9FFFB79BA
:100B500003F01F0303F110034FEA8302FB68134401
:100B60001B68BB60FB7903F01F0303F110034FEA1E
:100B70008302FB6813443A681A60BB68184607F1A1
:100B80001007BD4680BD00BF80B582B000AF0246F1
:100B90000B46FA71BB71BB79072B03D94FF00000EC
:100BA000FFF77EFFFB791F2B03D94FF00000FFF703
:100BB00077FFFB7903F01F0303F1604303F5644300
:100BC000BA794FEA4212D2B21A7007F10807BD464D
:100BD00080BD00BF80B500AF4FF02800FFF76CFF6D
:100BE0004FF0030000F036FA4FF00500FFF764FF06
:100BF0004FF0030000F02EFA4FF00F00FFF75CFFFC
:100C00004FF0030000F026FA4FF00100FFF754FF09
:100C10004FF0020000F01EFA4FF00500FFF74CFF06
:100C20004FF0060000F0A6F84FF00E0000F0A2F81A
:100C30004FF02C0000F09EF84FF0080000F09AF8FA
:100C40004FF0010000F096F84FF00C0000F092F821
:100C50004FF0030000F08EF84FF00500FFF72CFF77
:100C600080BD00BF80B500AF4FF00C0000F082F8EF
:100C700048F26343C1F6FF734FF001021A7080BD62
:100C800080B500AF48F26443C1F6FF731B78002BB8
:100C900008D1FFF79FFF48F26443C1F6FF734FF09E
:100CA00001021A70FFF7DEFF80BD00BF80B582B081
:100CB00000AF02460B46FA71BB71FB79032B2AD8B1
:100CC00001A252F823F000BFD90C0000E90C00008B
:100CD000F90C0000090D0000BB79A3F18003DBB221
:100CE000184600F047F816E0BB79A3F14003DBB2E9
:100CF000184600F03FF80EE0BB79A3F16C03DBB2BD
:100D0000184600F037F806E0BB79A3F12C03DBB2FC
:100D1000184600F02FF807F10807BD4680BD00BF58
:100D200080B582B000AF0346FB71FB79184600F036
:100D300005F807F10807BD4680BD00BF80B584B047
:100D400000AF0346FB7100F031F8FB794FEA131353
:100D5000FB73FB7B184600F027F9FB7903F00F03C8
:100D6000FB73FB7B184600F01FF907F11007BD4627
:100D700080BD00BF80B584B000AF0346FB7100F0BA
:100D800015F8FB794FEA1313FB73FB7B184600F051
:100D900061F9FB7903F00F03FB73FB7B184600F04E
:100DA00059F907F11007BD4680BD00BF80B582B07C
:100DB00000AF45F22013C4F2000345F22012C4F242
:100DC00000021278D2B202F080021A7045F22213A9
:100DD000C4F200031B78DBB223F00F03FB7145F272
:100DE0002213C4F20003FA7942F00F02D2B21A7051
:100DF00045F22313C4F200031B78DBB223F00F0388
:100E0000FB7145F22313C4F20003FA791A7045F21C
:100E10002413C4F200031B78DBB223F00F03FB7131
:100E200045F22413C4F20003FA791A7045F2201334
:100E3000C4F2000345F22012C4F200021278D2B2CA
:100E400002F0DF021A7045F22013C4F2000345F2EB
:100E50002012C4F200021278D2B242F04002D2B2A2
:100E60001A704FF00000FFF74BFE45F22013C4F25A
:100E7000000345F22012C4F200021278D2B242F00E
:100E80001002D2B21A704FF00100FFF739FE45F29E
:100E90002113C4F200031B78FB7145F22013C4F246
:100EA000000345F22012C4F200021278D2B202F01E
:100EB000EF021A704FF00000FFF722FEFB7903F0FB
:100EC0000803FB7145F22013C4F2000345F220121F
:100ED000C4F200021278D2B242F01002D2B21A70FA
:100EE0004FF00100FFF70CFE45F22013C4F200039F
:100EF00045F22012C4F200021278D2B202F0EF02E0
:100F00001A70FB79002BACD145F22013C4F2000318
:100F100045F22012C4F200021278D2B202F0BF02EF
:100F20001A7045F22013C4F2000345F22012C4F2F5
:100F300000021278D2B202F080021A7045F2221337
:100F4000C4F2000345F22212C4F200021278D2B2B7
:100F500002F0F0021A7045F22313C4F200031B786A
:100F6000DBB223F00F03FB7145F22313C4F200033D
:100F7000FA7942F00F02D2B21A7045F22413C4F289
:100F800000031B78DBB223F00F03FB7145F224133F
:100F9000C4F20003FA7942F00F02D2B21A7007F1DC
:100FA0000807BD4680BD00BF80B582B000AF0346D4
:100FB000FB71FFF7FBFE45F22013C4F2000345F27C
:100FC0002012C4F200021278D2B242F02002D2B251
:100FD0001A7045F22013C4F2000345F22012C4F245
:100FE00000021278D2B202F0BF021A7045F220134A
:100FF000C4F2000345F22012C4F200021278D2B209
:1010000002F0F0021A7045F22013C4F2000345F218
:101010002012C4F200021278D1B2FA7941EA020237
:10102000D2B242F01002D2B21A704FF00100FFF7B4
:1010300067FD45F22013C4F2000345F22012C4F20A
:1010400000021278D2B202F0EF021A7007F108071C
:10105000BD4680BD80B582B000AF0346FB7145F24E
:101060002013C4F2000345F22012C4F200021278E9
:10107000D2B202F09F021A7045F22013C4F20003AC
:1010800045F22012C4F200021278D2B202F0F0024D
:101090001A7045F22013C4F2000345F22012C4F284
:1010A00000021278D1B2FA7941EA0202D2B242F0D9
:1010B0001002D2B21A704FF00100FFF721FD45F285
:1010C0002013C4F2000345F22012C4F20002127889
:1010D000D2B202F0EF021A7007F10807BD4680BDD8
:1010E00080B582B000AF0346FB71FB794FEA131362
:1010F000DBB21A4643F63463C0F200039B5C184629
:10110000FFF70EFEFB7903F00F0243F63463C0F2E3
:1011100000039B5C1846FFF703FE07F10807BD4676
:1011200080BD00BF80B582B000AF0346FB80FB8866
:101130004FEA13239BB2DBB21846FFF7D1FFFB88BF
:10114000DBB21846FFF7CCFF07F10807BD4680BDAC
:1011500080B400AF44F2A233C4F2000344F2A232DE
:10116000C4F200021278D2B242F00102D2B21A7076
:1011700044F2B233C4F2000344F2B232C4F20002C9
:101180001278D2B242F00102D2B21A70BD4680BCCF
:10119000704700BF80B500AF4FF0010000F090F93C
:1011A0004FF0100000F02CFD4FF0100000F044FD57
:1011B0004FF002004FF4104146F606124FF00903BB
:1011C00000F0F8FA80BD00BF80B500AF48F2704370
:1011D000C1F6FF731B78002B0FD048F22833C1F6FD
:1011E000FF731B7A002B08D100F0D0F848F270434F
:1011F000C1F6FF734FF000021A7048F22833C1F6AF
:10120000FF734FF000021A7244F2AA33C4F20003D3
:1012100044F2AA32C4F200021278D2B242F00102C1
:10122000D2B21A7044F2C533C4F2000344F2C5329C
:10123000C4F200021278D2B242F00102D2B21A70A5
:1012400044F2BA33C4F2000344F2BA32C4F20002E8
:101250001278D2B242F00102D2B21A7048F22033B0
:10126000C1F6FF731B78DBB2012B47D144F2F56363
:10127000C4F2000344F2F562C4F200021278D2B262
:1012800042F01002D2B21A7044F2F763C4F20003C3
:1012900044F2F762C4F200021278D2B242F00802BD
:1012A000D2B21A7045F69103C4F2000345F69102DA
:1012B000C4F200021278D2B242F00302D2B21A7023
:1012C0004FF00300FFF71CFC44F2F563C4F2000387
:1012D00044F2F562C4F200021278D2B202F0EF02D8
:1012E0001A7044F2F763C4F2000344F2F762C4F2E6
:1012F00000021278D2B202F0F7021A7045F67703B4
:10130000C4F2000345F67702C4F200021278D2B2AA
:1013100042F00602D2B21A7044F2A133C4F20003C2
:1013200044F2A132C4F200021278D2B242F00102B9
:10133000D2B21A7044F2B133C4F2000344F2B132B3
:10134000C4F200021278D2B242F00102D2B21A7094
:1013500044F2A233C4F2000344F2A232C4F2000207
:101360001278D2B242F00202D2B21A7044F2B23310
:10137000C4F2000344F2B232C4F200021278D2B2D4
:1013800042F00202D2B21A7080BD00BF80B400AF3A
:1013900045F68E03C4F2000348F22832C1F6FF720C
:1013A00012781A7045F68F03C4F2000348F228320F
:1013B000C1F6FF7252781A7045F69003C4F200032A
:1013C00048F22832C1F6FF7292781A7045F69103FE
:1013D000C4F2000348F22832C1F6FF72D2781A70C4
:1013E00045F69203C4F2000348F22832C1F6FF72B8
:1013F00012791A7045F69A03C4F2000348F22832B3
:10140000C1F6FF7252791A7045F69B03C4F20003CD
:1014100048F22832C1F6FF7292791A7045F6073306
:10142000C4F2000348F22832C1F6FF72D2791A7072
:10143000BD4680BC704700BF80B500AF48F26A432C
:10144000C1F6FF731B78002B10D148F26B43C1F635
:10145000FF731B78DBB2002B01D1FFF79BFE48F234
:101460006A43C1F6FF734FF001021A70FFF7ACFE3A
:1014700080BD00BF80B400AF44F60063C4F2000337
:1014800044F60062C4F200021278D2B242F00102C5
:10149000D2B21A70BD4680BC704700BF80B483B022
:1014A00000AF44F61063C4F200031B88FB80FB8886
:1014B0001BB2184607F10C07BD4680BC704700BF41
:1014C00080B582B000AF0346FB7148F26943C1F6B4
:1014D000FF734FF000021A7048F26A43C1F6FF73BF
:1014E0001B78002B68D145F69603C4F200034FF039
:1014F00007021A7045F69703C4F200034FF000028A
:101500001A7045F69E03C4F200034FF000021A70F1
:1015100045F60733C4F2000345F60732C4F2000271
:101520001278D2B242F01802D2B21A7045F6930382
:10153000C4F200034FF000021A7045F68833C4F27B
:1015400000034FF000021A7045F68933C4F200031D
:101550004FF000021A7045F68003C4F200034FF00A
:101560000A021A7045F68103C4F200034FF000022C
:101570001A7045F68203C4F200034FF07A021A7023
:1015800045F68303C4F200034FF000021A7045F6DB
:101590008D03C4F200034FF000021A7044F6016399
:1015A000C4F200034FF014021A7044F61463C4F23C
:1015B00000034FF001021A70FB79012B40F0F68016
:1015C00044F60063C4F200034FF038021A7044F688
:1015D0000263C4F200034FF004021A7044F603637E
:1015E000C4F200034FF006021A7044F60463C4F21A
:1015F00000034FF000021A7044F60563C4F20003C2
:101600004FF000021A7044F60663C4F200034FF074
:1016100013021A7044F60863C4F200034FF000028C
:101620001A7044F60963C4F200034FF000021A7006
:1016300044F60A63C4F200034FF000021A7045F644
:101640008403C4F200034FF014021A7045F68503B8
:10165000C4F200034FF00B021A7045F68603C4F281
:1016600000034FF031021A7045F68703C4F20003FD
:101670004FF000021A7045F68803C4F200034FF0E1
:1016800012021A7045F68903C4F200034FF01302E8
:101690001A7045F68A03C4F200034FF044021A7030
:1016A00045F68B03C4F200034FF048021A7045F66A
:1016B0008C03C4F200034FF001021A7045F68E034A
:1016C000C4F200034FF001021A7045F68F03C4F212
:1016D00000034FF011021A7045F69003C4F20003A4
:1016E0004FF019021A7045F69103C4F200036FF02F
:1016F00068021A704FF0520000F042F945F6940368
:10170000C4F200034FF058021A7045F69503C4F274
:1017100000034FF000021A7045F69A03C4F200036A
:101720004FF005021A7045F69B03C4F200034FF018
:1017300002021A7045F69C03C4F200034FF0010246
:101740001A7045F69D03C4F200034FF000021A70B0
:1017500045F60733C4F2000345F60732C4F200022F
:101760001278D2B242F01802D2B21A704FF00000D2
:1017700000F09CFA48F22433C1F6FF734FF0660282
:101780001A604FF01D004FF00201FFF7FDF94FF016
:101790001D0041F61921C0F20001FFF7C5F94EF214
:1017A0000013CEF200034FF000521A6007F1080751
:1017B000BD4680BD80B487B000AFF871B9807A8033
:1017C0007B70FB79A3F10403062B5DD801A252F8CC
:1017D00023F000BFF11700008918000089180000ED
:1017E000171800003D180000891800006318000059
:1017F0007B780F2B07D940F21413C4F600131B7823
:10180000DBB2FB7343E040F21813C4F600131B78FD
:10181000DBB2FB733BE07B780F2B07D940F215134B
:10182000C4F600131B78DBB2FB7330E040F21913EF
:10183000C4F600131B78DBB2FB7328E07B780F2B18
:1018400007D940F21613C4F600131B78DBB2FB7302
:101850001DE040F21A13C4F600131B78DBB2FB73D1
:1018600015E07B780F2B07D940F21713C4F600134D
:101870001B78DBB2FB730AE040F21B13C4F60013C3
:101880001B78DBB2FB7302E04FF00003FB73FB79C4
:10189000002B11D0FB79012B0ED0FB79022B0BD042
:1018A000FB79032B08D0FB79052B05D0FB79062BA0
:1018B00002D0FB79092B03D14FF000033B8206E0F5
:1018C00097F90F309BB24FEA43139BB23B823A8A9F
:1018D000BB8813447B827B8A7A8802FB03F37B619B
:1018E0007B694FEAD3337B827B780D2B12D87A8ABF
:1018F0007B786FEA030303F10F0342FA03F37B8261
:1019000044F60E63C4F200037A7802F10102D2B207
:101910001A7006E044F60E63C4F200034FF00F02A3
:101920001A7044F60C63C4F200037A8AD2B21A70B9
:1019300044F60D63C4F200037A8A4FEA122292B28F
:10194000D2B21A70FB79012B14D144F60C63C4F2A5
:1019500000034FF000021A7044F60D63C4F2000356
:101960004FF000021A7044F60E63C4F200034FF009
:1019700000021A7007F11C07BD4680BC704700BF0B
:1019800080B582B000AF0346FB7144F2F563C4F248
:10199000000344F2F562C4F200021278D2B242F0BF
:1019A0001002D2B21A7044F2F763C4F2000344F298
:1019B000F762C4F200021278D2B242F00802D2B248
:1019C0001A7045F69203C4F20003FA791A704FF0C8
:1019D0000300FFF795F844F2F563C4F2000344F204
:1019E000F562C4F200021278D2B202F0EF021A706D
:1019F00044F2F763C4F2000344F2F762C4F2000257
:101A00001278D2B202F0F7021A7007F10807BD4649
:101A100080BD00BF00000000B0B500AFFFF73EFD85
:101A200003469AB248F23443C1F6FF731A8000F0BD
:101A3000C7FE03469AB248F23843C1F6FF731A80D4
:101A400048F23843C1F6FF731B881BB24FEA631399
:101A50009BB21AB248F23443C1F6FF731B881BB223
:101A60004FEA0333194648F28843C1F6FF7343F83F
:101A7000221048F23443C1F6FF731B881BB2002BBF
:101A800006DA48F23443C1F6FF734FF000021A80C1
:101A900048F23443C1F6FF731B881BB2132B04DCDE
:101AA0004FF0010000F0F4F903E04FF0000000F007
:101AB000EFF948F23843C1F6FF731B881AB248F2B7
:101AC0001013C1F6FF7333F812301BB2A3F1C80232
:101AD00048F23443C1F6FF731B881BB2C3EB02020A
:101AE00048F25043C1F6FF731A6048F24043C1F612
:101AF000FF735B68184601F0DBFC04460D4648F2B4
:101B00005043C1F6FF731B68184601F0D1FC024632
:101B10000B461046194636A3D3E9002301F02EFDEB
:101B200002460B462046294601F076FB02460B464C
:101B30001046194601F0BCFF024648F24043C1F688
:101B4000FF735A6048F25043C1F6FF731B68184692
:101B500001F0AEFC02460B461046194626A3D3E917
:101B6000002301F00BFD02460B4614461D4648F2C9
:101B70004043C1F6FF735B68184601F099FC0246CA
:101B80000B462046294601F047FB02460B4610460D
:101B9000194601F08DFF024648F24043C1F6FF733B
:101BA0001A6048F24043C1F6FF731B68B3F5C77F64
:101BB00007DD48F24043C1F6FF734FF4C7721A6065
:101BC0000DE048F24043C1F6FF731B68002B06DAB4
:101BD00048F24043C1F6FF734FF000021A6048F22A
:101BE0004043C1F6FF731B681846FEF7D9FCB0BD31
:101BF000295C8FC2F528CC3FFCA9F1D24D62803F11
:101C000080B483B000AF0346FB7144F20213C4F208
:101C1000000344F20212C4F200021278D1B2FA793F
:101C200002F0F80241EA0202D2B21A7007F10C0780
:101C3000BD4680BC704700BF80B483B000AF034690
:101C4000FB7144F28603C4F2000344F28602C4F23C
:101C500000021278D1B2FA7902F0F80241EA0202E7
:101C6000D2B21A7007F10C07BD4680BC704700BFA6
:101C700080B582B000AF4FF00003FB7107E0FB7945
:101C8000184600F0E7FFFB7903F10103FB71FB79D4
:101C9000012BF4D948F23433C1F6FF734FF0FF3211
:101CA0001A7007F10807BD4680BD00BF80B582B03D
:101CB00000AF0346FB71FFF7DBFFFB79184600F02E
:101CC000A3FF48F23433C1F6FF73FA791A7007F1B3
:101CD0000807BD4680BD00BF80B500AF48F2744321
:101CE000C1F6FF731B78002B08D100F00BF848F207
:101CF0007443C1F6FF734FF001021A7000F02AF826
:101D000080BD00BF80B400AF46F28243C4F200033E
:101D10004FF072021A7046F28643C4F200034FF08D
:101D200020021A7046F22543C4F200034FF0070266
:101D30001A7046F23543C4F200034FF048021A709D
:101D400046F28443C4F200034FF000021A70BD460D
:101D500080BC704780B582B000AFFEF791FC0346AF
:101D6000FB7146F29243C4F2000346F29242C4F27F
:101D700000021278D2B242F02002D2B21A7046F2B9
:101D80009643C4F2000346F29642C4F2000212786F
:101D9000D2B242F01002D2B21A7046F29443C4F2A8
:101DA000000346F29442C4F200021278D2B242F02A
:101DB0001002D2B21A7000F049F8FB791846FEF70B
:101DC00063FC07F10807BD4680BD00BF80B483B047
:101DD00000AF4FF00003BB7146F26643C4F200034C
:101DE0001B78FB71FB7903F02003002B0DD046F22A
:101DF0004643C4F200031B78BB71FB7903F01E035A
:101E0000002B02D04FF00003BB71BB79184607F1DD
:101E10000C07BD4680BC704780B483B000AF03465A
:101E2000FB7146F26443C4F200031B78DBB203F09B
:101E30000403002BF5D146F24443C4F20003FA79BF
:101E40001A7007F10C07BD4680BC704780B400AF24
:101E500044F2A233C4F2000344F2A232C4F20002FC
:101E60001278D2B242F00802D2B21A7044F2B233FF
:101E7000C4F2000344F2B232C4F200021278D2B2C9
:101E800042F00802D2B21A70BD4680BC704700BF53
:101E900080B483B000AF0346FB7146F27643C4F2D0
:101EA0000003FA791A7007F10C07BD4680BC704731
:101EB00080B487B000AFF860B9601346FB714FF093
:101EC0000003FB7513E0FB7D4FEA8302FB681344BC
:101ED000FA7D4FEA8201BA680A4412681A60FB79F7
:101EE00003F1FF33FB71FB7D03F10103FB75FB790C
:101EF000002BE8D107F11C07BD4680BC704700BF2E
:101F000080B485B000AF78600B46FB704FF00003E3
:101F1000FB730FE0FB7B4FEA83027B6813444FF0B7
:101F200000021A60FB7803F1FF33FB70FB7B03F1C7
:101F30000103FB73FB78002BECD107F11407BD46BE
:101F400080BC704780B582B000AFFEF799FB0346B6
:101F5000FB7144F2A633C4F2000344F2A632C4F289
:101F600000021278D2B242F01002D2B21A7044F2D9
:101F7000B633C4F2000344F2B632C4F2000212785F
:101F8000D2B242F01002D2B21A70FB791846FEF7B4
:101F90007BFB4CF28073C4F200034CF28072C4F2FB
:101FA00000021278D2B202F0FE021A704CF288736C
:101FB000C4F200034FF03F021A704CF28C73C4F26B
:101FC00000034FF03F021A704CF20000C4F2000010
:101FD0004FF08001FFF794FF4CF20020C4F20000A4
:101FE0004FF08001FFF78CFF4CF20040C4F200007C
:101FF0004FF04001FFF784FF4CF20050C4F20000A4
:102000004FF04001FFF77CFF4CF20070C4F200007B
:102010004FF01001FFF774FF4CF20060C4F20000B3
:102020004FF04001FFF76CFF4CF20040C4F200009B
:1020300043F64461C0F200014FF00802FFF738FF99
:102040004CF20050C4F2000043F64461C0F20001BB
:102050004FF00802FFF72CFF4CF20000C4F2000022
:1020600043F66461C0F200014FF00102FFF720FF68
:102070004CF20020C4F2000043F66861C0F2000197
:102080004FF00102FFF714FF4CF20070C4F20000A1
:1020900043F66C61C0F200014FF00102FFF708FF48
:1020A0004CF20060C4F2000043F67061C0F200011F
:1020B0004FF00402FFF7FCFE4CF28C73C4F20003F5
:1020C0004FF000021A704FF0010000F01DF94FF0C0
:1020D000010000F02BF94FF0020000F051F94FF031
:1020E000000000F069F94CF28473C4F200034FF071
:1020F000FF321A7007F10807BD4680BD80B582B077
:1021000000AFFEF7BDFA0346FB7144F2A633C4F2FA
:10211000000344F2A632C4F200021278D2B242F0B6
:102120001002D2B21A7044F2B633C4F2000344F281
:10213000B632C4F200021278D2B242F01002D2B229
:102140001A70FB791846FEF79FFA4CF28873C4F2B6
:1021500000034FF03F021A704CF28073C4F2000388
:102160004CF28072C4F200021278D2B242F0010244
:10217000D2B21A7007F10807BD4680BD80B500AF26
:1021800048F27643C1F6FF731B78002B08D1FFF7A6
:10219000D9FE48F27643C1F6FF734FF001021A7080
:1021A000FFF7ACFF80BD00BF80B582B000AFFEF787
:1021B00067FA0346FB7144F2A633C4F2000344F20B
:1021C000A632C4F200021278D2B202F0EF021A7004
:1021D00044F2B633C4F2000344F2B632C4F2000251
:1021E0001278D2B202F0EF021A70FB791846FEF7AD
:1021F0004BFA4CF28073C4F200034CF28072C4F2CA
:1022000000021278D2B202F0FE021A7007F108073B
:10221000BD4680BD80B483B000AF0346FB714CF275
:10222000B073C4F20003FA791A7007F10C07BD46C7
:1022300080BC704780B485B000AF0346FB71FB796A
:10224000012B1CD14CF2A873C4F200031B783B7223
:102250004CF2A973C4F200031B787B724CF2AA7390
:10226000C4F200031B78BB72BB7A5BB2002B02DAAC
:102270004FF0FF0301E04FF00003FB722BE0FB790E
:10228000002B1CD14CF2AC73C4F200031B783B72E0
:102290004CF2AD73C4F200031B787B724CF2AE7348
:1022A000C4F200031B78BB72BB7A5BB2002B02DA6C
:1022B0004FF0FF0301E04FF00003FB720BE04FF023
:1022C00000033B724FF000037B724FF00003BB72C0
:1022D0004FF0FF33FB72FB7A4FEA0322BB7A42EAEC
:1022E00003034FEA03227B7A42EA03034FEA032205
:1022F0003B7A42EA0303FB60FB68184607F11407C8
:10230000BD4680BC704700BF80B483B000AF0346B9
:10231000FB714CF29873C4F20003FA7902F01F02C9
:102320001A7007F10C07BD4680BC704780B483B0BB
:1023300000AF0346FB714CF29C73C4F20003FA79C0
:1023400002F00F021A7007F10C07BD4680BC7047FF
:1023500080B483B000AF0346FB714CF29073C4F2BB
:102360000003FA7902F007024FEA0212D2B242F0F9
:102370000702D2B21A7007F10C07BD4680BC704745
:1023800080B483B000AF0346FB714CF29473C4F287
:1023900000034CF29472C4F200021278D2B202F03E
:1023A000FC02F97942EA0102D2B21A7007F10C0775
:1023B000BD4680BC704700BF80B483B000AF034609
:1023C000FB714CF29473C4F200034CF29472C4F2A9
:1023D00000021278D2B202F0F302F97942EA010265
:1023E000D2B21A7007F10C07BD4680BC704700BF1F
:1023F00080B500AF00F042F840F29D00C0F200004E
:1024000000F008F84FF0020000F018F800F02AF889
:1024100080BD00BF80B485B000AF78604EF6085331
:10242000CEF200031B68FB60FB6803F1B0037A681F
:102430001A6007F11407BD4680BC704780B483B0B2
:1024400000AF0346FB714EF21C43CEF20003FA7953
:102450004FEA4212D2B21A7007F10C07BD4680BC97
:10246000704700BF80B400AF4EF20013CEF20003FD
:102470004FF080521A60BD4680BC704780B400AFF8
:102480004EF28013CEF200034FF080521A60BD4628
:1024900080BC704780B584B002AFF871B971BA8062
:1024A0007B8048F23533C1F6FF734FF000021A709B
:1024B00048F23533C1F6FF731978FA79BB794FF0DA
:1024C000000000904FF000000190084611461A46A7
:1024D0004FF00003FEF7EAF948F23533C1F6FF7317
:1024E0001978BA887B88084611461A46FEF778F9AB
:1024F00048F23533C1F6FF731B7818464FF00201DE
:10250000FEF736F948F23533C1F6FF731B781846EB
:1025100007F10807BD4680BD80B500AF00F042F866
:1025200040F2E100C0F2000000F008F84FF00100B6
:1025300000F018F800F02AF880BD00BF80B485B024
:1025400000AF78604EF60853CEF200031B68FB60C4
:10255000FB6803F140037A681A6007F11407BD466F
:1025600080BC704780B483B000AF0346FB714EF26D
:102570000043CEF20003FA794FEA4212D2B21A7047
:1025800007F10C07BD4680BC704700BF80B400AFA8
:102590004EF20013CEF200034FF001021A60BD4666
:1025A00080BC704780B400AF4EF28013CEF20003BF
:1025B0004FF001021A60BD4680BC704780B584B000
:1025C00002AFF871B971BA807B8048F23633C1F638
:1025D000FF734FF001021A7048F23633C1F6FF73F1
:1025E0001978FA79BB794FF0000000904FF00000A5
:1025F0000190084611461A464FF00003FEF756F9BF
:1026000048F23633C1F6FF731978BA887B880846DA
:1026100011461A46FEF7E4F848F23633C1F6FF7366
:102620001B7818464FF00201FEF7A2F848F2363345
:10263000C1F6FF731B78184607F10807BD4680BD39
:1026400080B500AF44F60073C4F2000344F6007294
:10265000C4F200021278D2B202F001021A7044F6FB
:102660000173C4F2000344F60172C4F2000212784E
:10267000D2B202F0F1021A7044F60173C4F2000300
:1026800044F60172C4F200021278D2B242F00102A2
:10269000D2B21A7044F60A73C4F2000344F60A7206
:1026A000C4F200021278D2B202F0CF021A7044F6DD
:1026B0000A73C4F2000344F60A72C4F200021278EC
:1026C000D2B242F03002D2B21A7044F60A73C4F2A7
:1026D000000344F60A72C4F200021278D2B202F089
:1026E000F0021A7044F60A73C4F2000344F60A7248
:1026F000C4F200021278D2B242F00F02D2B21A70C3
:102700004FF0FF0000F06EF84FF0000000F048F8C6
:1027100080BD00BF80B400AF44F2A333C4F2000315
:1027200044F2A332C4F200021278D2B242F00102A3
:10273000D2B21A7044F2B333C4F2000344F2B3329B
:10274000C4F200021278D2B242F00102D2B21A7080
:1027500044F60073C4F2000344F60072C4F20002AF
:102760001278D2B242F00102D2B21A70BD4680BCD9
:10277000704700BF80B500AF48F27743C1F6FF73E2
:102780001B78002B08D1FFF75BFF48F27743C1F6B7
:10279000FF734FF001021A70FFF7BCFF80BD00BF4E
:1027A00080B483B000AF0346FB7144F60873C4F2F3
:1027B0000003FA791A7007F10C07BD4680BC704718
:1027C00080B400AF44F60473C4F200031B8844F6DF
:1027D0000673C4F200031B889BB2DBB21846BD46E9
:1027E00080BC704780B483B000AF0346FB7144F6F1
:1027F0000273C4F20003FA791A8007F10C07BD4690
:1028000080BC704780B400AF44F2A233C4F200032E
:1028100044F2A232C4F200021278D2B242F01002A4
:10282000D2B21A7044F2B233C4F2000344F2B232AC
:10283000C4F200021278D2B242F01002D2B21A7080
:10284000BD4680BC704700BF80B485B000AF7860E3
:1028500039607B68BB604FF00003FB6009E0BA6839
:10286000FB6813444FF000021A70FB6803F1010388
:10287000FB60FA683B689A42F1D307F11407BD4642
:1028800080BC704780B489B000AFF860B9607A60EE
:10289000FB687B61BB68BB614FF00003FB610BE031
:1028A0007A69FB691344B969FA690A4412781A70A3
:1028B000FB6903F10103FB61FA697B689A42EFD37C
:1028C00007F12407BD4680BC704700BF80B582B0C9
:1028D00000AF7860396078684FF000013A6801F025
:1028E000FDF907F10807BD4680BD00BF80B584B083
:1028F00000AFF860B9607A60F868B9687A6801F08A
:1029000025F907F11007BD4680BD00BF80B487B030
:1029100000AF786039604FF00003FB604FF00003B8
:10292000BB602CE0BB684FEA83027B6813441B68E2
:102930003B613B69FB753B6923F0FF033B6117E09B
:10294000FB684FEA43023B6813441B781A463B6915
:102950001344FA684FEA42013A680A4452781A70FE
:10296000FB6803F10103FB60FB7D03F1FF33FB75A3
:10297000FB7D002BE4D1BB6803F10103BB60BB68A6
:102980001D2BCFD907F11C07BD4680BC704700BF87
:1029900080B500AF44F28003C4F200034FF004029C
:1029A0001A8044F28203C4F200034FF018021A7036
:1029B00044F28403C4F200034FF013021A8044F27D
:1029C0008603C4F200034FF018021A7044F2880321
:1029D000C4F200034FF02F021A8044F28A03C4F2BB
:1029E00000034FF018021A7044F28C03C4F2000383
:1029F0004FF033021A8044F28E03C4F200034FF00A
:102A000018021A7044F29003C4F2000340F23562D7
:102A10001A8044F29203C4F200034FF018021A70B5
:102A200044F20010C4F2000040F25C71C4F60001F0
:102A30004FF00402FFF75AFF44F20033C4F20003E0
:102A40004FF002021A7044F20003C4F200034FF088
:102A500008021A7044F20023C4F200034FF003028C
:102A60001A7044F2A163C4F2000340F20812C4F6E3
:102A700000121278D2B21A7044F22223C4F2000378
:102A80004FF010021A8044F22023C4F2000341F2F6
:102A900051021A8040F6B830FDF7EAFD44F2040313
:102AA000C4F200034FF003021A7044F20503C4F2AB
:102AB00000034FF001021A7044F20403C4F2000351
:102AC0004FF000021A7044F20403C4F200034FF006
:102AD00007021A7044F20603C4F200034FF000022A
:102AE0001A7044F20803C4F200034FF048021A704F
:102AF00044F20403C4F200034FF000021A7044F2DF
:102B00000103C4F200034FF002021A7044F20B03F7
:102B1000C4F200034FF004021A7044F2A233C4F26C
:102B2000000344F2A232C4F200021278D2B242F0A0
:102B30001F02D2B21A7044F2A133C4F2000344F26D
:102B4000A132C4F200021278D2B242F00102D2B233
:102B50001A7080BD80B400AF44F2AA33C4F20003FF
:102B60004FF444721A8045F26D13C4F200034FF023
:102B700020021A7045F62003C4F200034FF01E0233
:102B80001A7045F62403C4F200034FF01E021A70B7
:102B900045F62803C4F200034FF01E021A7045F6F2
:102BA0002C03C4F200034FF01E021A7045F6001306
:102BB000C4F200036FF03F021A7045F60313C4F22B
:102BC00000034FF00C021A7045F60813C4F200031C
:102BD0006FF03F021A7045F60B13C4F200034FF07A
:102BE0000C021A7045F60033C4F200034FF00202E3
:102BF0001A7045F67603C4F200034FF044021A70CF
:102C0000BD4680BC704700BF80B483B000AF0346B0
:102C1000FB71FB79012B18D8FA7943F68063C0F277
:102C2000000353F82220F97943F68063C0F20003D1
:102C300053F821301978F87943F68863C0F200031D
:102C40001B5C41EA0303DBB2137007F10C07BD46BE
:102C500080BC704780B483B000AF0346FB71FB7942
:102C6000012B1BD8FA7943F68063C0F2000353F8B6
:102C70002220F97943F68063C0F2000353F8213033
:102C80001978F87943F68863C0F200031B5C6FEA99
:102C90000303DBB201EA0303DBB2137007F10C0795
:102CA000BD4680BC704700BF80B582B000AF72B631
:102CB00044F60003C4F200034FF000021A70FFF75D
:102CC00067FE44F60003C4F200036FF03F021A707F
:102CD00047F21003C4F200034FF000021A7047F2EB
:102CE0002003C4F200034FF000021A7045F67C0383
:102CF000C4F200034FF001021A7044F2E863C4F218
:102D0000000344F2E862C4F200021278D2B242F048
:102D10000102D2B21A704FF00003FB702FE0FA7874
:102D200013464FEA430313444FEA43031A4643F65C
:102D30008C63C0F2000313447B607B681A78597877
:102D40004FEA012141EA020299784FEA014141EA42
:102D50000202DB784FEA036343EA02031A467B6808
:102D600019795B794FEA032343EA01039BB21046CA
:102D70001946FFF7ABFDFB7803F10103FB70FB780D
:102D8000082BCCD94FF0904040F27801C4F60001F6
:102D9000FFF7BCFD45F20020C4F2000040F24C7188
:102DA000C4F600014FF00702FFF76CFD45F2082062
:102DB000C4F200004FF00701FFF746FD45F2102076
:102DC000C4F200004FF00701FFF73EFD45F2182066
:102DD000C4F200004FF00701FFF736FD45F2202056
:102DE000C4F200004FF00701FFF72EFD45F2282046
:102DF000C4F2000040F25471C4F600014FF0070223
:102E0000FFF740FD45F23020C4F200004FF007010B
:102E1000FFF71AFD45F26020C4F200004FF00601F2
:102E2000FFF712FD45F27820C4F200004FF00701D1
:102E3000FFF70AFD47F20060C4F200004FF0040102
:102E4000FFF744FD47F20860C4F200004FF00401B0
:102E5000FFF73CFD45F20303C4F2010345F2030210
:102E6000C4F201021278D2B242F00202D2B21A7057
:102E700045F21303C4F2010345F21302C4F2010246
:102E80001278D2B242F00202D2B21A7044F2A033E7
:102E9000C4F2000344F2A032C4F200021278D2B2AB
:102EA00042F04002D2B21A7044F2C233C4F20003BC
:102EB00044F2C232C4F200021278D2B242F01002DE
:102EC000D2B21A7045F20010C4F2000040F228712C
:102ED000C4F600014FF00A02FFF708FD45F2221088
:102EE000C4F2000040F23471C4F600014FF0080251
:102EF000FFF7FCFC45F25210C4F2000040F23C71B6
:102F0000C4F600014FF00802FFF7F0FC45F2621032
:102F1000C4F2000040F24471C4F600014FF0080210
:102F2000FFF7E4FCFFF716FE44F2B030C4F20000F5
:102F300044F2A031C4F200014FF00C02FFF7D6FCBE
:102F400044F2B033C4F2000344F2B032C4F20002DF
:102F50001278D2B202F0FD021A7007F10807BD46DE
:102F600080BD00BF2DE9F04F8BB006460F4600F044
:102F70004FF848F23734C1F6FF7494F90030B3F1DA
:102F8000FF3F8046894631D03046394600F02EF961
:102F9000054600282AD14FF0000A4FF0000B3046BA
:102FA000394652465B4600F05BFDF8B1247843F6A3
:102FB000C463C0F20003089501930123CDE90267C1
:102FC0000093CDE90467B4B15046594652465B467A
:102FD00000F0FEFB022CCDE906010ED100F0B0FDA1
:102FE00021230360089B73B9DDE906894046494601
:102FF0000BB0BDE8F08FCDE906AB684600F004F9F0
:103000000028EFD1EAE700F09BFD089B0360EBE7A7
:1030100040F2000C0B46C7F6F07C02462DE9F04763
:10302000664601EA0C0C0446B4450D4680468946C6
:1030300000F0BE80002940F38C805FEA215800F048
:103040009680A8F57E7823F07F43A8F1070823F443
:10305000700318F0010F43F480136AD1D10F4FF0C1
:10306000000C01EB43035200654660464FF400112B
:103070004418D60F52009C420CF1010C02DC1B1BC1
:103080006D1860184908BCF1160F06EB4303EFD129
:1030900000244FF00041A246264613E0834214BFAD
:1030A0000027012794458CBF002707F001076FB95F
:1030B000013407464908D00F5200202C00EB43038F
:1030C0001BD03846984201EB060CE7DA0CF00047BB
:1030D0000CEB0106B7F1004F27D007461B1A9445A9
:1030E000CCEB020288BF013B01348A44D00F49086F
:1030F0005200202C00EB4303E3D113431ED14FEACF
:103100005A0A4FEA680115F0010F18BF4AF0004A49
:103110000905544601F17E5101F5C00101EB65033B
:103120001D4620462946BDE8F087002ED5DB471C0A
:10313000D4E7D10F520001EB43038FE7BAF1FF3F11
:103140001CBF0AF001039A44D9D101354FF0000A9F
:10315000D7E721F0004C5CEA000CE2D000293AD11C
:103160008846D30AA8F115085205002BF9D013F4AC
:1031700080112DD15B00013113F4801FFAD0C1F111
:10318000200008F1010832FA00F0C1EB08080343FF
:10319000A8F57E788A40A8F1070823F07F4318F04D
:1031A000010F23F4700343F480133FF457AFC0E7DB
:1031B00002460B4600F0E2F902460B46204629463D
:1031C00000F02AF804460D4620462946BDE8F0875F
:1031D00020200021D5E702460B4600F01BF80246EE
:1031E0000B4600F0F5FA04460D469AE702464042C7
:1031F000104321F0004141EAD070C0F1FE4000F5DB
:103200007000C00F704700BF0020704781F0004180
:1032100002E000BF83F0004330B54FEA41044FEABB
:10322000430594EA050F08BF90EA020F1FBF54EA56
:10323000000C55EA020C7FEA645C7FEA655C00F0F2
:10324000E2804FEA5454D4EB5555B8BF6D420CDDC3
:103250002C4480EA020281EA030382EA000083EA46
:10326000010180EA020281EA0303362D88BF30BDE6
:1032700011F0004F4FEA01314FF4801C4CEA11313C
:1032800002D0404261EB410113F0004F4FEA03339B
:103290004CEA133302D0524263EB430394EA050F26
:1032A00000F0A780A4F10104D5F1200E0DDB02FA95
:1032B0000EFC22FA05F2801841F1000103FA0EF229
:1032C000801843FA05F359410EE0A5F120050EF1EF
:1032D000200E012A03FA0EFC28BF4CF0020C43FA20
:1032E00005F3C01851EBE37101F0004507D54FF02D
:1032F000000EDCF1000C7EEB00006EEB0101B1F57D
:10330000801F1BD3B1F5001F0CD349085FEA3000C2
:103310004FEA3C0C04F101044FEA445212F5800FCD
:1033200080F09A80BCF1004F08BF5FEA500C50F16A
:10333000000041EB045141EA050130BD5FEA4C0C4D
:10334000404141EB010111F4801FA4F10104E9D1D6
:1033500091F0000F04BF01460020B1FA81F308BFCD
:103360002033A3F10B03B3F120020CDA0C3208DD99
:1033700002F1140CC2F10C0201FA0CF021FA02F174
:103380000CE002F11402D8BFC2F1200C01FA02F1E4
:1033900020FA0CFCDCBF41EA0C019040E41AA2BF09
:1033A00001EB0451294330BD6FEA04041F3C1CDAD1
:1033B0000C340EDC04F11404C4F1200220FA04F0F1
:1033C00001FA02F340EA030021FA04F345EA03019B
:1033D00030BDC4F10C04C4F1200220FA02F001FA5D
:1033E00004F340EA0300294630BD21FA04F02946DF
:1033F00030BD94F0000F83F4801306BF81F4801178
:103400000134013D4EE77FEA645C18BF7FEA655CEA
:1034100029D094EA050F08BF90EA020F05D054EABC
:10342000000C04BF1946104630BD91EA030F1EBFC1
:103430000021002030BD5FEA545C05D140004941C5
:1034400028BF41F0004130BD14F580043CBF01F5B8
:10345000801130BD01F0004545F0FE4141F470019E
:103460004FF0000030BD7FEA645C1ABF1946104679
:103470007FEA655C1CBF0B46024650EA013406BF7A
:1034800052EA033591EA030F41F4002130BD00BF39
:1034900090F0000F04BF0021704730B54FF48064F6
:1034A00004F132044FF000054FF0000150E700BF77
:1034B00090F0000F04BF0021704730B54FF48064D6
:1034C00004F1320410F0004548BF40424FF00001C3
:1034D0003EE700BF42004FEAE2014FEA31014FEA06
:1034E00002701FBF12F07F4393F07F4F81F0605155
:1034F000704792F0000F14BF93F07F4F704730B5C4
:103500004FF4607401F0004521F0004120E700BF56
:1035100050EA010208BF704730B54FF000050AE0DD
:1035200050EA010208BF704730B511F0004502D5DE
:10353000404261EB41014FF4806404F132045FEAE0
:10354000915C3FF4DCAE4FF003025FEADC0C18BF85
:1035500003325FEADC0C18BF033202EBDC02C2F17B
:10356000200300FA03FC20FA02F001FA03FE40EA0D
:103570000E0021FA02F11444C1E600BF70B54FF00D
:10358000FF0C4CF4E06C1CEA11541DBF1CEA1355EF
:1035900094EA0C0F95EA0C0F00F0DEF82C4481EA57
:1035A000030621EA4C5123EA4C5350EA013518BF77
:1035B00052EA033541F4801143F4801338D0A0FB64
:1035C00002CE4FF00005E1FB02E506F00042E0FB11
:1035D00003E54FF00006E1FB03569CF0000F18BF17
:1035E0004EF0010EA4F1FF04B6F5007F64F54074BF
:1035F00004D25FEA4E0E6D4146EB060642EAC62152
:1036000041EA55514FEAC52040EA5E504FEACE2EBE
:10361000B4F1FD0C88BFBCF5E06F1ED8BEF1004FC1
:1036200008BF5FEA500E50F1000041EB045170BD3D
:1036300006F0004646EA010140EA020081EA030181
:10364000B4EB5C04C2BFD4EB0C0541EA045170BD7D
:1036500041F480114FF0000E013C00F3AB8014F1F7
:10366000360FDEBF002001F0004170BDC4F1000440
:10367000203C35DA0C341BDC04F11404C4F12005C1
:1036800000FA05F320FA04F001FA05F240EA02001C
:1036900001F0004221F0004110EBD37021FA04F652
:1036A00042EB06015EEA430E08BF20EAD37070BD0C
:1036B000C4F10C04C4F1200500FA04F320FA05F06B
:1036C00001FA04F240EA020001F0004110EBD3706D
:1036D00041F100015EEA430E08BF20EAD37070BDDD
:1036E000C4F1200500FA05F24EEA020E20FA04F3B6
:1036F00001FA05F243EA020321FA04F001F0004165
:1037000021FA04F220EA020000EBD3705EEA430ED5
:1037100008BF20EAD37070BD94F0000F0FD101F004
:103720000046400041EB010111F4801F08BF013C3D
:10373000F7D041EA060195F0000F18BF704703F07B
:103740000046520043EB030313F4801F08BF013D02
:10375000F7D043EA0603704794EA0C0F0CEA1355BE
:1037600018BF95EA0C0F0CD050EA410618BF52EA78
:103770004306D1D181EA030101F000414FF000007E
:1037800070BD50EA410606BF1046194652EA43068C
:1037900019D094EA0C0F02D150EA013613D195EA00
:1037A0000C0F05D152EA03361CBF104619460AD148
:1037B00081EA030101F0004141F0FE4141F4700152
:1037C0004FF0000070BD41F0FE4141F4780170BD42
:1037D00070B54FF0FF0C4CF4E06C1CEA11541DBFA7
:1037E0001CEA135594EA0C0F95EA0C0F00F0A7F8A9
:1037F000A4EB050481EA030E52EA03354FEA0131D6
:1038000000F088804FEA03334FF0805545EA1313E8
:1038100043EA12634FEA022245EA111545EA1065B0
:103820004FEA00260EF000419D4208BF964244F147
:10383000FD0404F5407402D25B084FEA3202B61A66
:1038400065EB03055B084FEA32024FF480104FF43A
:10385000002CB6EB020E75EB030E22BFB61A7546AE
:1038600040EA0C005B084FEA3202B6EB020E75EB41
:10387000030E22BFB61A754640EA5C005B084FEAA9
:103880003202B6EB020E75EB030E22BFB61A754676
:1038900040EA9C005B084FEA3202B6EB020E75EB81
:1038A000030E22BFB61A754640EADC0055EA060E42
:1038B00018D04FEA051545EA16754FEA06164FEA85
:1038C000C30343EA52734FEAC2025FEA1C1CC0D131
:1038D00011F4801F0BD141EA00014FF000004FF0BE
:1038E000004CB6E711F4801F04BF01430020B4F17F
:1038F000FD0C88BFBCF5E06F3FF6AFAEB5EB030C37
:1039000004BFB6EB020C5FEA500C50F1000041EB33
:10391000045170BD0EF0004E4EEA113114EB5C0400
:10392000C2BFD4EB0C0541EA045170BD41F48011D3
:103930004FF0000E013C90E645EA060E8DE60CEADB
:10394000135594EA0C0F08BF95EA0C0F3FF43BAFF8
:1039500094EA0C0F0AD150EA01347FF434AF95EAAF
:103960000C0F7FF425AF104619462CE795EA0C0F93
:1039700006D152EA03353FF4FDAE1046194622E760
:1039800050EA410618BF52EA43067FF4C5AE50EA3A
:1039900041047FF40DAF52EA43057FF4EBAE12E72A
:1039A0004FF0FF3C06E000BF4FF0010C02E000BF0B
:1039B0004FF0010C4DF804CD4FEA410C7FEA6C5CEE
:1039C0004FEA430C18BF7FEA6C5C1BD001B050EA91
:1039D000410C0CBF52EA430C91EA030F02BF90EA7C
:1039E000020F0020704710F1000F91EA030F58BF3B
:1039F000994208BF90422CBFD8176FEAE37040F09D
:103A0000010070474FEA410C7FEA6C5C02D150EA3A
:103A1000013C07D14FEA430C7FEA6C5CD6D152EAF5
:103A2000033CD3D05DF8040B704700BF84461046BA
:103A300062468C461946634600E000BF01B5FFF7B9
:103A4000B7FF002848BF10F1000F01BD4DF808ED89
:103A5000FFF7F4FF0CBF012000205DF808FB00BF5A
:103A60004DF808EDFFF7EAFF34BF012000205DF8B4
:103A700008FB00BF4DF808EDFFF7E0FF94BF012001
:103A800000205DF808FB00BF4DF808EDFFF7CEFF02
:103A900094BF012000205DF808FB00BF4DF808ED41
:103AA000FFF7C4FF34BF012000205DF808FB00BF12
:103AB0004FEA410212F5001215D211D56FF4787356
:103AC000B3EB625212D94FEAC12343F0004343EAF9
:103AD000505311F0004F23FA02F018BF40427047D4
:103AE0004FF00000704750EA013005D111F000405E
:103AF00008BF6FF0004070474FF00000704700BFF4
:103B00004A0011D212F5001211D20DD56FF478735C
:103B1000B3EB62520ED44FEAC12343F0004343EAB1
:103B2000505323FA02F070474FF00000704750EAFC
:103B3000013002D14FF0FF3070474FF00000704766
:103B400048F23833C1F6FF7318687047032A2DE92D
:103B5000F0070BD83AB1002311F803C000F803C0F6
:103B600001339342F8D1BDE8F007704782180C4644
:103B7000034603E014F8011C03F8011C03F00306DC
:103B80001946A44601330134002EF3D11CF003047E
:103B9000634608BFC1EB020C68D06542C4F1040A59
:103BA0000CEB050733464FEACA0A5CF805604FEA9A
:103BB000C408551A08E057F8044F264604FA0AF4D8
:103BC00049EA0404CC5004335C18032D26FA08F9A2
:103BD000A5F104050CEB0306EDDC002302E0F15C2B
:103BE000E154013319199142F9D3BCE753F8404C21
:103BF00041F8404C53F83C4C41F83C4C53F8384C9D
:103C000041F8384C53F8344C41F8344C53F8304CAC
:103C100041F8304C53F82C4C41F82C4C53F8284CBC
:103C200041F8284C53F8244C41F8244C53F8204CCC
:103C300041F8204C53F81C4C41F81C4C53F8184CDC
:103C400041F8184C53F8144C41F8144C53F8104CEC
:103C500041F8104C53F80C4C41F80C4C53F8084CFC
:103C600041F8084C53F8044C41F8044C1C460D46EE
:103C700040334031BCF13F0FACF1400CB6DC214683
:103C80002B46541B0FE051F8105C43F8105C51F8C0
:103C90000C5C43F80C5C51F8085C43F8085C51F884
:103CA000045C43F8045C0F2C0D469C4601F11001A6
:103CB00003F11003A4F11004E5DCCCEB02010023B6
:103CC00003E0EC584CF8034004335E19032903EB7E
:103CD0000C04A1F10401F4DC7FE700BF032AC9B2A0
:103CE00030B407D822B10023C15401339342FBD131
:103CF00030BC704700EB020C034601E003F8011CE6
:103D000003F003041A460133002CF7D14FF00133BE
:103D1000C2EB0C0403FB01F31FE042F8403C42F805
:103D20003C3C42F8383C42F8343C42F8303C42F8E3
:103D30002C3C42F8283C42F8243C42F8203C42F813
:103D40001C3C42F8183C42F8143C42F8103C42F843
:103D50000C3C42F8083C42F8043C154640323F2CEB
:103D6000A4F14004D9DC2A46C5EB0C0407E042F874
:103D7000103C42F80C3C42F8083C42F8043C154622
:103D800010320F2CA4F11004F1DC2A46C5EB0C050F
:103D900001E042F8043C14460432032DA5F1040569
:103DA000F7DC01E004F8011B6445FBD3A0E700BF8A
:103DB00008B500F017F8074800B10068064901B1DE
:103DC00009680022FCF7AEF9044B0BB1AFF3008099
:103DD000FEE700BF0000000000000000000000003F
:103DE000FEE7000070B543F6DC6643F6DC65C0F222
:103DF0000006C0F20005761BB61006D0002455F868
:103E0000243001349847A642F9D843F6DC6543F6DE
:103E1000E466C0F20005C0F20006761B00F058F818
:103E2000B61006D0002455F8243001349847A64235
:043E3000F9D870BD90
:103E340030313233343536373839414243444546DC
:103E4400601700262113802501008026020010033C
:103E5400000010A6000081260400A026032080266E
:103E640000000000000000000000000021F805012F
:103E74004210864001F8050100000000035B004089
:103E8400035B004040400000004F00400B00105115
:103E940000401000305100402000C051004010008C
:103EA400F0510040100000000140001000140140D7
:103EB400000800400140000A004C014000020000DC
:103EC400737172740000000043000000F8B500BF75
:103ED400F8BC08BC9E4670478100000071030000D6
:103EE400F8B500BFF8BC08BC9E4670476D000000E2
:103EF40000000000083F00000881FF1F28030000A5
:043F04008000000039
:103F08000000000000000442C800CA00CD00CF0035
:103F1800D200D400D700D900DC00DE00E000E300C6
:103F2800E500E800EA00ED00EF00F100F400F6001B
:103F3800F900FB00FD00000102010401070109016D
:103F48000B010E01100112011501170119011B01C6
:103F58001E01200122012401260128012B012D0127
:103F68002F01310133013501370139013B013D0191
:103F78003F01410143014501470149014B014C0102
:103F88004E015001520154015501570159015B017D
:103F98005C015E015F016101630164016601670103
:103FA80069016A016C016D016E0170017101720194
:103FB800740175017601770178017A017B017C0132
:103FC8007D017E017F0180018101820183018301DE
:103FD800840185018601870187018801890189019A
:103FE8008A018B018B018C018C018D018D018D0162
:103FF8008E018E018E018F018F018F018F0190013B
:104008009001900190019001900190019001900120
:10401800900190018F018F018F018F018E018E0118
:104028008E018D018D018D018C018C018B018B011D
:104038008A01890189018801870187018601850133
:104048008401830183018201810180017F017E0156
:104058007D017C017B017A01780177017601750188
:1040680074017201710170016E016D016C016A01C8
:104078006901670166016401630161015F015E0115
:104088005C015B015901570155015401520150016E
:104098004E014C014B0149014701450143014101D2
:1040A8003F013D013B013901370135013301310140
:1040B8002F012D012B0128012601240122012001B5
:1040C8001E011B01190117011501120110010E0132
:1040D8000B0109010701040102010001FD00FB00B9
:1040E800F900F600F400F100EF00ED00EA00E80046
:1040F800E500E300E000DE00DC00D900D700D400D2
:10410800D200CF00CD00CA00006CDC0280BB0000EA
:10411800300000000000C05D0100000066000000E3
:10412800011119975205021800000000FFFFFF0156
:104138003C83FF1F0000000000000000000000009A
:104148000000000000000000000000000000000067
:1041580000000000CC3E000000000000000000004D
:104168000000000000000000000000000000000047
:104178000000000000000000000000000000000037
:104188000000000000000000000000000000000027
:104198000000000000000000000000000000000017
:1041A8000000000000000000000000000000000007
:1041B80000000000000000000000000000000000F7
:1041C80000000000000000000000000000000000E7
:1041D80000000000000000000000000000000000D7
:1041E80000000000000000000000000000000000C7
:1041F80000000000000000000000000000000000B7
:1042080000000000000000000000000000000000A6
:104218000000000000000000000000000000000096
:0842280000000000000000008E
:040000030000034DA9
:00000001FF
