:1000000000800020550100004D0100004D0100005E
:1000100080B51448144B21E05C689968DD688C4217
:100020000CD0002205E0A6180832D6E9008941E983
:1000300002898C460831AA42F5D101E004EB050C97
:100040001C696146002204E008320026002741E9CD
:1000500002670831A242F7D1143301380028DBD1FE
:1000600002F02EFC01000000C029000048F25833C5
:10007000C1F6FF731A780AB901201870704700BFE3
:1000800048F20810C1F6FF7008B503682BB140F2C2
:100090000003C0F2000303B1984708BD80B500AF6C
:1000A00001F03CFE01F050FF00F0E6FA42F6441089
:1000B000C0F2000000F0F6FA4EF20013CEF2000398
:1000C0004FF000521A6000F031FE00F04DFE00F0DB
:1000D000ADF84FF0000001F06BFD01F08DFC48F22F
:1000E0009833C1F6FF7348F22C12C1F6FF721A6002
:1000F00001F04AFE01F0AEFE62B600E000BF01F082
:10010000F5FC03461A4648F26233C1F6FF731A70D3
:1001100048F26233C1F6FF731B78562BEED148F2DA
:100120005C33C1F6FF731B881BB24FEA23239BB2DB
:10013000DBB2184601F000FD48F25C33C1F6FF73F4
:100140001B88DBB2184601F0F7FCD8E780B400AF9B
:10015000FEE700BF054B1C7844F001041C70044B03
:100160001A78D2B2034B1A70FFF752FFE8460040EC
:10017000F8460040BC76004080B582B000AF4EF635
:100180000C53CEF2000340F20042C0F2FA521A6061
:100190004EF61453CEF200034EF61452CEF2000285
:1001A000126842F400721A604FF000037B6019E09D
:1001B00079687B68032B07D87A6840F20003C0F2A5
:1001C000000353F8223003E040F24D13C0F2000365
:1001D00048F20002C1F6FF7242F821307B6803F159
:1001E00001037B607B682F2BE2D947F2BC63C4F22A
:1001F00000031B78DAB248F29C33C1F6FF731A7021
:100200004EF60853CEF2000348F20002C1F6FF7228
:100210001A6002F0D5F848F20013C1F6FF734FF0F0
:1002200000021A6007F10807BD4680BD80B500AF27
:1002300048F28433C1F6FF731B78002B08D100F01D
:100240000BF848F28433C1F6FF734FF001021A70C5
:1002500000F064F880BD00BF80B582B000AF46F208
:100260007643C4F200031B78DBB223F03F03BB717B
:1002700046F27643C4F20003BA7942F01902D2B2D0
:100280001A7046F29643C4F2000346F29642C4F254
:1002900000021278D2B242F00102D2B21A7046F2D3
:1002A0009743C4F2000346F29742C4F20002127868
:1002B000D2B242F00102D2B21A704FF4007000F0D4
:1002C00043F84FF4007000F05DF84FF4807000F0D8
:1002D00069F84FF0010000F075F84FF0040000F0ED
:1002E0009DF800F0D1F80346FB7146F29C43C4F23E
:1002F000000346F29C42C4F200021278D2B242F0ED
:100300001002D2B21A70FB79184600F0C1F800F062
:100310002BF807F10807BD4680BD00BF80B400AFD1
:1003200046F27643C4F2000346F27642C4F200027B
:100330001278D2B26FEA42626FEA5262D2B21A7097
:10034000BD4680BC704700BF80B483B000AF034699
:10035000FB8046F60C03C4F20003FA881A8007F10A
:100360000C07BD4680BC704780B500AF01E000F0CF
:1003700075F800F063F8034603F01003002BF6D184
:1003800080BD00BF80B483B000AF0346FB8046F65B
:100390008C03C4F20003FA881A8007F10C07BD46EB
:1003A00080BC704780B483B000AF0346FB8046F644
:1003B0004C03C4F20003FA881A8007F10C07BD460B
:1003C00080BC704780B483B000AF0346FB7146F237
:1003D0007743C4F2000346F27742C4F20002127877
:1003E000D2B202F0FC021A7046F27743C4F2000364
:1003F00046F27742C4F200021278D2B21146FA797C
:10040000D2B202F0030241EA0202D2B2D2B21A70B0
:1004100007F10C07BD4680BC704700BF80B483B0B5
:1004200000AF0346FB7146F28C43C4F20003FA7935
:100430001A7007F10C07BD4680BC704780B483B0CA
:1004400000AF46F26C43C4F200031B78FB71FB79EA
:10045000184607F10C07BD4680BC704780B400AF5A
:1004600046F6AC03C4F200031B889BB21846BD4697
:1004700080BC7047000000000230800803D000BF3D
:1004800001380046FCD17047EFF3108072B6704718
:1004900080F31088704700BF80B483B000AF03467C
:1004A000FB7101BE07F10C07BD4680BC704700BF61
:1004B00080B582B000AF78600BE048F23833C1F607
:1004C000FF731B681846FFF7D7FF7B68A3F500434F
:1004D0007B607B68B3F5004FEFD848F23033C1F64C
:1004E000FF731B687A6802FB03F31846FFF7C4FF2B
:1004F00007F10807BD4680BD80B582B000AF034656
:10050000FB80FA8848F23433C1F6FF731B7803FB93
:1005100002F31846FFF7B0FF07F10807BD4680BD9C
:1005200080B584B000AF03463960FB714EF60853C6
:10053000CEF200031B68FB60FB791F2B03D94FF041
:100540000000FFF7A9FFFB7903F01F0303F110037D
:100550004FEA8302FB6813441B68BB60FB7903F01E
:100560001F0303F110034FEA8302FB6813443A6848
:100570001A60BB68184607F11007BD4680BD00BF72
:1005800080B582B000AF02460B46FA71BB71BB79F1
:10059000072B03D94FF00000FFF77EFFFB791F2BDD
:1005A00003D94FF00000FFF777FFFB7903F01F033B
:1005B00003F1604303F56443BA794FEA4212D2B2C1
:1005C0001A7007F10807BD4680BD00BF80B500AFB7
:1005D0004FF02800FFF76CFF4FF0030000F00EFA19
:1005E0004FF00500FFF764FF4FF0030000F006FA3C
:1005F0004FF00F00FFF75CFF4FF0030000F0FEF933
:100600004FF00100FFF754FF4FF0020000F0F6F941
:100610004FF00500FFF74CFF4FF0060000F07EF8AA
:100620004FF00E0000F07AF84FF02C0000F076F852
:100630004FF0080000F072F84FF0010000F06EF883
:100640004FF00C0000F06AF84FF0030000F066F87D
:100650004FF00500FFF72CFF80BD00BF80B500AF55
:100660004FF00C0000F05AF848F28533C1F6FF73E2
:100670004FF001021A7080BD80B500AF48F286339A
:10068000C1F6FF731B78002B08D1FFF79FFF48F2DC
:100690008633C1F6FF734FF001021A70FFF7DEFFD9
:1006A00080BD00BF80B584B000AF78604FF001031B
:1006B000BB737B681B78FB730CE0FB7B184600F078
:1006C00011F8BA7B7B6813441B78FB73BB7B03F187
:1006D0000103BB73FB7B002BEFD107F11007BD4675
:1006E00080BD00BF80B584B000AF0346FB7100F051
:1006F00031F8FB794FEA1313FB73FB7B184600F0CC
:1007000027F9FB7903F00F03FB73FB7B184600F01E
:100710001FF907F11007BD4680BD00BF80B584B04A
:1007200000AF0346FB7100F015F8FB794FEA131395
:10073000FB73FB7B184600F061F9FB7903F00F03B4
:10074000FB73FB7B184600F059F907F11007BD4613
:1007500080BD00BF80B582B000AF45F22013C4F267
:10076000000345F22012C4F200021278D2B202F065
:1007700080021A7045F22213C4F200031B78DBB228
:1007800023F00F03FB7145F22213C4F20003FA7940
:1007900042F00F02D2B21A7045F22313C4F20003E2
:1007A0001B78DBB223F00F03FB7145F22313C4F275
:1007B0000003FA791A7045F22413C4F200031B787F
:1007C000DBB223F00F03FB7145F22413C4F20003E4
:1007D000FA791A7045F22013C4F2000345F2201290
:1007E000C4F200021278D2B202F0DF021A7045F2AF
:1007F0002013C4F2000345F22012C4F20002127862
:10080000D2B242F04002D2B21A704FF00000FFF7AD
:1008100073FE45F22013C4F2000345F22012C4F225
:1008200000021278D2B242F01002D2B21A704FF027
:100830000100FFF761FE45F22113C4F200031B78AB
:10084000FB7145F22013C4F2000345F22012C4F2FA
:1008500000021278D2B202F0EF021A704FF00000DC
:10086000FFF74AFEFB7903F00803FB7145F2201302
:10087000C4F2000345F22012C4F200021278D2B290
:1008800042F01002D2B21A704FF00100FFF734FEAE
:1008900045F22013C4F2000345F22012C4F2000214
:1008A0001278D2B202F0EF021A70FB79002BACD1B1
:1008B00045F22013C4F2000345F22012C4F20002F4
:1008C0001278D2B202F0BF021A7045F22013C4F2BD
:1008D000000345F22012C4F200021278D2B202F0F4
:1008E00080021A7045F22213C4F2000345F222126C
:1008F000C4F200021278D2B202F0F0021A7045F28D
:100900002313C4F200031B78DBB223F00F03FB7147
:1009100045F22313C4F20003FA7942F00F02D2B277
:100920001A7045F22413C4F200031B78DBB223F0E3
:100930000F03FB7145F22413C4F20003FA7942F06D
:100940000F02D2B21A7007F10807BD4680BD00BF82
:1009500080B582B000AF0346FB71FFF7FBFE45F2A6
:100960002013C4F2000345F22012C4F200021278F0
:10097000D2B242F02002D2B21A7045F22013C4F271
:10098000000345F22012C4F200021278D2B202F043
:10099000BF021A7045F22013C4F2000345F2201280
:1009A000C4F200021278D2B202F0F0021A7045F2DC
:1009B0002013C4F2000345F22012C4F200021278A0
:1009C000D1B2FA7941EA0202D2B242F01002D2B2B6
:1009D0001A704FF00100FFF78FFD45F22013C4F2AB
:1009E000000345F22012C4F200021278D2B202F0E3
:1009F000EF021A7007F10807BD4680BD80B582B0CE
:100A000000AF0346FB7145F22013C4F2000345F228
:100A10002012C4F200021278D2B202F09F021A70C1
:100A200045F22013C4F2000345F22012C4F2000282
:100A30001278D2B202F0F0021A7045F22013C4F21A
:100A4000000345F22012C4F200021278D1B2FA7902
:100A500041EA0202D2B242F01002D2B21A704FF052
:100A60000100FFF749FD45F22013C4F2000345F2EF
:100A70002012C4F200021278D2B202F0EF021A7011
:100A800007F10807BD4680BD80B500AF4FF00100FB
:100A900000F090F94FF0100000F042FF4FF010000E
:100AA00000F05AFF4FF002004FF4104146F60612D4
:100AB0004FF0090300F0E6FD80BD00BF80B500AF38
:100AC00048F29033C1F6FF731B78002B0FD048F229
:100AD0004433C1F6FF731B7A002B08D100F0D0F825
:100AE00048F29033C1F6FF734FF000021A7048F2DB
:100AF0004433C1F6FF734FF000021A7244F2AA3376
:100B0000C4F2000344F2AA32C4F200021278D2B254
:100B100042F00102D2B21A7044F2C533C4F20003AB
:100B200044F2C532C4F200021278D2B242F001029D
:100B3000D2B21A7044F2BA33C4F2000344F2BA32A9
:100B4000C4F200021278D2B242F00102D2B21A709C
:100B500048F23C33C1F6FF731B78DBB2012B47D15F
:100B600044F2F563C4F2000344F2F562C4F20002F9
:100B70001278D2B242F01002D2B21A7044F2F76385
:100B8000C4F2000344F2F762C4F200021278D2B257
:100B900042F00802D2B21A7045F69103C4F2000383
:100BA00045F69102C4F200021278D2B242F003027A
:100BB000D2B21A704FF00300FFF79EFC44F2F563C7
:100BC000C4F2000344F2F562C4F200021278D2B219
:100BD00002F0EF021A7044F2F763C4F2000344F229
:100BE000F762C4F200021278D2B202F0F7021A7071
:100BF00045F67703C4F2000345F67702C4F200021B
:100C00001278D2B242F00602D2B21A7044F2A13384
:100C1000C4F2000344F2A132C4F200021278D2B24C
:100C200042F00102D2B21A7044F2B133C4F20003AE
:100C300044F2B132C4F200021278D2B242F00102A0
:100C4000D2B21A7044F2A233C4F2000344F2A232C8
:100C5000C4F200021278D2B242F00202D2B21A708A
:100C600044F2B233C4F2000344F2B232C4F20002DE
:100C70001278D2B242F00202D2B21A7080BD00BF26
:100C800080B400AF45F68E03C4F2000348F244324C
:100C9000C1F6FF7212781A7045F68F03C4F2000392
:100CA00048F24432C1F6FF7252781A7045F690034A
:100CB000C4F2000348F24432C1F6FF7292781A700F
:100CC00045F69103C4F2000348F24432C1F6FF72C4
:100CD000D2781A7045F69203C4F2000348F2443207
:100CE000C1F6FF7212791A7045F69A03C4F2000336
:100CF00048F24432C1F6FF7252791A7045F69B03EE
:100D0000C4F2000348F24432C1F6FF7292791A70BD
:100D100045F60733C4F2000348F24432C1F6FF72CD
:100D2000D2791A70BD4680BC704700BF80B500AF55
:100D300048F28A33C1F6FF731B78002B10D148F2BA
:100D40008B33C1F6FF731B78DBB2002B01D1FFF7A9
:100D50009BFE48F28A33C1F6FF734FF001021A700E
:100D6000FFF7ACFE80BD00BF80B400AF44F6006367
:100D7000C4F2000344F60062C4F200021278D2B258
:100D800042F00102D2B21A70BD4680BC704700BF6B
:100D900080B483B000AF44F61063C4F200031B8834
:100DA000FB80FB881BB2184607F10C07BD4680BCD0
:100DB000704700BF80B582B000AF0346FB7148F2B8
:100DC0008933C1F6FF734FF000021A7048F28A337C
:100DD000C1F6FF731B78002B68D145F69603C4F269
:100DE00000034FF007021A7045F69703C4F20003A0
:100DF0004FF000021A7045F69E03C4F200034FF054
:100E000000021A7045F60733C4F2000345F60732B4
:100E1000C4F200021278D2B242F01802D2B21A70B2
:100E200045F69303C4F200034FF000021A7045F632
:100E30008833C4F200034FF000021A7045F689337C
:100E4000C4F200034FF000021A7045F68003C4F2AA
:100E500000034FF00A021A7045F68103C4F2000342
:100E60004FF000021A7045F68203C4F200034FF0FF
:100E70007A021A7045F68303C4F200034FF00002B1
:100E80001A7045F68D03C4F200034FF000021A7089
:100E900044F60163C4F200034FF014021A7044F6E2
:100EA0001463C4F200034FF001021A70FB79012BA6
:100EB00040F0F68044F60063C4F200034FF03802BD
:100EC0001A7044F60263C4F200034FF004021A7071
:100ED00044F60363C4F200034FF006021A7044F6AE
:100EE0000463C4F200034FF000021A7044F6056375
:100EF000C4F200034FF000021A7044F60663C4F215
:100F000000034FF013021A7044F60863C4F20003A2
:100F10004FF000021A7044F60963C4F200034FF068
:100F200000021A7044F60A63C4F200034FF0000294
:100F30001A7045F68403C4F200034FF014021A70CD
:100F400045F68503C4F200034FF00B021A7045F614
:100F50008603C4F200034FF031021A7045F687038E
:100F6000C4F200034FF000021A7045F68803C4F281
:100F700000034FF012021A7045F68903C4F2000311
:100F80004FF013021A7045F68A03C4F200034FF0C3
:100F900044021A7045F68B03C4F200034FF0480276
:100FA0001A7045F68C03C4F200034FF001021A7068
:100FB00045F68E03C4F200034FF002021A7045F6A4
:100FC0008F03C4F200034FF022021A7045F690031B
:100FD000C4F200034FF028021A7045F69103C4F2E0
:100FE00000036FF014021A704FF0520000F030FC52
:100FF00045F69403C4F200034FF058021A7045F608
:101000009503C4F200034FF000021A7045F69A03EC
:10101000C4F200034FF005021A7045F69B03C4F2B8
:1010200000034FF002021A7045F69C03C4F200035D
:101030004FF000021A7045F69D03C4F200034FF012
:1010400000021A7045F60733C4F2000345F6073272
:10105000C4F200021278D2B242F01802D2B21A7070
:101060004FF0000000F0B2FC48F24033C1F6FF73CD
:101070004FF066021A604FF01D004FF00701FFF7B6
:101080007FFA4FF01D0041F6E501C0F20001FFF7C5
:1010900047FA4EF20013CEF200034FF000521A60EE
:1010A000FB79022B40F0F68044F60063C4F20003A3
:1010B0004FF038021A7044F60263C4F200034FF096
:1010C00004021A7044F60363C4F200034FF00602F0
:1010D0001A7044F60463C4F200034FF000021A7061
:1010E00044F60563C4F200034FF000021A7044F6A0
:1010F0000663C4F200034FF03F021A7044F608631F
:10110000C4F200034FF000021A7044F60963C4F2FF
:1011100000034FF000021A7044F60A63C4F20003A1
:101120004FF000021A7045F68403C4F200034FF03A
:1011300050021A7045F68503C4F200034FF02702EF
:101140001A7045F68603C4F200034FF02C021A70A1
:1011500045F68703C4F200034FF000021A7045F60B
:101160008803C4F200034FF012021A7045F6890397
:10117000C4F200034FF013021A7045F68A03C4F25A
:1011800000034FF055021A7045F68B03C4F20003BA
:101190004FF05A021A7045F68C03C4F200034FF068
:1011A00005021A7045F68E03C4F200034FF00102E7
:1011B0001A7045F68F03C4F200034FF011021A7043
:1011C00045F69003C4F200034FF019021A7045F679
:1011D0009103C4F200036FF068021A704FF04400EC
:1011E00000F036FB45F69403C4F200034FF05802BA
:1011F0001A7045F69503C4F200034FF000021A700E
:1012000045F69A03C4F200034FF005021A7045F642
:101210009B03C4F200034FF002021A7045F69C03D0
:10122000C4F200034FF001021A7045F69D03C4F2A8
:1012300000034FF000021A7045F60733C4F20003B2
:1012400045F60732C4F200021278D2B242F0180218
:10125000D2B21A704FF0000000F0B8FB48F24033F1
:10126000C1F6FF734FF47A421A604FF01D004FF041
:101270000701FFF785F94FF01D0041F6FD01C0F2AF
:101280000001FFF74DF94EF20013CEF200034FF0CC
:1012900000521A60FB79032B40F0F68044F600639D
:1012A000C4F200034FF038021A7044F60263C4F22D
:1012B00000034FF004021A7044F60363C4F2000303
:1012C0004FF006021A7044F60463C4F200034FF0B4
:1012D00000021A7044F60563C4F200034FF00002E6
:1012E0001A7044F60663C4F200034FF03F021A700E
:1012F00044F60863C4F200034FF000021A7044F68B
:101300000963C4F200034FF000021A7044F60A6346
:10131000C4F200034FF000021A7045F68403C4F2D1
:1013200000034FF050021A7045F68503C4F2000323
:101330004FF027021A7045F68603C4F200034FF0FF
:101340002C021A7045F68703C4F200034FF0000226
:101350001A7045F68803C4F200034FF012021A70A7
:1013600045F68903C4F200034FF013021A7045F6E4
:101370008A03C4F200034FF055021A7045F68B033E
:10138000C4F200034FF05A021A7045F68C03C4F2FF
:1013900000034FF005021A7045F68E03C4F20003F5
:1013A0004FF001021A7045F68F03C4F200034FF0AC
:1013B00011021A7045F69003C4F200034FF01902AF
:1013C0001A7045F69103C4F200036FF068021A70B8
:1013D0004FF0440000F03CFA45F69403C4F20003D9
:1013E0004FF058021A7045F69503C4F200034FF00F
:1013F00000021A7045F69A03C4F200034FF005028A
:101400001A7045F69B03C4F200034FF002021A70F3
:1014100045F69C03C4F200034FF001021A7045F632
:101420009D03C4F200034FF000021A7045F6073323
:10143000C4F2000345F60732C4F200021278D2B2B9
:1014400042F01802D2B21A704FF0000000F0BEFA5B
:1014500048F24033C1F6FF734FF47A421A604FF0FE
:101460001D004FF00701FFF78BF84FF01D0041F60C
:101470000911C0F20001FFF753F84EF20013CEF24B
:1014800000034FF000521A60FB79042B40F0F68005
:1014900044F60063C4F200034FF038021A7044F6B9
:1014A0000263C4F200034FF004021A7044F60363AF
:1014B000C4F200034FF006021A7044F60463C4F24B
:1014C00000034FF000021A7044F60563C4F20003F3
:1014D0004FF000021A7044F60663C4F200034FF0A6
:1014E0003F021A7044F60863C4F200034FF0000292
:1014F0001A7044F60963C4F200034FF000021A7038
:1015000044F60A63C4F200034FF000021A7045F675
:101510008403C4F200034FF050021A7045F68503AD
:10152000C4F200034FF027021A7045F68603C4F296
:1015300000034FF02C021A7045F68703C4F2000333
:101540004FF000021A7045F68803C4F200034FF012
:1015500012021A7045F68903C4F200034FF0130219
:101560001A7045F68A03C4F200034FF055021A7050
:1015700045F68B03C4F200034FF05A021A7045F689
:101580008C03C4F200034FF005021A7045F68E0377
:10159000C4F200034FF001021A7045F68F03C4F243
:1015A00000034FF011021A7045F69003C4F20003D5
:1015B0004FF019021A7045F69103C4F200036FF060
:1015C00068021A704FF0440000F042F945F69403A7
:1015D000C4F200034FF058021A7045F69503C4F2A6
:1015E00000034FF000021A7045F69A03C4F200039C
:1015F0004FF005021A7045F69B03C4F200034FF04A
:1016000002021A7045F69C03C4F200034FF0010277
:101610001A7045F69D03C4F200034FF000021A70E1
:1016200045F60733C4F2000345F60732C4F2000260
:101630001278D2B242F01802D2B21A704FF0000003
:1016400000F0C4F948F24033C1F6FF734FF47A4218
:101650001A604FF01D004FF00701FEF791FF4FF0A9
:101660001D0041F61511C0F20001FEF759FF4EF2C0
:101670000013CEF200034FF000521A6007F1080782
:10168000BD4680BD80B487B000AFF871B9807A8064
:101690007B70FB79A3F10403062B5DD801A252F8FD
:1016A00023F000BFC11600005917000059170000B1
:1016B000E71600000D17000059170000331700004F
:1016C0007B780F2B07D940F21413C4F600131B7854
:1016D000DBB2FB7343E040F21813C4F600131B782F
:1016E000DBB2FB733BE07B780F2B07D940F215137D
:1016F000C4F600131B78DBB2FB7330E040F2191321
:10170000C4F600131B78DBB2FB7328E07B780F2B49
:1017100007D940F21613C4F600131B78DBB2FB7333
:101720001DE040F21A13C4F600131B78DBB2FB7302
:1017300015E07B780F2B07D940F21713C4F600137E
:101740001B78DBB2FB730AE040F21B13C4F60013F4
:101750001B78DBB2FB7302E04FF00003FB73FB79F5
:10176000002B11D0FB79012B0ED0FB79022B0BD073
:10177000FB79032B08D0FB79052B05D0FB79062BD1
:1017800002D0FB79092B03D14FF000033B8206E026
:1017900097F90F309BB24FEA43139BB23B823A8AD0
:1017A000BB8813447B827B8A7A8802FB03F37B61CC
:1017B0007B694FEAD3337B827B780D2B12D87A8AF0
:1017C0007B786FEA030303F10F0342FA03F37B8292
:1017D00044F60E63C4F200037A7802F10102D2B239
:1017E0001A7006E044F60E63C4F200034FF00F02D5
:1017F0001A7044F60C63C4F200037A8AD2B21A70EB
:1018000044F60D63C4F200037A8A4FEA122292B2C0
:10181000D2B21A70FB79012B14D144F60C63C4F2D6
:1018200000034FF000021A7044F60D63C4F2000387
:101830004FF000021A7044F60E63C4F200034FF03A
:1018400000021A7007F11C07BD4680BC704700BF3C
:1018500080B582B000AF0346FB7144F2F563C4F279
:10186000000344F2F562C4F200021278D2B242F0F0
:101870001002D2B21A7044F2F763C4F2000344F2C9
:10188000F762C4F200021278D2B242F00802D2B279
:101890001A7045F69203C4F20003FA791A704FF0F9
:1018A0000300FEF729FE44F2F563C4F2000344F29C
:1018B000F562C4F200021278D2B202F0EF021A709E
:1018C00044F2F763C4F2000344F2F762C4F2000288
:1018D0001278D2B202F0F7021A7007F10807BD467B
:1018E00080BD00BF80B500AFFFF752FA03469AB241
:1018F00048F25C33C1F6FF731A8080BD80B400AF3C
:10190000BD4680BC704700BF80B400AFBD4680BC00
:10191000704700BF80B400AFBD4680BC704700BFB9
:1019200080B483B000AF0346FB7144F20213C4F2EB
:10193000000344F20212C4F200021278D1B2FA7922
:1019400002F0F80241EA0202D2B21A7007F10C0763
:10195000BD4680BC704700BF80B483B000AF034673
:10196000FB7144F28603C4F2000344F28602C4F21F
:1019700000021278D1B2FA7902F0F80241EA0202CA
:10198000D2B21A7007F10C07BD4680BC704700BF89
:1019900080B582B000AF4FF00003FB7107E0FB7928
:1019A000184600F0E3FCFB7903F10103FB71FB79BE
:1019B000012BF4D948F25033C1F6FF734FF0FF32D8
:1019C0001A7007F10807BD4680BD00BF80B582B020
:1019D00000AF0346FB71FFF7DBFFFB79184600F011
:1019E0009FFC48F25033C1F6FF73FA791A7007F181
:1019F0000807BD4680BD00BF80B500AF48F29433F4
:101A0000C1F6FF731B78002B08D100F00BF848F2E9
:101A10009433C1F6FF734FF001021A7000F02AF8F8
:101A200080BD00BF80B400AF46F28D43C4F2000316
:101A30004FF072021A7046F28F43C4F200034FF067
:101A400000021A7046F22653C4F200034FF0070258
:101A50001A7046F23653C4F200034FF048021A706F
:101A600046F28753C4F200034FF000021A70BD46DD
:101A700080BC704780B582B000AFFEF705FD03461D
:101A8000FB7146F29D43C4F2000346F29D42C4F24C
:101A900000021278D2B242F02002D2B21A7046F29C
:101AA0009F43C4F2000346F29F42C4F20002127840
:101AB000D2B242F01002D2B21A7046F29753C4F278
:101AC000000346F29752C4F200021278D2B242F0FA
:101AD0001002D2B21A7000F049F8FB791846FEF7EE
:101AE000D7FC07F10807BD4680BD00BF80B483B0B6
:101AF00000AF4FF00003BB7146F26F43C4F2000326
:101B00001B78FB71FB7903F02003002B0DD046F20C
:101B10004F43C4F200031B78BB71FB7903F01E0333
:101B2000002B02D04FF00003BB71BB79184607F1C0
:101B30000C07BD4680BC704780B483B000AF03463D
:101B4000FB7146F26753C4F200031B78DBB203F06B
:101B50000403002BF5D146F24753C4F20003FA798F
:101B60001A7007F10C07BD4680BC704780B400AF07
:101B700044F2A233C4F2000344F2A232C4F20002DF
:101B80001278D2B242F00402D2B21A7044F2B233E6
:101B9000C4F2000344F2B232C4F200021278D2B2AC
:101BA00042F00402D2B21A70BD4680BC704700BF3A
:101BB00080B483B000AF0346FB7146F27653C4F2A3
:101BC0000003FA791A7007F10C07BD4680BC704714
:101BD00080B400AF46F27653C4F200031B78DBB248
:101BE0001846BD4680BC704780B500AF44F6007310
:101BF000C4F2000344F60072C4F200021278D2B2BA
:101C000002F001021A7044F60173C4F2000344F6B4
:101C10000172C4F200021278D2B202F0F1021A701C
:101C200044F60173C4F2000344F60172C4F20002E8
:101C30001278D2B242F00102D2B21A7044F60A739C
:101C4000C4F2000344F60A72C4F200021278D2B25F
:101C500002F0CF021A7044F60A73C4F2000344F68D
:101C60000A72C4F200021278D2B242F03002D2B24A
:101C70001A7044F60A73C4F2000344F60A72C4F2FE
:101C800000021278D2B202F0F0021A7044F60A731F
:101C9000C4F2000344F60A72C4F200021278D2B20F
:101CA00042F00F02D2B21A7040F2366000F05CF8D7
:101CB0004FF0000000F048F880BD00BF80B400AFD6
:101CC00044F2A333C4F2000344F2A332C4F200028C
:101CD0001278D2B242F00102D2B21A7044F2B33397
:101CE000C4F2000344F2B332C4F200021278D2B25A
:101CF00042F00102D2B21A7044F60073C4F200033B
:101D000044F60072C4F200021278D2B242F001022C
:101D1000D2B21A70BD4680BC704700BF80B500AF1C
:101D200048F29633C1F6FF731B78002B08D1FFF7FA
:101D30005BFF48F29633C1F6FF734FF001021A7051
:101D4000FFF7BCFF80BD00BF80B483B000AF034687
:101D5000FB7144F60873C4F20003FA791A7007F1B4
:101D60000C07BD4680BC704780B483B000AF03460B
:101D7000FB8044F60273C4F20003FA881A8007F16C
:101D80000C07BD4680BC704780B500AF00F056F828
:101D900041F6AD50C0F2000000F01CF84FF0010019
:101DA00000F02CF800F03EF880BD00BF80B500AF19
:101DB00048F26033C1F6FF731B881AB248F22C1345
:101DC000C1F6FF7333F812301BB21846FEF7EAFA79
:101DD00080BD00BF80B485B000AF78604EF6085378
:101DE000CEF200031B68FB60FB6803F140037A68D6
:101DF0001A6007F11407BD4680BC704780B483B0F9
:101E000000AF0346FB714EF20043CEF20003FA79B5
:101E10004FEA4212D2B21A7007F10C07BD4680BCDD
:101E2000704700BF80B400AF4EF20013CEF2000343
:101E30004FF001021A60BD4680BC704780B400AF0D
:101E40004EF28013CEF200034FF001021A60BD463D
:101E500080BC704780B500AF00F06AF841F6796049
:101E6000C0F2000000F030F84FF0020000F040F83F
:101E700000F052F880BD00BF80B500AF48F260337B
:101E8000C1F6FF731B8803F101039AB248F2603375
:101E9000C1F6FF731A8048F26033C1F6FF731B88E6
:101EA0001BB2FF2B0EDD48F26033C1F6FF734FF01B
:101EB00000021A80FFF78CFE03466FEA0303184600
:101EC000FFF776FE80BD00BF80B485B000AF7860BC
:101ED0004EF60853CEF200031B68FB60FB6803F16B
:101EE00044037A681A6007F11407BD4680BC704746
:101EF00080B483B000AF0346FB714EF20143CEF2D3
:101F00000003FA794FEA4212D2B21A7007F10C07B5
:101F1000BD4680BC704700BF80B400AF4EF20013D6
:101F2000CEF200034FF002021A60BD4680BC70473B
:101F300080B400AF4EF28013CEF200034FF00202E5
:101F40001A60BD4680BC704780B400AF44F2A23333
:101F5000C4F2000344F2A232C4F200021278D2B2F8
:101F600042F00102D2B21A7044F2B233C4F200035A
:101F700044F2B232C4F200021278D2B242F001024C
:101F8000D2B21A70BD4680BC704700BF80B485B025
:101F900000AF786039607B68BB604FF00003FB6086
:101FA00009E0BA68FB6813444FF000021A70FB683E
:101FB00003F10103FB60FA683B689A42F1D307F131
:101FC0001407BD4680BC704780B489B000AFF8608C
:101FD000B9607A60FB687B61BB68BB614FF000034E
:101FE000FB610BE07A69FB691344B969FA690A4439
:101FF00012781A70FB6903F10103FB61FA697B68CF
:102000009A42EFD307F12407BD4680BC704700BF5A
:1020100080B582B000AF7860396078684FF0000119
:102020003A6800F0E3FB07F10807BD4680BD00BF3A
:1020300080B584B000AFF860B9607A60F868B968BC
:102040007A6800F00BFB07F11007BD4680BD00BFAA
:1020500080B487B000AF786039604FF00003FB6058
:102060004FF00003BB602CE0BB684FEA83027B6843
:1020700013441B683B613B69FB753B6923F0FF031D
:102080003B6117E0FB684FEA43023B6813441B784F
:102090001A463B691344FA684FEA42013A680A4417
:1020A00052781A70FB6803F10103FB60FB7D03F1BA
:1020B000FF33FB75FB7D002BE4D1BB6803F101030B
:1020C000BB60BB681F2BCFD907F11C07BD4680BC86
:1020D000704700BF80B500AF44F28003C4F2000334
:1020E0004FF001021A8044F28203C4F200034FF061
:1020F00018021A7044F28403C4F200034FF0020283
:102100001A8044F28603C4F200034FF018021A70DA
:1021100044F28803C4F200034FF019021A8044F21B
:102120008A03C4F200034FF018021A7044F2001040
:10213000C4F2000040F26C61C4F600014FF00402EA
:10214000FFF776FF44F20033C4F200034FF00202BF
:102150001A7044F20003C4F200034FF008021A7030
:1021600044F20023C4F200034FF003021A7044F259
:10217000A163C4F2000340F20812C4F60012127800
:10218000D2B21A7044F22223C4F200034FF00802C4
:102190001A8044F22023C4F2000341F251021A8053
:1021A00040F6B830FEF768F944F20403C4F20003C5
:1021B0004FF003021A7044F20503C4F200034FF01B
:1021C00001021A7044F20403C4F200034FF000024B
:1021D0001A7044F20403C4F200034FF007021A70AD
:1021E00044F20603C4F200034FF000021A7044F2F6
:1021F0000803C4F200034FF048021A7044F20403CB
:10220000C4F200034FF000021A7044F20103C4F25A
:1022100000034FF002021A7044F20B03C4F20003F1
:102220004FF004021A7044F2A233C4F2000344F2E5
:10223000A232C4F200021278D2B242F00702D2B245
:102240001A7044F2A133C4F2000344F2A132C4F282
:1022500000021278D2B242F00102D2B21A7080BDEE
:1022600080B400AF44F2AA33C4F200034FF44472C6
:102270001A8045F21D13C4F200034FF020021A70B9
:1022800045F62003C4F200034FF01E021A7045F613
:102290002403C4F200034FF01E021A7045F628030F
:1022A000C4F200034FF01E021A7045F62C03C4F26C
:1022B00000034FF01E021A7045F60013C4F200032B
:1022C0006FF03F021A7045F60313C4F200034FF09B
:1022D0000C021A7045F60813C4F200036FF03F02B7
:1022E0001A7045F60B13C4F200034FF00C021A707B
:1022F00045F60033C4F200034FF002021A7045F6AF
:102300005833C4F200034FF002021A7045F6760308
:10231000C4F200034FF044021A70BD4680BC7047FF
:1023200080B483B000AF0346FB71FB79012B18D852
:10233000FA7942F65813C0F2000353F82220F979D3
:1023400042F65813C0F2000353F821301978F87997
:1023500042F66013C0F200031B5C41EA0303DBB2E8
:10236000137007F10C07BD4680BC704780B483B082
:1023700000AF0346FB71FB79012B1BD8FA7942F6BB
:102380005813C0F2000353F82220F97942F658138B
:10239000C0F2000353F821301978F87942F660133F
:1023A000C0F200031B5C6FEA0303DBB201EA030324
:1023B000DBB2137007F10C07BD4680BC704700BF4D
:1023C00080B582B000AF72B644F60003C4F20003D9
:1023D0004FF000021A70FFF77DFE44F60003C4F2CE
:1023E00000036FF07F021A7047F21003C4F200037B
:1023F0004FF000021A7047F22003C4F200034FF0BE
:1024000000021A7045F67C03C4F200034FF001028B
:102410001A7044F2E863C4F2000344F2E862C4F2C2
:1024200000021278D2B242F00102D2B21A704FF01A
:102430000003FB702FE0FA7813464FEA430313447E
:102440004FEA43031A4642F66413C0F200031344F2
:102450007B607B681A7859784FEA012141EA0202D1
:1024600099784FEA014141EA0202DB784FEA0363BF
:1024700043EA02031A467B6819795B794FEA032322
:1024800043EA01039BB210461946FFF7C1FDFB78F2
:1024900003F10103FB70FB78082BCCD94FF090407F
:1024A00040F28001C4F60001FFF7D2FD45F20020A2
:1024B000C4F2000040F25C61C4F600014FF0070274
:1024C000FFF782FD45F20820C4F200004FF007013B
:1024D000FFF75CFD45F21020C4F200004FF0070149
:1024E000FFF754FD45F21820C4F200004FF0070139
:1024F000FFF74CFD45F22020C4F200004FF0070129
:10250000FFF744FD45F22820C4F2000040F2646168
:10251000C4F600014FF00702FFF756FD45F23020E8
:10252000C4F200004FF00701FFF730FD45F26020D4
:10253000C4F200004FF00601FFF728FD45F27820B5
:10254000C4F200004FF00701FFF720FD45F203033E
:10255000C4F2010345F20302C4F201021278D2B2BE
:1025600042F00202D2B21A7045F21303C4F2010320
:1025700045F21302C4F201021278D2B242F0020212
:10258000D2B21A7044F2A033C4F2000344F2A03273
:10259000C4F200021278D2B242F04002D2B21A70F3
:1025A00044F2C233C4F2000344F2C232C4F2000265
:1025B0001278D2B242F01002D2B21A7045F2001074
:1025C000C4F2000040F23861C4F600014FF00A0284
:1025D000FFF72EFD45F21210C4F2000040F24461F4
:1025E000C4F600014FF00802FFF722FD45F2221069
:1025F000C4F2000040F24C61C4F600014FF0080242
:10260000FFF716FD45F25210C4F2000040F254618B
:10261000C4F600014FF00802FFF70AFDFFF720FEA5
:1026200044F2B030C4F2000044F2A031C4F2000120
:102630004FF00C02FFF7FCFC44F2B033C4F200038D
:1026400044F2B032C4F200021278D2B202F0FD02BB
:102650001A7007F10807BD4680BD00BF032A2DE9A7
:10266000F0070BD83AB1002311F803C000F803C0FB
:1026700001339342F8D1BDE8F007704782180C4649
:10268000034603E014F8011C03F8011C03F00306E1
:102690001946A44601330134002EF3D11CF0030483
:1026A000634608BFC1EB020C68D06542C4F1040A5E
:1026B0000CEB050733464FEACA0A5CF805604FEA9F
:1026C000C408551A08E057F8044F264604FA0AF4DD
:1026D00049EA0404CC5004335C18032D26FA08F9A7
:1026E000A5F104050CEB0306EDDC002302E0F15C30
:1026F000E154013319199142F9D3BCE753F8404C26
:1027000041F8404C53F83C4C41F83C4C53F8384CA1
:1027100041F8384C53F8344C41F8344C53F8304CB1
:1027200041F8304C53F82C4C41F82C4C53F8284CC1
:1027300041F8284C53F8244C41F8244C53F8204CD1
:1027400041F8204C53F81C4C41F81C4C53F8184CE1
:1027500041F8184C53F8144C41F8144C53F8104CF1
:1027600041F8104C53F80C4C41F80C4C53F8084C01
:1027700041F8084C53F8044C41F8044C1C460D46F3
:1027800040334031BCF13F0FACF1400CB6DC214688
:102790002B46541B0FE051F8105C43F8105C51F8C5
:1027A0000C5C43F80C5C51F8085C43F8085C51F889
:1027B000045C43F8045C0F2C0D469C4601F11001AB
:1027C00003F11003A4F11004E5DCCCEB02010023BB
:1027D00003E0EC584CF8034004335E19032903EB83
:1027E0000C04A1F10401F4DC7FE700BF032AC9B2A5
:1027F00030B407D822B10023C15401339342FBD136
:1028000030BC704700EB020C034601E003F8011CEA
:1028100003F003041A460133002CF7D14FF00133C3
:10282000C2EB0C0403FB01F31FE042F8403C42F80A
:102830003C3C42F8383C42F8343C42F8303C42F8E8
:102840002C3C42F8283C42F8243C42F8203C42F818
:102850001C3C42F8183C42F8143C42F8103C42F848
:102860000C3C42F8083C42F8043C154640323F2CF0
:10287000A4F14004D9DC2A46C5EB0C0407E042F879
:10288000103C42F80C3C42F8083C42F8043C154627
:1028900010320F2CA4F11004F1DC2A46C5EB0C0514
:1028A00001E042F8043C14460432032DA5F104056E
:1028B000F7DC01E004F8011B6445FBD3A0E700BF8F
:1028C00008B500F017F8074800B10068064901B1E3
:1028D00009680022FDF7E2FB044B0BB1AFF3008067
:1028E000FEE700BF00000000000000000000000044
:1028F000FEE7000070B542F6A81642F6A815C0F231
:102900000006C0F20005761BB61006D0002455F86C
:10291000243001349847A642F9D842F6A81542F669
:10292000B016C0F20005C0F20006761B00F036F8C3
:10293000B61006D0002455F8243001349847A6423A
:04294000F9D870BD95
:10294400536F6D65206261736963206D6573736194
:1029540067650000035B0040035B004040400000EB
:10296400004F00400B0030510040200060510040F7
:102974001000C05100401000F05100401000000051
:102984000140001000140140000800400140000A0A
:10299400004C014000020000F8B500BFF8BC08BCC0
:1029A4009E4670478100000079010000F8B500BF21
:1029B400F8BC08BC9E4670476D0000000000000093
:1029C400D82900000881FF1F5002000048000000C1
:0429D40000000000FF
:1029D80000000000C695BE3D243F413F8DB81B3E18
:1029E800E2DA9D40918CD1BF0B3D8CC0F5010C40C3
:1029F800000004428001850189018E01930198013C
:102A08009C01A101A601AA01AF01B401B801BD0151
:102A1800C201C601CB01D001D401D901DD01E20117
:102A2800E601EB01EF01F401F801FD0101020602E4
:102A38000A020F02130217021C02200224022802B3
:102A48002D023102350239023D0241024502490296
:102A58004D025102550259025D0261026502690286
:102A68006C027002740277027B027E028202850287
:102A780089028C0290029302960299029D02A0029A
:102A8800A302A602A902AC02AF02B202B402B702C4
:102A9800BA02BD02BF02C202C402C702C902CC0206
:102AA800CE02D002D302D502D702D902DB02DD0260
:102AB800DF02E102E302E502E602E802EA02EB02D3
:102AC800ED02EE02EF02F102F202F302F402F60264
:102AD800F702F802F902FA02FA02FB02FC02FD020E
:102AE800FD02FE02FE02FF02FF02FF0200030003D6
:102AF8000003000300030003000300030003FF02B8
:102B0800FF02FF02FE02FE02FD02FD02FC02FB02C2
:102B1800FA02FA02F902F802F702F602F402F302E4
:102B2800F202F102EF02EE02ED02EB02EA02E80223
:102B3800E602E502E302E102DF02DD02DB02D9027E
:102B4800D702D502D302D002CE02CC02C902C702F4
:102B5800C402C202BF02BD02BA02B702B402B20284
:102B6800AF02AC02A902A602A302A0029D0299022A
:102B78009602930290028C028902850282027E02EA
:102B88007B027702740270026C02690265026102BC
:102B98005D025902550251024D02490245024102A5
:102BA8003D023902350231022D0228022402200298
:102BB8001C02170213020F020A0206020102FD019B
:102BC800F801F401EF01EB01E601E201DD01D901B1
:102BD800D401D001CB01C601C201BD01B801B401C5
:102BE800AF01AA01A601A1019C01980193018E01E0
:102BF8008901850100366E01C05D000018000000E3
:102C08000000E02E0100000066000000022228EB10
:102C18005205021800000000FF000000000000003C
:0400000300000155A3
:00000001FF
