:100000000080002069010000610100006101000022
:1000100080B51448144B21E05C689968DD688C4217
:100020000CD0002205E0A6180832D6E9008941E983
:1000300002898C460831AA42F5D101E004EB050C97
:100040001C696146002204E008320026002741E9CD
:1000500002670831A242F7D1143301380028DBD1FE
:1000600003F090F9010000008434000048F23833B6
:10007000C1F6FF731A780AB901201870704700BFE3
:1000800048F20810C1F6FF7008B503682BB140F2C2
:100090000003C0F2000303B1984708BD80B500AF6C
:1000A00001F082FF00F058FD02F028F801F07CFF1B
:1000B00001F0B0FF00F0E8FA4EF20013CEF20003B8
:1000C0004FF000521A6000F0BBFE00F0D7FE00F0C7
:1000D000B7F84FF0000001F0BDFE01F0DFFD48F27F
:1000E0007833C1F6FF7348F21012C1F6FF721A603E
:1000F00062B601F04DFE03461A4648F24233C1F69D
:10010000FF731A7048F24233C1F6FF731B78562B07
:1001100015D148F23C33C1F6FF731B881BB24FEA7E
:1001200023239BB2DBB2184601F058FE48F23C3361
:10013000C1F6FF731B88DBB2184601F04FFE4FF08B
:1001400001004FF0000100F0B5FA48F23C33C1F66F
:10015000FF731B889BB2184600F0E8FCC9E700BF9C
:1001600080B400AFFEE700BF054B1C7844F00104EB
:100170001C70044B1A78D2B2034B1A70FFF748FF79
:10018000E8460040F8460040BC76004080B582B0AA
:1001900000AF4EF60C53CEF2000340F20042C0F224
:1001A000FA521A604EF61453CEF200034EF6145271
:1001B000CEF20002126842F400721A604FF000039F
:1001C0007B6019E079687B68032B07D87A6840F276
:1001D0000003C0F2000353F8223003E040F2611341
:1001E000C0F2000348F20002C1F6FF7242F821306B
:1001F0007B6803F101037B607B682F2BE2D947F218
:10020000BC63C4F200031B78DAB248F27C33C1F657
:10021000FF731A704EF60853CEF2000348F2000244
:10022000C1F6FF721A6002F0C1F948F20013C1F67C
:10023000FF734FF000021A6007F10807BD4680BD4A
:1002400080B500AF48F26433C1F6FF731B78002B12
:1002500008D100F00BF848F26433C1F6FF734FF099
:1002600001021A7000F064F880BD00BF80B582B052
:1002700000AF46F27643C4F200031B78DBB223F0F2
:100280003F03BB7146F27643C4F20003BA7942F0F1
:100290001902D2B21A7046F29653C4F2000346F223
:1002A0009652C4F200021278D2B242F00102D2B2E7
:1002B0001A7046F29753C4F2000346F29752C4F202
:1002C00000021278D2B242F00102D2B21A704FF498
:1002D000007000F043F84FF4007000F05DF84FF448
:1002E000807000F069F84FF0010000F075F84FF0F1
:1002F000000000F09DF800F0CFF80346FB7146F2D5
:100300009653C4F2000346F29652C4F200021278E9
:10031000D2B242F01002D2B21A70FB79184600F045
:10032000BFF800F02BF807F10807BD4680BD00BFFD
:1003300080B400AF46F27643C4F2000346F2764240
:10034000C4F200021278D2B26FEA42626FEA5262DD
:10035000D2B21A70BD4680BC704700BF80B483B073
:1003600000AF0346FB8046F60C23C4F20003FA8874
:100370001A8007F10C07BD4680BC704780B500AFFE
:1003800001E000F075F800F063F8034603F0100395
:10039000002BF6D180BD00BF80B483B000AF034610
:1003A000FB8046F68C23C4F20003FA881A8007F11A
:1003B0000C07BD4680BC704780B483B000AF0346D5
:1003C000FB8046F64C23C4F20003FA881A8007F13A
:1003D0000C07BD4680BC704780B483B000AF0346B5
:1003E000FB7146F27653C4F2000346F27652C4F231
:1003F00000021278D2B202F0FC021A7046F2765372
:10040000C4F2000346F27652C4F200021278D2B26D
:100410001146FA79D2B202F0030241EA0202D2B2E4
:10042000D2B21A7007F10C07BD4680BC704700BFFE
:1004300080B483B000AF0346FB7146F28653C4F22A
:100440000003FA791A7007F10C07BD4680BC7047AB
:1004500080B483B000AF46F26653C4F200031B7849
:10046000FB71FB79184607F10C07BD4680BC70474D
:1004700080B400AF46F6AC23C4F200031B889BB2E5
:100480001846BD4680BC70470230800803D000BFCC
:1004900001380046FCD17047EFF3108072B6704708
:1004A00080F31088704700BF80B483B000AF03466C
:1004B000FB7101BE07F10C07BD4680BC704700BF51
:1004C00080B582B000AF78600BE048F21C33C1F613
:1004D000FF731B681846FFF7D7FF7B68A3F500433F
:1004E0007B607B68B3F5004FEFD848F21433C1F658
:1004F000FF731B687A6802FB03F31846FFF7C4FF1B
:1005000007F10807BD4680BD80B582B000AF034645
:10051000FB80FA8848F21833C1F6FF731B7803FB9F
:1005200002F31846FFF7B0FF07F10807BD4680BD8C
:1005300080B584B000AF03463960FB714EF60853B6
:10054000CEF200031B68FB60FB791F2B03D94FF031
:100550000000FFF7A9FFFB7903F01F0303F110036D
:100560004FEA8302FB6813441B68BB60FB7903F00E
:100570001F0303F110034FEA8302FB6813443A6838
:100580001A60BB68184607F11007BD4680BD00BF62
:1005900080B582B000AF02460B46FA71BB71BB79E1
:1005A000072B03D94FF00000FFF77EFFFB791F2BCD
:1005B00003D94FF00000FFF777FFFB7903F01F032B
:1005C00003F1604303F56443BA794FEA4212D2B2B1
:1005D0001A7007F10807BD4680BD00BF80B500AFA7
:1005E0004FF02800FFF76CFF4FF0030000F036FAE1
:1005F0004FF00500FFF764FF4FF0030000F02EFA04
:100600004FF00F00FFF75CFF4FF0030000F026FAF9
:100610004FF00100FFF754FF4FF0020000F01EFA08
:100620004FF00500FFF74CFF4FF0060000F0A6F872
:100630004FF00E0000F0A2F84FF02C0000F09EF8F2
:100640004FF0080000F09AF84FF0010000F096F823
:100650004FF00C0000F092F84FF0030000F08EF81D
:100660004FF00500FFF72CFF80BD00BF80B500AF45
:100670004FF00C0000F082F848F26533C1F6FF73CA
:100680004FF001021A7080BD80B500AF48F26633AA
:10069000C1F6FF731B78002B08D1FFF79FFF48F2CC
:1006A0006633C1F6FF734FF001021A70FFF7DEFFE9
:1006B00080BD00BF80B582B000AF02460B46FA7124
:1006C000BB71FB79032B2AD801A252F823F000BF9B
:1006D000E1060000F106000001070000110700001C
:1006E000BB79A3F18003DBB2184600F047F816E0AF
:1006F000BB79A3F14003DBB2184600F03FF80EE0EF
:10070000BB79A3F16C03DBB2184600F037F806E0C2
:10071000BB79A3F12C03DBB2184600F02FF807F1E8
:100720000807BD4680BD00BF80B582B000AF03465C
:10073000FB71FB79184600F005F807F10807BD4684
:1007400080BD00BF80B584B000AF0346FB7100F0F0
:1007500031F8FB794FEA1313FB73FB7B184600F06B
:1007600027F9FB7903F00F03FB73FB7B184600F0BE
:100770001FF907F11007BD4680BD00BF80B584B0EA
:1007800000AF0346FB7100F015F8FB794FEA131335
:10079000FB73FB7B184600F061F9FB7903F00F0354
:1007A000FB73FB7B184600F059F907F11007BD46B3
:1007B00080BD00BF80B582B000AF45F22013C4F207
:1007C000000345F22012C4F200021278D2B202F005
:1007D00080021A7045F22213C4F200031B78DBB2C8
:1007E00023F00F03FB7145F22213C4F20003FA79E0
:1007F00042F00F02D2B21A7045F22313C4F2000382
:100800001B78DBB223F00F03FB7145F22313C4F214
:100810000003FA791A7045F22413C4F200031B781E
:10082000DBB223F00F03FB7145F22413C4F2000383
:10083000FA791A7045F22013C4F2000345F220122F
:10084000C4F200021278D2B202F0DF021A7045F24E
:100850002013C4F2000345F22012C4F20002127801
:10086000D2B242F04002D2B21A704FF00000FFF74D
:100870004BFE45F22013C4F2000345F22012C4F2ED
:1008800000021278D2B242F01002D2B21A704FF0C7
:100890000100FFF739FE45F22113C4F200031B7873
:1008A000FB7145F22013C4F2000345F22012C4F29A
:1008B00000021278D2B202F0EF021A704FF000007C
:1008C000FFF722FEFB7903F00803FB7145F22013CA
:1008D000C4F2000345F22012C4F200021278D2B230
:1008E00042F01002D2B21A704FF00100FFF70CFE76
:1008F00045F22013C4F2000345F22012C4F20002B4
:100900001278D2B202F0EF021A70FB79002BACD150
:1009100045F22013C4F2000345F22012C4F2000293
:100920001278D2B202F0BF021A7045F22013C4F25C
:10093000000345F22012C4F200021278D2B202F093
:1009400080021A7045F22213C4F2000345F222120B
:10095000C4F200021278D2B202F0F0021A7045F22C
:100960002313C4F200031B78DBB223F00F03FB71E7
:1009700045F22313C4F20003FA7942F00F02D2B217
:100980001A7045F22413C4F200031B78DBB223F083
:100990000F03FB7145F22413C4F20003FA7942F00D
:1009A0000F02D2B21A7007F10807BD4680BD00BF22
:1009B00080B582B000AF0346FB71FFF7FBFE45F246
:1009C0002013C4F2000345F22012C4F20002127890
:1009D000D2B242F02002D2B21A7045F22013C4F211
:1009E000000345F22012C4F200021278D2B202F0E3
:1009F000BF021A7045F22013C4F2000345F2201220
:100A0000C4F200021278D2B202F0F0021A7045F27B
:100A10002013C4F2000345F22012C4F2000212783F
:100A2000D1B2FA7941EA0202D2B242F01002D2B255
:100A30001A704FF00100FFF767FD45F22013C4F272
:100A4000000345F22012C4F200021278D2B202F082
:100A5000EF021A7007F10807BD4680BD80B582B06D
:100A600000AF0346FB7145F22013C4F2000345F2C8
:100A70002012C4F200021278D2B202F09F021A7061
:100A800045F22013C4F2000345F22012C4F2000222
:100A90001278D2B202F0F0021A7045F22013C4F2BA
:100AA000000345F22012C4F200021278D1B2FA79A2
:100AB00041EA0202D2B242F01002D2B21A704FF0F2
:100AC0000100FFF721FD45F22013C4F2000345F2B7
:100AD0002012C4F200021278D2B202F0EF021A70B1
:100AE00007F10807BD4680BD80B582B000AF034660
:100AF000FB71FB794FEA1313DBB21A4643F208434A
:100B0000C0F200039B5C1846FFF70EFEFB7903F072
:100B10000F0243F20843C0F200039B5C1846FFF744
:100B200003FE07F10807BD4680BD00BF80B582B057
:100B300000AF0346FB80FB884FEA13239BB2DBB276
:100B40001846FFF7D1FFFB88DBB21846FFF7CCFF52
:100B500007F10807BD4680BD80B400AF44F2A23360
:100B6000C4F2000344F2A232C4F200021278D2B2FC
:100B700042F00102D2B21A7044F2B233C4F200035E
:100B800044F2B232C4F200021278D2B242F0010250
:100B9000D2B21A70BD4680BC704700BF80B500AFAE
:100BA0004FF0010000F090F94FF0100001F00AF84A
:100BB0004FF0100001F022F84FF002004FF4104106
:100BC00046F606124FF0090300F0E6FD80BD00BFB7
:100BD00080B500AF48F27033C1F6FF731B78002B6D
:100BE0000FD048F22833C1F6FF731B7A002B08D1CF
:100BF00000F0D0F848F27033C1F6FF734FF00002F6
:100C00001A7048F22833C1F6FF734FF000021A72CF
:100C100044F2AA33C4F2000344F2AA32C4F200023E
:100C20001278D2B242F00102D2B21A7044F2C53345
:100C3000C4F2000344F2C532C4F200021278D2B208
:100C400042F00102D2B21A7044F2BA33C4F2000385
:100C500044F2BA32C4F200021278D2B242F0010277
:100C6000D2B21A7048F22033C1F6FF731B78DBB2A0
:100C7000012B47D144F2F563C4F2000344F2F5625C
:100C8000C4F200021278D2B242F01002D2B21A704C
:100C900044F2F763C4F2000344F2F762C4F20002C4
:100CA0001278D2B242F00802D2B21A7045F691031D
:100CB000C4F2000345F69102C4F200021278D2B2E7
:100CC00042F00302D2B21A704FF00300FFF71CFC8F
:100CD00044F2F563C4F2000344F2F562C4F2000288
:100CE0001278D2B202F0EF021A7044F2F763C4F243
:100CF000000344F2F762C4F200021278D2B202F0AA
:100D0000F7021A7045F67703C4F2000345F677023E
:100D1000C4F200021278D2B242F00602D2B21A70C5
:100D200044F2A133C4F2000344F2A132C4F200023F
:100D30001278D2B242F00102D2B21A7044F2B13348
:100D4000C4F2000344F2B132C4F200021278D2B20B
:100D500042F00102D2B21A7044F2A233C4F200038C
:100D600044F2A232C4F200021278D2B242F002027D
:100D7000D2B21A7044F2B233C4F2000344F2B23277
:100D8000C4F200021278D2B242F00202D2B21A7059
:100D900080BD00BF80B400AF45F68E03C4F20003EF
:100DA00048F22832C1F6FF7212781A7045F68F03A6
:100DB000C4F2000348F22832C1F6FF7252781A706A
:100DC00045F69003C4F2000348F22832C1F6FF72E0
:100DD00092781A7045F69103C4F2000348F2283263
:100DE000C1F6FF72D2781A7045F69203C4F200037E
:100DF00048F22832C1F6FF7212791A7045F69A034A
:100E0000C4F2000348F22832C1F6FF7252791A7018
:100E100045F69B03C4F2000348F22832C1F6FF7284
:100E200092791A7045F60733C4F2000348F228326B
:100E3000C1F6FF72D2791A70BD4680BC704700BF00
:100E400080B500AF48F26A33C1F6FF731B78002B00
:100E500010D148F26B33C1F6FF731B78DBB2002B65
:100E600001D1FFF79BFE48F26A33C1F6FF734FF0E2
:100E700001021A70FFF7ACFE80BD00BF80B400AF66
:100E800044F60063C4F2000344F60062C4F20002B8
:100E90001278D2B242F00102D2B21A70BD4680BCC2
:100EA000704700BF80B483B000AF44F61063C4F253
:100EB00000031B88FB80FB881BB2184607F10C0758
:100EC000BD4680BC704700BF80B582B000AF03460E
:100ED000FB7148F26933C1F6FF734FF000021A70DC
:100EE00048F26A33C1F6FF731B78002B68D145F6D0
:100EF0009603C4F200034FF007021A7045F69703F9
:100F0000C4F200034FF000021A7045F69E03C4F2CB
:100F100000034FF000021A7045F60733C4F20003D5
:100F200045F60732C4F200021278D2B242F018023B
:100F3000D2B21A7045F69303C4F200034FF00002D8
:100F40001A7045F68833C4F200034FF000021A709D
:100F500045F68933C4F200034FF000021A7045F6DB
:100F60008003C4F200034FF00A021A7045F68103B1
:100F7000C4F200034FF000021A7045F68203C4F277
:100F800000034FF07A021A7045F68303C4F200039F
:100F90004FF000021A7045F68D03C4F200034FF0C3
:100FA00000021A7044F60163C4F200034FF0140209
:100FB0001A7044F61463C4F200034FF001021A7071
:100FC000FB79012B40F0F68044F60063C4F2000385
:100FD0004FF038021A7044F60263C4F200034FF077
:100FE00004021A7044F60363C4F200034FF00602D1
:100FF0001A7044F60463C4F200034FF000021A7042
:1010000044F60563C4F200034FF000021A7044F680
:101010000663C4F200034FF013021A7044F608632B
:10102000C4F200034FF000021A7044F60963C4F2E0
:1010300000034FF000021A7044F60A63C4F2000382
:101040004FF000021A7045F68403C4F200034FF01B
:1010500014021A7045F68503C4F200034FF00B0228
:101060001A7045F68603C4F200034FF031021A707D
:1010700045F68703C4F200034FF000021A7045F6EC
:101080008803C4F200034FF012021A7045F6890378
:10109000C4F200034FF013021A7045F68A03C4F23B
:1010A00000034FF044021A7045F68B03C4F20003AC
:1010B0004FF048021A7045F68C03C4F200034FF05B
:1010C00001021A7045F68E03C4F200034FF00202CB
:1010D0001A7045F68F03C4F200034FF022021A7013
:1010E00045F69003C4F200034FF028021A7045F64B
:1010F0009103C4F200036FF014021A704FF0520013
:1011000000F030FC45F69403C4F200034FF058029F
:101110001A7045F69503C4F200034FF000021A70EE
:1011200045F69A03C4F200034FF005021A7045F623
:101130009B03C4F200034FF002021A7045F69C03B1
:10114000C4F200034FF000021A7045F69D03C4F28A
:1011500000034FF000021A7045F60733C4F2000393
:1011600045F60732C4F200021278D2B242F01802F9
:10117000D2B21A704FF0000000F07AFD48F224332A
:10118000C1F6FF734FF066021A604FF01D004FF07A
:101190000101FFF7FDF94FF01D0041F6F911C0F212
:1011A0000001FFF7C5F94EF20013CEF200034FF035
:1011B00000521A60FB79022B40F0F68044F600637F
:1011C000C4F200034FF038021A7044F60263C4F20E
:1011D00000034FF004021A7044F60363C4F20003E4
:1011E0004FF006021A7044F60463C4F200034FF095
:1011F00000021A7044F60563C4F200034FF00002C7
:101200001A7044F60663C4F200034FF03F021A70EE
:1012100044F60863C4F200034FF000021A7044F66B
:101220000963C4F200034FF000021A7044F60A6327
:10123000C4F200034FF000021A7045F68403C4F2B2
:1012400000034FF050021A7045F68503C4F2000304
:101250004FF027021A7045F68603C4F200034FF0E0
:101260002C021A7045F68703C4F200034FF0000207
:101270001A7045F68803C4F200034FF012021A7088
:1012800045F68903C4F200034FF013021A7045F6C5
:101290008A03C4F200034FF055021A7045F68B031F
:1012A000C4F200034FF05A021A7045F68C03C4F2E0
:1012B00000034FF005021A7045F68E03C4F20003D6
:1012C0004FF001021A7045F68F03C4F200034FF08D
:1012D00011021A7045F69003C4F200034FF0190290
:1012E0001A7045F69103C4F200036FF068021A7099
:1012F0004FF0440000F036FB45F69403C4F20003BF
:101300004FF058021A7045F69503C4F200034FF0EF
:1013100000021A7045F69A03C4F200034FF005026A
:101320001A7045F69B03C4F200034FF002021A70D4
:1013300045F69C03C4F200034FF001021A7045F613
:101340009D03C4F200034FF000021A7045F6073304
:10135000C4F2000345F60732C4F200021278D2B29A
:1013600042F01802D2B21A704FF0000000F080FC78
:1013700048F22433C1F6FF734FF47A421A604FF0FB
:101380001D004FF00101FFF703F94FF01D0041F67A
:10139000A131C0F20001FFF7CBF84EF20013CEF2FC
:1013A00000034FF000521A60FB79032B40F0F680E7
:1013B00044F60063C4F200034FF038021A7044F69A
:1013C0000263C4F200034FF004021A7044F6036390
:1013D000C4F200034FF006021A7044F60463C4F22C
:1013E00000034FF000021A7044F60563C4F20003D4
:1013F0004FF000021A7044F60663C4F200034FF087
:101400003F021A7044F60863C4F200034FF0000272
:101410001A7044F60963C4F200034FF000021A7018
:1014200044F60A63C4F200034FF000021A7045F656
:101430008403C4F200034FF050021A7045F685038E
:10144000C4F200034FF027021A7045F68603C4F277
:1014500000034FF02C021A7045F68703C4F2000314
:101460004FF000021A7045F68803C4F200034FF0F3
:1014700012021A7045F68903C4F200034FF01302FA
:101480001A7045F68A03C4F200034FF055021A7031
:1014900045F68B03C4F200034FF05A021A7045F66A
:1014A0008C03C4F200034FF005021A7045F68E0358
:1014B000C4F200034FF001021A7045F68F03C4F224
:1014C00000034FF011021A7045F69003C4F20003B6
:1014D0004FF019021A7045F69103C4F200036FF041
:1014E00068021A704FF0440000F03CFA45F694038D
:1014F000C4F200034FF058021A7045F69503C4F287
:1015000000034FF000021A7045F69A03C4F200037C
:101510004FF005021A7045F69B03C4F200034FF02A
:1015200002021A7045F69C03C4F200034FF0010258
:101530001A7045F69D03C4F200034FF000021A70C2
:1015400045F60733C4F2000345F60732C4F2000241
:101550001278D2B242F01802D2B21A704FF00000E4
:1015600000F086FB48F22433C1F6FF734FF47A4251
:101570001A604FF01D004FF00101FFF709F84FF01E
:101580001D0041F6AD31C0F20001FEF7D1FF4EF271
:101590000013CEF200034FF000521A60FB79042BC7
:1015A00040F0F68044F60063C4F200034FF03802C6
:1015B0001A7044F60263C4F200034FF004021A707A
:1015C00044F60363C4F200034FF006021A7044F6B7
:1015D0000463C4F200034FF000021A7044F605637E
:1015E000C4F200034FF000021A7044F60663C4F21E
:1015F00000034FF03F021A7044F60863C4F2000380
:101600004FF000021A7044F60963C4F200034FF071
:1016100000021A7044F60A63C4F200034FF000029D
:101620001A7045F68403C4F200034FF050021A709A
:1016300045F68503C4F200034FF027021A7045F601
:101640008603C4F200034FF02C021A7045F687039C
:10165000C4F200034FF000021A7045F68803C4F28A
:1016600000034FF012021A7045F68903C4F200031A
:101670004FF013021A7045F68A03C4F200034FF0CC
:1016800055021A7045F68B03C4F200034FF05A025C
:101690001A7045F68C03C4F200034FF005021A706D
:1016A00045F68E03C4F200034FF001021A7045F6AE
:1016B0008F03C4F200034FF011021A7045F6900335
:1016C000C4F200034FF019021A7045F69103C4F2F8
:1016D00000036FF068021A704FF0440000F042F906
:1016E00045F69403C4F200034FF058021A7045F611
:1016F0009503C4F200034FF000021A7045F69A03F6
:10170000C4F200034FF005021A7045F69B03C4F2C1
:1017100000034FF002021A7045F69C03C4F2000366
:101720004FF001021A7045F69D03C4F200034FF01A
:1017300000021A7045F60733C4F2000345F607327B
:10174000C4F200021278D2B242F01802D2B21A7079
:101750004FF0000000F08CFA48F22433C1F6FF731A
:101760004FF47A421A604FF01D004FF00101FEF76E
:101770000FFF4FF01D0041F6B931C0F20001FEF736
:10178000D7FE4EF20013CEF200034FF000521A6063
:1017900007F10807BD4680BD80B487B000AFF8717F
:1017A000B9807A807B70FB79A3F10403062B5DD8A6
:1017B00001A252F823F000BFD51700006D180000F9
:1017C0006D180000FB170000211800006D180000C4
:1017D000471800007B780F2B07D940F21413C4F68A
:1017E00000131B78DBB2FB7343E040F21813C4F61E
:1017F00000131B78DBB2FB733BE07B780F2B07D920
:1018000040F21513C4F600131B78DBB2FB7330E013
:1018100040F21913C4F600131B78DBB2FB7328E007
:101820007B780F2B07D940F21613C4F600131B78F0
:10183000DBB2FB731DE040F21A13C4F600131B78F1
:10184000DBB2FB7315E07B780F2B07D940F217133F
:10185000C4F600131B78DBB2FB730AE040F21B13E3
:10186000C4F600131B78DBB2FB7302E04FF00003F9
:10187000FB73FB79002B11D0FB79012B0ED0FB7988
:10188000022B0BD0FB79032B08D0FB79052B05D05D
:10189000FB79062B02D0FB79092B03D14FF0000313
:1018A0003B8206E097F90F309BB24FEA43139BB29D
:1018B0003B823A8ABB8813447B827B8A7A8802FB0C
:1018C00003F37B617B694FEAD3337B827B780D2BFB
:1018D00012D87A8A7B786FEA030303F10F0342FA86
:1018E00003F37B8244F60E63C4F200037A7802F1BC
:1018F0000102D2B21A7006E044F60E63C4F200038D
:101900004FF00F021A7044F60C63C4F200037A8A97
:10191000D2B21A7044F60D63C4F200037A8A4FEA19
:10192000122292B2D2B21A70FB79012B14D144F672
:101930000C63C4F200034FF000021A7044F60D630A
:10194000C4F200034FF000021A7044F60E63C4F2B2
:1019500000034FF000021A7007F11C07BD4680BC5F
:10196000704700BF80B582B000AF0346FB7144F200
:10197000F563C4F2000344F2F562C4F20002127887
:10198000D2B242F01002D2B21A7044F2F763C4F23B
:10199000000344F2F762C4F200021278D2B242F0BD
:1019A0000802D2B21A7045F69203C4F20003FA7923
:1019B0001A704FF00300FEF7A7FD44F2F563C4F27E
:1019C000000344F2F562C4F200021278D2B202F0CF
:1019D000EF021A7044F2F763C4F2000344F2F762B4
:1019E000C4F200021278D2B202F0F7021A7007F1C4
:1019F0000807BD4680BD00BFB0B500AFFFF752FA83
:101A000003469AB248F23C33C1F6FF731A8048F29B
:101A10003C33C1F6FF731B881BB2002B06DA48F279
:101A20003C33C1F6FF734FF000021A8048F23C339A
:101A3000C1F6FF731B881BB20E2B04DC4FF00100B4
:101A400000F008FA03E04FF0000000F003FA48F25B
:101A50004033C1F6FF731B881AB248F21013C1F667
:101A6000FF7333F812301BB2A3F1C80248F23C33C3
:101A7000C1F6FF731B881BB2C3EB020248F254335A
:101A8000C1F6FF731A6048F24433C1F6FF735B6816
:101A9000184601F0A5F804460D4648F25433C1F645
:101AA000FF731B68184601F09BF802460B46104670
:101AB000194637A3D3E9002301F0F8F802460B4694
:101AC0002046294600F040FF02460B4610461946C4
:101AD00001F0FEFA024648F24433C1F6FF735A6041
:101AE00048F25433C1F6FF731B68184601F078F8CA
:101AF00002460B461046194627A3D3E9002301F0FE
:101B0000D5F802460B4614461D4648F24433C1F64A
:101B1000FF735B68184601F063F802460B462046E7
:101B2000294600F011FF02460B461046194601F007
:101B3000CFFA024648F24433C1F6FF731A6048F206
:101B40004433C1F6FF731B68B3F5C77F07DD48F266
:101B50004433C1F6FF734FF4C7721A600DE048F2C8
:101B60004433C1F6FF731B68002B06DA48F2443396
:101B7000C1F6FF734FF000021A6048F24433C1F619
:101B8000FF731B681846FEF717FCB0BDAFF300806B
:101B9000295C8FC2F528CC3FFCA9F1D24D62803F71
:101BA00080B400AFBD4680BC704700BF80B400AFBA
:101BB000BD4680BC704700BF80B400AFBD4680BC4E
:101BC000704700BF80B483B000AF0346FB7144F29E
:101BD0000213C4F2000344F20212C4F200021278AB
:101BE000D1B2FA7902F0F80241EA0202D2B21A70D6
:101BF00007F10C07BD4680BC704700BF80B483B0BE
:101C000000AF0346FB7144F28603C4F2000344F2C2
:101C10008602C4F200021278D1B2FA7902F0F80218
:101C200041EA0202D2B21A7007F10C07BD4680BC2D
:101C3000704700BF80B582B000AF4FF00003FB716A
:101C400007E0FB79184600F087FCFB7903F10103FC
:101C5000FB71FB79012BF4D948F23433C1F6FF73E1
:101C60004FF0FF321A7007F10807BD4680BD00BF74
:101C700080B582B000AF0346FB71FFF7DBFFFB7955
:101C8000184600F043FC48F23433C1F6FF73FA798A
:101C90001A7007F10807BD4680BD00BF80B500AFD0
:101CA00048F27433C1F6FF731B78002B08D100F0A3
:101CB0000BF848F27433C1F6FF734FF001021A704B
:101CC00000F02AF880BD00BF80B400AF46F28E431A
:101CD000C4F200034FF072021A7046F28D43C4F250
:101CE00000034FF000021A7046F22943C4F20003C9
:101CF0004FF007021A7046F23943C4F200034FF066
:101D000048021A7046F28943C4F200034FF0000201
:101D10001A70BD4680BC704780B582B000AFFEF738
:101D2000BBFB0346FB7146F29E43C4F2000346F23E
:101D30009E42C4F200021278D2B242F02002D2B225
:101D40001A7046F29D43C4F2000346F29D42C4F26B
:101D500000021278D2B242F01002D2B21A7046F2E9
:101D60009943C4F2000346F29942C4F20002127889
:101D7000D2B242F01002D2B21A7000F049F8FB79E8
:101D80001846FEF78DFB07F10807BD4680BD00BF72
:101D900080B483B000AF4FF00003BB7146F26D43D7
:101DA000C4F200031B78FB71FB7903F02003002BC6
:101DB0000DD046F24E43C4F200031B78BB71FB7991
:101DC00003F01E03002B02D04FF00003BB71BB7960
:101DD000184607F10C07BD4680BC704780B483B03D
:101DE00000AF0346FB7146F26943C4F200031B785F
:101DF000DBB203F00403002BF5D146F24A43C4F2F0
:101E00000003FA791A7007F10C07BD4680BC7047D1
:101E100080B400AF44F2A233C4F2000344F2A23211
:101E2000C4F200021278D2B242F01002D2B21A709A
:101E300044F2B233C4F2000344F2B232C4F20002FC
:101E40001278D2B242F01002D2B21A70BD4680BCF3
:101E5000704700BF80B483B000AF0346FB7146F209
:101E60007753C4F20003FA791A7007F10C07BD46E4
:101E700080BC704780B500AF44F60073C4F2000325
:101E800044F60072C4F200021278D2B202F00102EB
:101E90001A7044F60173C4F2000344F60172C4F2EE
:101EA00000021278D2B202F0F1021A7044F6017305
:101EB000C4F2000344F60172C4F200021278D2B2F6
:101EC00042F00102D2B21A7044F60A73C4F200035F
:101ED00044F60A72C4F200021278D2B202F0CF02C3
:101EE0001A7044F60A73C4F2000344F60A72C4F28C
:101EF00000021278D2B242F03002D2B21A7044F626
:101F00000A73C4F2000344F60A72C4F200021278A3
:101F1000D2B202F0F0021A7044F60A73C4F200035F
:101F200044F60A72C4F200021278D2B242F00F02F2
:101F3000D2B21A7040F21B3000F05CF84FF0000093
:101F400000F048F880BD00BF80B400AF44F2A33376
:101F5000C4F2000344F2A332C4F200021278D2B2F7
:101F600042F00102D2B21A7044F2B333C4F2000359
:101F700044F2B332C4F200021278D2B242F001024B
:101F8000D2B21A7044F60073C4F2000344F6007231
:101F9000C4F200021278D2B242F00102D2B21A7038
:101FA000BD4680BC704700BF80B500AF48F27633B5
:101FB000C1F6FF731B78002B08D1FFF75BFF48F2D7
:101FC0007633C1F6FF734FF001021A70FFF7BCFFC2
:101FD00080BD00BF80B483B000AF0346FB7144F600
:101FE0000873C4F20003FA791A7007F10C07BD46B2
:101FF00080BC704780B483B000AF0346FB8044F6DA
:102000000273C4F20003FA881A8007F10C07BD4678
:1020100080BC704780B500AF00F064F842F2390030
:10202000C0F2000000F02AF84FF0000000F03AF88B
:1020300000F04CF880BD00BF80B400AF48F24033E0
:10204000C1F6FF731B8803F101039AB248F24033D3
:10205000C1F6FF731A8048F24033C1F6FF731B8844
:102060001BB2FF2B06DD48F24033C1F6FF734FF081
:1020700000021A80BD4680BC704700BF80B485B0A6
:1020800000AF78604EF60853CEF200031B68FB6089
:10209000FB6803F140037A681A6007F11407BD4634
:1020A00080BC704780B483B000AF0346FB714EF232
:1020B0000043CEF20003FA794FEA4212D2B21A700C
:1020C00007F10C07BD4680BC704700BF80B400AF6D
:1020D0004EF20013CEF200034FF001021A60BD462B
:1020E00080BC704780B400AF4EF28013CEF2000384
:1020F0004FF001021A60BD4680BC704780B400AF4B
:1021000044F2A233C4F2000344F2A232C4F2000249
:102110001278D2B242F00802D2B21A7044F2B2334C
:10212000C4F2000344F2B232C4F200021278D2B216
:1021300042F00802D2B21A70BD4680BC704700BFA0
:1021400080B485B000AF786039607B68BB604FF0C9
:102150000003FB6009E0BA68FB6813444FF000021B
:102160001A70FB6803F10103FB60FA683B689A424E
:10217000F1D307F11407BD4680BC704780B489B025
:1021800000AFF860B9607A60FB687B61BB68BB61D7
:102190004FF00003FB610BE07A69FB691344B969F6
:1021A000FA690A4412781A70FB6903F10103FB61B2
:1021B000FA697B689A42EFD307F12407BD4680BCD9
:1021C000704700BF80B582B000AF78603960786832
:1021D0004FF000013A6801F06BF807F10807BD46BF
:1021E00080BD00BF80B584B000AFF860B9607A6090
:1021F000F868B9687A6800F093FF07F11007BD46E8
:1022000080BD00BF80B487B000AF786039604FF008
:102210000003FB604FF00003BB602CE0BB684FEA9B
:1022200083027B6813441B683B613B69FB753B6918
:1022300023F0FF033B6117E0FB684FEA43023B6872
:1022400013441B781A463B691344FA684FEA42016B
:102250003A680A4452781A70FB6803F10103FB6084
:10226000FB7D03F1FF33FB75FB7D002BE4D1BB68E5
:1022700003F10103BB60BB68202BCFD907F11C071A
:10228000BD4680BC704700BF80B500AF44F28003FC
:10229000C4F200034FF001021A8044F28203C4F238
:1022A00000034FF018021A7044F28403C4F20003D2
:1022B0004FF002021A8044F28603C4F200034FF08A
:1022C00018021A7044F28803C4F200034FF0170298
:1022D0001A8044F28A03C4F200034FF018021A7005
:1022E00044F28C03C4F200034FF017021A8044F248
:1022F0008E03C4F200034FF018021A7044F29003E8
:10230000C4F200034FF49C721A8044F29203C4F2A8
:1023100000034FF018021A7044F20010C4F20000DB
:1023200040F6A801C4F600014FF00402FFF75AFF7F
:1023300044F20033C4F200034FF002021A7044F278
:102340000003C4F200034FF008021A7044F20023A5
:10235000C4F200034FF003021A7044F2A163C4F206
:10236000000340F20812C4F600121278D2B21A70BA
:1023700044F22223C4F200034FF008021A8044F210
:102380002023C4F2000341F251021A8040F6B83013
:10239000FEF77AF844F20403C4F200034FF003029C
:1023A0001A7044F20503C4F200034FF001021A70E0
:1023B00044F20403C4F200034FF000021A7044F226
:1023C0000403C4F200034FF007021A7044F206033C
:1023D000C4F200034FF000021A7044F20803C4F282
:1023E00000034FF048021A7044F20403C4F20003E1
:1023F0004FF000021A7044F20103C4F200034FF0E0
:1024000002021A7044F20B03C4F200034FF00402FC
:102410001A7044F2A233C4F2000344F2A232C4F2AE
:1024200000021278D2B242F01F02D2B21A7044F205
:10243000A133C4F2000344F2A132C4F200021278C4
:10244000D2B242F00102D2B21A7080BD80B400AFA5
:1024500044F2AA33C4F200034FF444721A8045F2E6
:102460001D13C4F200034FF004021A7045F6200356
:10247000C4F200034FF01E021A7045F62403C4F2A2
:1024800000034FF01E021A7045F62803C4F2000341
:102490004FF01E021A7045F62C03C4F200034FF0F1
:1024A0001E021A7045F60013C4F200036FF03F02DB
:1024B0001A7045F60313C4F200034FF00C021A70B1
:1024C00045F60813C4F200036FF03F021A7045F698
:1024D0000B13C4F200034FF00C021A7045F60033E0
:1024E000C4F200034FF004021A7045F65833C4F2E8
:1024F00000034FF004021A7045F67603C4F200039D
:102500004FF044021A70BD4680BC704780B483B05F
:1025100000AF0346FB71FB79012B18D8FA7943F21F
:102520001843C0F2000353F82220F97943F218430C
:10253000C0F2000353F821301978F87943F22043B0
:10254000C0F200031B5C41EA0303DBB2137007F126
:102550000C07BD4680BC704780B483B000AF034613
:10256000FB71FB79012B1BD8FA7943F21843C0F2B7
:10257000000353F82220F97943F21843C0F2000314
:1025800053F821301978F87943F22043C0F2000360
:102590001B5C6FEA0303DBB201EA0303DBB21370D7
:1025A00007F10C07BD4680BC704700BF80B586B000
:1025B00000AF72B644F60003C4F200034FF000020D
:1025C0001A70FFF761FE44F60003C4F200036FF0D7
:1025D0007F021A7047F21003C4F200034FF00002AA
:1025E0001A7047F22003C4F200034FF000021A7081
:1025F00045F67C03C4F200034FF001021A7044F266
:10260000E863C4F2000344F2E862C4F20002127804
:10261000D2B242F00102D2B21A704FF00003FB7046
:102620002FE0FA7813464FEA430313444FEA43037B
:102630001A4643F22443C0F2000313447B607B68D4
:102640001A7859784FEA012141EA020299784FEA53
:10265000014141EA0202DB784FEA036343EA0203E5
:102660001A467B6819795B794FEA032343EA010331
:102670009BB210461946FFF7A5FDFB7803F1010355
:10268000FB70FB78072BCCD94FF00003FB7043E0C5
:10269000FA7813464FEA830313444FEA43031A467A
:1026A00043F25443C0F200031344BB60BB681A7882
:1026B00059784FEA012141EA020299784FEA014133
:1026C00041EA0202DB784FEA036343EA0203FB605C
:1026D000BB681A7959794FEA012141EA02029979D6
:1026E0004FEA014141EA0202DB794FEA036343EA20
:1026F00002033B61BB681A7A5B7A4FEA032343EA21
:102700000203FB82FB8AF86839691A46FFF76AFD03
:10271000FB7803F10103FB70FB78002BB8D04FF07E
:10272000904040F28401C4F60001FFF76BFD45F2D2
:102730000020C4F2000040F68001C4F600014FF012
:102740000702FFF71BFD45F20820C4F200004FF01E
:102750000701FFF7F5FC45F21020C4F200004FF02E
:102760000701FFF7EDFC45F21820C4F200004FF01E
:102770000701FFF7E5FC45F22020C4F2000040F617
:102780008801C4F600014FF00702FFF7F7FC45F29D
:102790002820C4F2000040F69001C4F600014FF07A
:1027A0000702FFF7EBFC45F23020C4F2000040F6D0
:1027B0009801C4F600014FF00702FFF7DFFC45F275
:1027C0006020C4F200004FF00601FFF7B9FC45F2AB
:1027D0007820C4F2000040F6A001C4F600014FF0DA
:1027E0000702FFF7CBFC45F20303C4F2010345F2F5
:1027F0000302C4F201021278D2B242F00202D2B253
:102800001A7045F21303C4F2010345F21302C4F235
:1028100001021278D2B242F00202D2B21A7044F22D
:10282000A033C4F2000344F2A032C4F200021278D2
:10283000D2B242F04002D2B21A7044F2C233C4F2B1
:10284000000344F2C232C4F200021278D2B242F063
:102850001002D2B21A7045F20010C4F2000040F625
:102860004401C4F600014FF00A02FFF7BBFC45F239
:10287000F210C4F2000040F65001C4F600014FF01F
:102880000802FFF7AFFC45F21210C4F2000040F658
:102890005801C4F600014FF00802FFF7A3FC45F20F
:1028A0002210C4F2000040F66001C4F600014FF0AF
:1028B0000802FFF797FC45F24210C4F2000040F610
:1028C0006801C4F600014FF00802FFF78BFC45F2E7
:1028D0005210C4F2000040F67001C4F600014FF03F
:1028E0000802FFF77FFC45F26210C4F2000040F6D8
:1028F0007801C4F600014FF00802FFF773FCFFF700
:10290000A5FD44F2B030C4F2000044F2A031C4F29C
:1029100000014FF00C02FFF765FC44F2B033C4F243
:10292000000344F2B032C4F200021278D2B202F0D4
:10293000FD021A7007F11807BD4680BD81F0004105
:1029400002E000BF83F0004330B54FEA41044FEA94
:10295000430594EA050F08BF90EA020F1FBF54EA2F
:10296000000C55EA020C7FEA645C7FEA655C00F0CB
:10297000E2804FEA5454D4EB5555B8BF6D420CDD9C
:102980002C4480EA020281EA030382EA000083EA1F
:10299000010180EA020281EA0303362D88BF30BDBF
:1029A00011F0004F4FEA01314FF4801C4CEA113115
:1029B00002D0404261EB410113F0004F4FEA033374
:1029C0004CEA133302D0524263EB430394EA050FFF
:1029D00000F0A780A4F10104D5F1200E0DDB02FA6E
:1029E0000EFC22FA05F2801841F1000103FA0EF202
:1029F000801843FA05F359410EE0A5F120050EF1C8
:102A0000200E012A03FA0EFC28BF4CF0020C43FAF8
:102A100005F3C01851EBE37101F0004507D54FF005
:102A2000000EDCF1000C7EEB00006EEB0101B1F555
:102A3000801F1BD3B1F5001F0CD349085FEA30009B
:102A40004FEA3C0C04F101044FEA445212F5800FA6
:102A500080F09A80BCF1004F08BF5FEA500C50F143
:102A6000000041EB045141EA050130BD5FEA4C0C26
:102A7000404141EB010111F4801FA4F10104E9D1AF
:102A800091F0000F04BF01460020B1FA81F308BFA6
:102A90002033A3F10B03B3F120020CDA0C3208DD72
:102AA00002F1140CC2F10C0201FA0CF021FA02F14D
:102AB0000CE002F11402D8BFC2F1200C01FA02F1BD
:102AC00020FA0CFCDCBF41EA0C019040E41AA2BFE2
:102AD00001EB0451294330BD6FEA04041F3C1CDAAA
:102AE0000C340EDC04F11404C4F1200220FA04F0CA
:102AF00001FA02F340EA030021FA04F345EA030174
:102B000030BDC4F10C04C4F1200220FA02F001FA35
:102B100004F340EA0300294630BD21FA04F02946B7
:102B200030BD94F0000F83F4801306BF81F4801150
:102B30000134013D4EE77FEA645C18BF7FEA655CC3
:102B400029D094EA050F08BF90EA020F05D054EA95
:102B5000000C04BF1946104630BD91EA030F1EBF9A
:102B60000021002030BD5FEA545C05D1400049419E
:102B700028BF41F0004130BD14F580043CBF01F591
:102B8000801130BD01F0004545F0FE4141F4700177
:102B90004FF0000030BD7FEA645C1ABF1946104652
:102BA0007FEA655C1CBF0B46024650EA013406BF53
:102BB00052EA033591EA030F41F4002130BD00BF12
:102BC00090F0000F04BF0021704730B54FF48064CF
:102BD00004F132044FF000054FF0000150E700BF50
:102BE00090F0000F04BF0021704730B54FF48064AF
:102BF00004F1320410F0004548BF40424FF000019C
:102C00003EE700BF42004FEAE2014FEA31014FEADE
:102C100002701FBF12F07F4393F07F4F81F060512D
:102C2000704792F0000F14BF93F07F4F704730B59C
:102C30004FF4607401F0004521F0004120E700BF2F
:102C400050EA010208BF704730B54FF000050AE0B6
:102C500050EA010208BF704730B511F0004502D5B7
:102C6000404261EB41014FF4806404F132045FEAB9
:102C7000915C3FF4DCAE4FF003025FEADC0C18BF5E
:102C800003325FEADC0C18BF033202EBDC02C2F154
:102C9000200300FA03FC20FA02F001FA03FE40EAE6
:102CA0000E0021FA02F11444C1E600BF70B54FF0E6
:102CB000FF0C4CF4E06C1CEA11541DBF1CEA1355C8
:102CC00094EA0C0F95EA0C0F00F0DEF82C4481EA30
:102CD000030621EA4C5123EA4C5350EA013518BF50
:102CE00052EA033541F4801143F4801338D0A0FB3D
:102CF00002CE4FF00005E1FB02E506F00042E0FBEA
:102D000003E54FF00006E1FB03569CF0000F18BFEF
:102D10004EF0010EA4F1FF04B6F5007F64F5407497
:102D200004D25FEA4E0E6D4146EB060642EAC6212A
:102D300041EA55514FEAC52040EA5E504FEACE2E97
:102D4000B4F1FD0C88BFBCF5E06F1ED8BEF1004F9A
:102D500008BF5FEA500E50F1000041EB045170BD16
:102D600006F0004646EA010140EA020081EA03015A
:102D7000B4EB5C04C2BFD4EB0C0541EA045170BD56
:102D800041F480114FF0000E013C00F3AB8014F1D0
:102D9000360FDEBF002001F0004170BDC4F1000419
:102DA000203C35DA0C341BDC04F11404C4F120059A
:102DB00000FA05F320FA04F001FA05F240EA0200F5
:102DC00001F0004221F0004110EBD37021FA04F62B
:102DD00042EB06015EEA430E08BF20EAD37070BDE5
:102DE000C4F10C04C4F1200500FA04F320FA05F044
:102DF00001FA04F240EA020001F0004110EBD37046
:102E000041F100015EEA430E08BF20EAD37070BDB5
:102E1000C4F1200500FA05F24EEA020E20FA04F38E
:102E200001FA05F243EA020321FA04F001F000413D
:102E300021FA04F220EA020000EBD3705EEA430EAE
:102E400008BF20EAD37070BD94F0000F0FD101F0DD
:102E50000046400041EB010111F4801F08BF013C16
:102E6000F7D041EA060195F0000F18BF704703F054
:102E70000046520043EB030313F4801F08BF013DDB
:102E8000F7D043EA0603704794EA0C0F0CEA135597
:102E900018BF95EA0C0F0CD050EA410618BF52EA51
:102EA0004306D1D181EA030101F000414FF0000057
:102EB00070BD50EA410606BF1046194652EA430665
:102EC00019D094EA0C0F02D150EA013613D195EAD9
:102ED0000C0F05D152EA03361CBF104619460AD121
:102EE00081EA030101F0004141F0FE4141F470012B
:102EF0004FF0000070BD41F0FE4141F4780170BD1B
:102F000070B54FF0FF0C4CF4E06C1CEA11541DBF7F
:102F10001CEA135594EA0C0F95EA0C0F00F0A7F881
:102F2000A4EB050481EA030E52EA03354FEA0131AE
:102F300000F088804FEA03334FF0805545EA1313C1
:102F400043EA12634FEA022245EA111545EA106589
:102F50004FEA00260EF000419D4208BF964244F120
:102F6000FD0404F5407402D25B084FEA3202B61A3F
:102F700065EB03055B084FEA32024FF480104FF413
:102F8000002CB6EB020E75EB030E22BFB61A754687
:102F900040EA0C005B084FEA3202B6EB020E75EB1A
:102FA000030E22BFB61A754640EA5C005B084FEA82
:102FB0003202B6EB020E75EB030E22BFB61A75464F
:102FC00040EA9C005B084FEA3202B6EB020E75EB5A
:102FD000030E22BFB61A754640EADC0055EA060E1B
:102FE00018D04FEA051545EA16754FEA06164FEA5E
:102FF000C30343EA52734FEAC2025FEA1C1CC0D10A
:1030000011F4801F0BD141EA00014FF000004FF096
:10301000004CB6E711F4801F04BF01430020B4F157
:10302000FD0C88BFBCF5E06F3FF6AFAEB5EB030C0F
:1030300004BFB6EB020C5FEA500C50F1000041EB0C
:10304000045170BD0EF0004E4EEA113114EB5C04D9
:10305000C2BFD4EB0C0541EA045170BD41F48011AC
:103060004FF0000E013C90E645EA060E8DE60CEAB4
:10307000135594EA0C0F08BF95EA0C0F3FF43BAFD1
:1030800094EA0C0F0AD150EA01347FF434AF95EA88
:103090000C0F7FF425AF104619462CE795EA0C0F6C
:1030A00006D152EA03353FF4FDAE1046194622E739
:1030B00050EA410618BF52EA43067FF4C5AE50EA13
:1030C00041047FF40DAF52EA43057FF4EBAE12E703
:1030D0004FEA410212F5001215D211D56FF4787340
:1030E000B3EB625212D94FEAC12343F0004343EAE3
:1030F000505311F0004F23FA02F018BF40427047BE
:103100004FF00000704750EA013005D111F0004047
:1031100008BF6FF0004070474FF00000704700BFDD
:10312000032A2DE9F0070BD83AB1002311F803C0A8
:1031300000F803C001339342F8D1BDE8F0077047AF
:1031400082180C46034603E014F8011C03F8011C26
:1031500003F003061946A44601330134002EF3D1CF
:103160001CF00304634608BFC1EB020C68D0654243
:10317000C4F1040A0CEB050733464FEACA0A5CF8AF
:1031800005604FEAC408551A08E057F8044F264670
:1031900004FA0AF449EA0404CC5004335C18032D01
:1031A00026FA08F9A5F104050CEB0306EDDC002373
:1031B00002E0F15CE154013319199142F9D3BCE703
:1031C00053F8404C41F8404C53F83C4C41F83C4CCF
:1031D00053F8384C41F8384C53F8344C41F8344CDF
:1031E00053F8304C41F8304C53F82C4C41F82C4CEF
:1031F00053F8284C41F8284C53F8244C41F8244CFF
:1032000053F8204C41F8204C53F81C4C41F81C4C0E
:1032100053F8184C41F8184C53F8144C41F8144C1E
:1032200053F8104C41F8104C53F80C4C41F80C4C2E
:1032300053F8084C41F8084C53F8044C41F8044C3E
:103240001C460D4640334031BCF13F0FACF1400C01
:10325000B6DC21462B46541B0FE051F8105C43F8B6
:10326000105C51F80C5C43F80C5C51F8085C43F8B6
:10327000085C51F8045C43F8045C0F2C0D469C4636
:1032800001F1100103F11003A4F11004E5DCCCEB13
:103290000201002303E0EC584CF8034004335E19AC
:1032A000032903EB0C04A1F10401F4DC7FE700BF68
:1032B000032AC9B230B407D822B10023C154013364
:1032C0009342FBD130BC704700EB020C034601E097
:1032D00003F8011C03F003041A460133002CF7D154
:1032E0004FF00133C2EB0C0403FB01F31FE042F883
:1032F000403C42F83C3C42F8383C42F8343C42F80E
:10330000303C42F82C3C42F8283C42F8243C42F83D
:10331000203C42F81C3C42F8183C42F8143C42F86D
:10332000103C42F80C3C42F8083C42F8043C15467C
:1033300040323F2CA4F14004D9DC2A46C5EB0C04F2
:1033400007E042F8103C42F80C3C42F8083C42F8D6
:10335000043C154610320F2CA4F11004F1DC2A466F
:10336000C5EB0C0501E042F8043C14460432032D81
:10337000A5F10405F7DC01E004F8011B6445FBD36B
:10338000A0E700BF08B500F017F8074800B10068D3
:10339000064901B109680022FCF780FE044B0BB11D
:1033A000AFF30080FEE700BF000000000000000057
:1033B00000000000FEE7000070B543F26C4643F2E7
:1033C0006C45C0F20006C0F20005761BB61006D0B0
:1033D000002455F8243001349847A642F9D843F226
:1033E0006C4543F27446C0F20005C0F20006761B3D
:1033F00000F036F8B61006D0002455F82430013419
:083400009847A642F9D870BDFF
:103408003031323334353637383941424344454612
:10341800035B0040035B004040400000004F004059
:103428000B00305100401000C05100401000000057
:103438000140000E800E0140800100140140000888
:1034480000400140000A004C01400002000E01400B
:10345800C407004880000000F8B500BFF8BC08BCED
:103468009E467047810000008D010000F8B500BF3E
:10347800F8BC08BC9E4670476D00000000000000C4
:10348800983400000881FF1F300200004800000047
:103498000000000000000442C800CA00CD00CF00B0
:1034A800D200D400D700D900DC00DE00E000E30041
:1034B800E500E800EA00ED00EF00F100F400F60096
:1034C800F900FB00FD0000010201040107010901E8
:1034D8000B010E01100112011501170119011B0141
:1034E8001E01200122012401260128012B012D01A2
:1034F8002F01310133013501370139013B013D010C
:103508003F01410143014501470149014B014C017C
:103518004E015001520154015501570159015B01F7
:103528005C015E015F01610163016401660167017D
:1035380069016A016C016D016E017001710172010E
:10354800740175017601770178017A017B017C01AC
:103558007D017E017F018001810182018301830158
:103568008401850186018701870188018901890114
:103578008A018B018B018C018C018D018D018D01DC
:103588008E018E018E018F018F018F018F019001B5
:10359800900190019001900190019001900190019B
:1035A800900190018F018F018F018F018E018E0193
:1035B8008E018D018D018D018C018C018B018B0198
:1035C8008A018901890188018701870186018501AE
:1035D8008401830183018201810180017F017E01D1
:1035E8007D017C017B017A01780177017601750103
:1035F80074017201710170016E016D016C016A0143
:103608006901670166016401630161015F015E018F
:103618005C015B01590157015501540152015001E8
:103628004E014C014B01490147014501430141014C
:103638003F013D013B0139013701350133013101BA
:103648002F012D012B01280126012401220120012F
:103658001E011B01190117011501120110010E01AC
:103668000B0109010701040102010001FD00FB0033
:10367800F900F600F400F100EF00ED00EA00E800C0
:10368800E500E300E000DE00DC00D900D700D4004C
:10369800D200CF00CD00CA0000366E01C05D000028
:1036A800180000000000E02E010000006600000085
:1036B800022228EB5205021800000000FF0000005B
:04000003000001698F
:00000001FF
