:1000000000800020A50100009D0100009D0100006E
:1000100080B51448144B21E05C689968DD688C4217
:100020000CD0002205E0A6180832D6E9008941E983
:1000300002898C460831AA42F5D101E004EB050C97
:100040001C696146002204E008320026002741E9CD
:1000500002670831A242F7D1143301380028DBD1FE
:1000600002F0D2FD01000000002D000048F23853DC
:10007000C1F6FF731A780AB901201870704700BFE3
:1000800048F20810C1F6FF7008B503682BB140F2C2
:100090000003C0F2000303B1984708BD80B500AF6C
:1000A00000F010FA00F0E4FF00F05AFD42F68C4038
:1000B000C0F2000000F0A4FD4EF20013CEF20003E7
:1000C0004FF000521A6001F047F901F063F900F0B7
:1000D000D5F800F019FA00F02DFB01F0A3FF48F26B
:1000E0005853C1F6FF7348F20C12C1F6FF721A6042
:1000F00041F2883000F050FC62B602F00DF8034681
:100100001A4648F24053C1F6FF731A7048F2405342
:10011000C1F6FF731B78562B15D148F23A53C1F63E
:10012000FF731B881BB24FEA23239BB2DBB2184636
:1001300002F018F848F23A53C1F6FF731B88DBB29D
:10014000184602F00FF84FF001004FF0000100F0E8
:100150001DFD48F23A53C1F6FF731B889BB2184647
:1001600000F070FF4FF001004FF0080100F00EFDAD
:1001700048F23E53C1F6FF731B881AB248F20C13C3
:10018000C1F6FF7333F812309BB2184600F05AFFE5
:100190004FF0320000F000FCAFE700BF80B400AFCA
:1001A000FEE700BF054B1C7844F001041C70044BB3
:1001B0001A78D2B2034B1A70FFF72AFFE8460040C4
:1001C000F8460040BC76004080B582B000AF4EF6E5
:1001D0000C53CEF2000340F20042C0F2FA521A6011
:1001E0004EF61453CEF200034EF61452CEF2000235
:1001F000126842F400721A604FF000037B6019E04D
:1002000079687B68032B07D87A6840F20003C0F254
:10021000000353F8223003E040F29D13C0F20003C4
:1002200048F20002C1F6FF7242F821307B6803F108
:1002300001037B607B682F2BE2D947F2BC63C4F2D9
:1002400000031B78DAB248F25C53C1F6FF731A70F0
:100250004EF60853CEF2000348F20002C1F6FF72D8
:100260001A6002F015FA48F20013C1F6FF734FF05E
:1002700000021A6007F10807BD4680BD80B500AFD7
:1002800048F24253C1F6FF731B78002B08D100F0EF
:100290000BF848F24253C1F6FF734FF001021A7097
:1002A00000F064F880BD00BF80B582B000AF46F2B8
:1002B0007553C4F200031B78DBB223F03F03BB711C
:1002C00046F27553C4F20003BA7942F01902D2B271
:1002D0001A7046F29453C4F2000346F29452C4F2E8
:1002E00000021278D2B242F00102D2B21A7046F283
:1002F0009553C4F2000346F29552C4F200021278FC
:10030000D2B242F00102D2B21A704FF4007000F083
:1003100043F84FF4007000F05DF84FF4807000F087
:1003200069F84FF0030000F075F84FF0000000F09E
:100330009DF800F01DFB0346FB7146F29453C4F296
:10034000000346F29452C4F200021278D2B242F094
:100350001002D2B21A70FB79184600F00DFB00F0C3
:100360002BF807F10807BD4680BD00BF80B400AF81
:1003700046F27553C4F2000346F27552C4F200020D
:100380001278D2B26FEA42626FEA5262D2B21A7047
:10039000BD4680BC704700BF80B483B000AF034649
:1003A000FB8046F60823C4F20003FA881A8007F19E
:1003B0000C07BD4680BC704780B500AF01E000F07F
:1003C00075F800F063F8034603F01003002BF6D134
:1003D00080BD00BF80B483B000AF0346FB8046F60B
:1003E0008823C4F20003FA881A8007F10C07BD467F
:1003F00080BC704780B483B000AF0346FB8046F6F4
:100400004823C4F20003FA881A8007F10C07BD469E
:1004100080BC704780B483B000AF0346FB7146F2E6
:100420007453C4F2000346F27452C4F2000212780C
:10043000D2B202F0FC021A7046F27453C4F2000306
:1004400046F27452C4F200021278D2B21146FA791E
:10045000D2B202F0030241EA0202D2B2D2B21A7060
:1004600007F10C07BD4680BC704700BF80B483B065
:1004700000AF0346FB7146F28453C4F20003FA79DD
:100480001A7007F10C07BD4680BC704780B483B07A
:1004900000AF46F26453C4F200031B78FB71FB7992
:1004A000184607F10C07BD4680BC704780B400AF0A
:1004B00046F6A823C4F200031B889BB21846BD462B
:1004C00080BC704780B400AF44F2A233C4F2000392
:1004D00044F2A232C4F200021278D2B242F0010217
:1004E000D2B21A7044F2B233C4F2000344F2B23210
:1004F000C4F200021278D2B242F00102D2B21A70F3
:10050000BD4680BC704700BF80B500AF48F2435382
:10051000C1F6FF731B78002B08D100F00BF848F2EE
:100520004353C1F6FF734FF001021A7000F056F802
:1005300080BD00BF80B582B000AF46F27643C4F202
:1005400000031B78DBB223F03F03BB7146F2764316
:10055000C4F20003BA7942F00902D2B21A7046F22C
:100560009443C4F2000346F29442C4F200021278AB
:10057000D2B242F00102D2B21A704FF0FF0000F086
:1005800043F84FF0FF0000F05DF84FF0800000F0FE
:1005900069F84FF0030000F075F84FF0000000F02C
:1005A0009DF800F0E5F90346FB7146F29443C4F26E
:1005B000000346F29442C4F200021278D2B242F032
:1005C0001002D2B21A70FB79184600F0D5F900F08B
:1005D0002BF807F10807BD4680BD00BF80B400AF0F
:1005E00046F27643C4F2000346F27642C4F20002B9
:1005F0001278D2B26FEA42626FEA5262D2B21A70D5
:10060000BD4680BC704700BF80B483B000AF0346D6
:10061000FB7146F20443C4F20003FA791A7007F141
:100620000C07BD4680BC704780B500AF01E000F00C
:1006300075F800F063F8034603F01003002BF6D1C1
:1006400080BD00BF80B483B000AF0346FB7146F2AB
:100650004443C4F20003FA791A7007F10C07BD464F
:1006600080BC704780B483B000AF0346FB7146F294
:100670002443C4F20003FA791A7007F10C07BD464F
:1006800080BC704780B483B000AF0346FB7146F274
:100690007443C4F2000346F27442C4F200021278BA
:1006A000D2B202F0FC021A7046F27443C4F20003A4
:1006B00046F27442C4F200021278D2B21146FA79BC
:1006C000D2B202F0030241EA0202D2B2D2B21A70EE
:1006D00007F10C07BD4680BC704700BF80B483B0F3
:1006E00000AF0346FB7146F28443C4F20003FA797B
:1006F0001A7007F10C07BD4680BC704780B483B008
:1007000000AF46F26443C4F200031B78FB71FB792F
:10071000184607F10C07BD4680BC704780B400AF97
:1007200046F25443C4F200031B78DBB21846BD46C0
:1007300080BC704780B500AF48F24453C1F6FF73E8
:100740001B78002B08D100F00BF848F24453C1F697
:10075000FF734FF001021A7000F056F880BD00BF21
:1007600080B582B000AF46F27243C4F200031B783A
:10077000DBB223F03F03BB7146F27243C4F20003C5
:10078000BA7942F00902D2B21A7046F29243C4F228
:10079000000346F29242C4F200021278D2B242F052
:1007A0000102D2B21A704FF0FF0000F043F84FF090
:1007B000FF0000F05DF84FF0800000F069F84FF0A6
:1007C000030000F075F84FF0000000F09DF800F015
:1007D000CFF80346FB7146F29243C4F2000346F29F
:1007E0009242C4F200021278D2B242F01002D2B2A7
:1007F0001A70FB79184600F0BFF800F02BF807F1EB
:100800000807BD4680BD00BF80B400AF46F272430A
:10081000C4F2000346F27242C4F200021278D2B26D
:100820006FEA42626FEA5262D2B21A70BD4680BC71
:10083000704700BF80B483B000AF0346FB7146F23F
:100840000243C4F20003FA791A7007F10C07BD469F
:1008500080BC704780B500AF01E000F075F800F093
:1008600063F8034603F01003002BF6D180BD00BFF0
:1008700080B483B000AF0346FB7146F24243C4F23A
:100880000003FA791A7007F10C07BD4680BC704767
:1008900080B483B000AF0346FB7146F22243C4F23A
:1008A0000003FA791A7007F10C07BD4680BC704747
:1008B00080B483B000AF0346FB7146F27543C4F2C7
:1008C000000346F27542C4F200021278D2B202F07E
:1008D000FC021A7046F27543C4F2000346F27542F8
:1008E000C4F200021278D2B21146FA79D2B202F002
:1008F000030241EA0202D2B2D2B21A7007F10C0727
:10090000BD4680BC704700BF80B483B000AF0346D3
:10091000FB7146F28243C4F20003FA791A7007F1C0
:100920000C07BD4680BC704780B483B000AF46F270
:100930006243C4F200031B78FB71FB79184607F190
:100940000C07BD4680BC704780B400AF46F25243EE
:10095000C4F200031B78DBB21846BD4680BC70476A
:100960000230800803D000BF01380046FCD1704738
:10097000EFF3108072B6704780F31088704700BFA5
:1009800080B483B000AF0346FB7101BE07F10C07D2
:10099000BD4680BC704700BF80B582B000AF7860B4
:1009A0000BE048F21853C1F6FF731B681846FFF7B7
:1009B000D7FF7B68A3F500437B607B68B3F5004FEE
:1009C000EFD848F21053C1F6FF731B687A6802FB38
:1009D00003F31846FFF7C4FF07F10807BD4680BDC3
:1009E00080B582B000AF0346FB80FA8848F214530A
:1009F000C1F6FF731B7803FB02F31846FFF7B0FF45
:100A000007F10807BD4680BD80B584B000AF03463E
:100A10003960FB714EF60853CEF200031B68FB6091
:100A2000FB791F2B03D94FF00000FFF7A9FFFB79DB
:100A300003F01F0303F110034FEA8302FB68134422
:100A40001B68BB60FB7903F01F0303F110034FEA3F
:100A50008302FB6813443A681A60BB68184607F1C2
:100A60001007BD4680BD00BF80B582B000AF024612
:100A70000B46FA71BB71BB79072B03D94FF000000D
:100A8000FFF77EFFFB791F2B03D94FF00000FFF724
:100A900077FFFB7903F01F0303F1604303F5644321
:100AA000BA794FEA4212D2B21A7007F10807BD466E
:100AB00080BD00BF80B500AF4FF02800FFF76CFF8E
:100AC0004FF0030000F056FA4FF00500FFF764FF07
:100AD0004FF0030000F04EFA4FF00F00FFF75CFFFD
:100AE0004FF0030000F046FA4FF00100FFF754FF0B
:100AF0004FF0020000F03EFA4FF00500FFF74CFF08
:100B00004FF0060000F0C6F84FF00E0000F0C2F8FB
:100B10004FF02C0000F0BEF84FF0080000F0BAF8DB
:100B20004FF0010000F0B6F84FF00C0000F0B2F802
:100B30004FF0030000F0AEF84FF00500FFF72CFF78
:100B400080BD00BF80B500AF4FF00C0000F0A2F8F0
:100B500048F24553C1F6FF734FF001021A7080BD91
:100B600080B500AF48F24653C1F6FF731B78002BE7
:100B700008D1FFF79FFF48F24653C1F6FF734FF0CD
:100B800001021A70FFF7DEFF80BD00BF80B582B0A2
:100B900000AF02460B46FA71BB71FB79032B2AD8D2
:100BA00001A252F823F000BFB90B0000C90B0000EE
:100BB000D90B0000E90B0000BB79A3F18003DBB285
:100BC000184600F067F816E0BB79A3F14003DBB2EA
:100BD000184600F05FF80EE0BB79A3F16C03DBB2BE
:100BE000184600F057F806E0BB79A3F12C03DBB2FE
:100BF000184600F04FF807F10807BD4680BD00BF5A
:100C000080B584B000AF78604FF00103BB737B68A0
:100C10001B78FB730CE0FB7B184600F01FF8BA7BD7
:100C20007B6813441B78FB73BB7B03F10103BB732D
:100C3000FB7B002BEFD107F11007BD4680BD00BF45
:100C400080B582B000AF0346FB71FB79184600F017
:100C500005F807F10807BD4680BD00BF80B584B028
:100C600000AF0346FB7100F031F8FB794FEA131334
:100C7000FB73FB7B184600F027F9FB7903F00F03A9
:100C8000FB73FB7B184600F01FF907F11007BD4608
:100C900080BD00BF80B584B000AF0346FB7100F09B
:100CA00015F8FB794FEA1313FB73FB7B184600F032
:100CB00061F9FB7903F00F03FB73FB7B184600F02F
:100CC00059F907F11007BD4680BD00BF80B582B05D
:100CD00000AF45F22013C4F2000345F22012C4F223
:100CE00000021278D2B202F080021A7045F222138A
:100CF000C4F200031B78DBB223F00F03FB7145F253
:100D00002213C4F20003FA7942F00F02D2B21A7031
:100D100045F22313C4F200031B78DBB223F00F0368
:100D2000FB7145F22313C4F20003FA791A7045F2FD
:100D30002413C4F200031B78DBB223F00F03FB7112
:100D400045F22413C4F20003FA791A7045F2201315
:100D5000C4F2000345F22012C4F200021278D2B2AB
:100D600002F0DF021A7045F22013C4F2000345F2CC
:100D70002012C4F200021278D2B242F04002D2B283
:100D80001A704FF00000FFF72BFE45F22013C4F25B
:100D9000000345F22012C4F200021278D2B242F0EF
:100DA0001002D2B21A704FF00100FFF719FE45F29F
:100DB0002113C4F200031B78FB7145F22013C4F227
:100DC000000345F22012C4F200021278D2B202F0FF
:100DD000EF021A704FF00000FFF702FEFB7903F0FC
:100DE0000803FB7145F22013C4F2000345F2201200
:100DF000C4F200021278D2B242F01002D2B21A70DB
:100E00004FF00100FFF7ECFD45F22013C4F20003A0
:100E100045F22012C4F200021278D2B202F0EF02C0
:100E20001A70FB79002BACD145F22013C4F20003F9
:100E300045F22012C4F200021278D2B202F0BF02D0
:100E40001A7045F22013C4F2000345F22012C4F2D6
:100E500000021278D2B202F080021A7045F2221318
:100E6000C4F2000345F22212C4F200021278D2B298
:100E700002F0F0021A7045F22313C4F200031B784B
:100E8000DBB223F00F03FB7145F22313C4F200031E
:100E9000FA7942F00F02D2B21A7045F22413C4F26A
:100EA00000031B78DBB223F00F03FB7145F2241320
:100EB000C4F20003FA7942F00F02D2B21A7007F1BD
:100EC0000807BD4680BD00BF80B582B000AF0346B5
:100ED000FB71FFF7FBFE45F22013C4F2000345F25D
:100EE0002012C4F200021278D2B242F02002D2B232
:100EF0001A7045F22013C4F2000345F22012C4F226
:100F000000021278D2B202F0BF021A7045F220132A
:100F1000C4F2000345F22012C4F200021278D2B2E9
:100F200002F0F0021A7045F22013C4F2000345F2F9
:100F30002012C4F200021278D1B2FA7941EA020218
:100F4000D2B242F01002D2B21A704FF00100FFF795
:100F500047FD45F22013C4F2000345F22012C4F20B
:100F600000021278D2B202F0EF021A7007F10807FD
:100F7000BD4680BD80B582B000AF0346FB7145F22F
:100F80002013C4F2000345F22012C4F200021278CA
:100F9000D2B202F09F021A7045F22013C4F200038D
:100FA00045F22012C4F200021278D2B202F0F0022E
:100FB0001A7045F22013C4F2000345F22012C4F265
:100FC00000021278D1B2FA7941EA0202D2B242F0BA
:100FD0001002D2B21A704FF00100FFF701FD45F286
:100FE0002013C4F2000345F22012C4F2000212786A
:100FF000D2B202F0EF021A7007F10807BD4680BDB9
:1010000080B582B000AF0346FB71FB794FEA131342
:10101000DBB21A4642F6A043C0F200039B5C1846BE
:10102000FFF70EFEFB7903F00F0242F6A043C0F279
:1010300000039B5C1846FFF703FE07F10807BD4657
:1010400080BD00BF80B582B000AF0346FB80FB8847
:101050004FEA13239BB2DBB21846FFF7D1FFFB88A0
:10106000DBB21846FFF7CCFF07F10807BD4680BD8D
:1010700080B400AF44F2A233C4F2000344F2A232BF
:10108000C4F200021278D2B242F01002D2B21A7048
:1010900044F2B233C4F2000344F2B232C4F20002AA
:1010A0001278D2B242F01002D2B21A70BD4680BCA1
:1010B000704700BF80B500AF4FF0010000F090F91D
:1010C0004FF0100000F042FF4FF0100000F05AFF08
:1010D0004FF002004FF4104146F606124FF009039C
:1010E00000F0E6FD80BD00BF80B500AF48F2505370
:1010F000C1F6FF731B78002B0FD048F22453C1F6C2
:10110000FF731B7A002B08D100F0D0F848F250533F
:10111000C1F6FF734FF000021A7048F22453C1F673
:10112000FF734FF000021A7244F2AA33C4F20003B4
:1011300044F2AA32C4F200021278D2B242F00102A2
:10114000D2B21A7044F2C533C4F2000344F2C5327D
:10115000C4F200021278D2B242F00102D2B21A7086
:1011600044F2BA33C4F2000344F2BA32C4F20002C9
:101170001278D2B242F00102D2B21A7048F21C5375
:10118000C1F6FF731B78DBB2012B47D144F2F56344
:10119000C4F2000344F2F562C4F200021278D2B243
:1011A00042F01002D2B21A7044F2F763C4F20003A4
:1011B00044F2F762C4F200021278D2B242F008029E
:1011C000D2B21A7045F69103C4F2000345F69102BB
:1011D000C4F200021278D2B242F00302D2B21A7004
:1011E0004FF00300FFF7FCFB44F2F563C4F2000389
:1011F00044F2F562C4F200021278D2B202F0EF02B9
:101200001A7044F2F763C4F2000344F2F762C4F2C6
:1012100000021278D2B202F0F7021A7045F6770394
:10122000C4F2000345F67702C4F200021278D2B28B
:1012300042F00602D2B21A7044F2A133C4F20003A3
:1012400044F2A132C4F200021278D2B242F0040297
:10125000D2B21A7044F2B133C4F2000344F2B13294
:10126000C4F200021278D2B242F00402D2B21A7072
:1012700044F2A233C4F2000344F2A232C4F20002E8
:101280001278D2B242F00202D2B21A7044F2B233F1
:10129000C4F2000344F2B232C4F200021278D2B2B5
:1012A00042F00202D2B21A7080BD00BF80B400AF1B
:1012B00045F68E03C4F2000348F22452C1F6FF72D1
:1012C00012781A7045F68F03C4F2000348F22452D4
:1012D000C1F6FF7252781A7045F69003C4F200030B
:1012E00048F22452C1F6FF7292781A7045F69103C3
:1012F000C4F2000348F22452C1F6FF72D2781A7089
:1013000045F69203C4F2000348F22452C1F6FF727C
:1013100012791A7045F69A03C4F2000348F2245277
:10132000C1F6FF7252791A7045F69B03C4F20003AE
:1013300048F22452C1F6FF7292791A7045F60733CB
:10134000C4F2000348F22452C1F6FF72D2791A7037
:10135000BD4680BC704700BF80B500AF48F24A531D
:10136000C1F6FF731B78002B10D148F24B53C1F626
:10137000FF731B78DBB2002B01D1FFF79BFE48F215
:101380004A53C1F6FF734FF001021A70FFF7ACFE2B
:1013900080BD00BF80B400AF44F60063C4F2000318
:1013A00044F60062C4F200021278D2B242F00102A6
:1013B000D2B21A70BD4680BC704700BF80B483B003
:1013C00000AF44F61063C4F200031B88FB80FB8867
:1013D0001BB2184607F10C07BD4680BC704700BF22
:1013E00080B582B000AF0346FB7148F24953C1F6A5
:1013F000FF734FF000021A7048F24A53C1F6FF73B0
:101400001B78002B68D145F69603C4F200034FF019
:1014100007021A7045F69703C4F200034FF000026A
:101420001A7045F69E03C4F200034FF000021A70D2
:1014300045F60733C4F2000345F60732C4F2000252
:101440001278D2B242F01802D2B21A7045F6930363
:10145000C4F200034FF000021A7045F68833C4F25C
:1014600000034FF000021A7045F68933C4F20003FE
:101470004FF000021A7045F68003C4F200034FF0EB
:101480000A021A7045F68103C4F200034FF000020D
:101490001A7045F68203C4F200034FF07A021A7004
:1014A00045F68303C4F200034FF000021A7045F6BC
:1014B0008D03C4F200034FF000021A7044F601637A
:1014C000C4F200034FF014021A7044F61463C4F21D
:1014D00000034FF001021A70FB79012B40F0F680F7
:1014E00044F60063C4F200034FF038021A7044F669
:1014F0000263C4F200034FF004021A7044F603635F
:10150000C4F200034FF006021A7044F60463C4F2FA
:1015100000034FF000021A7044F60563C4F20003A2
:101520004FF000021A7044F60663C4F200034FF055
:1015300013021A7044F60863C4F200034FF000026D
:101540001A7044F60963C4F200034FF000021A70E7
:1015500044F60A63C4F200034FF000021A7045F625
:101560008403C4F200034FF014021A7045F6850399
:10157000C4F200034FF00B021A7045F68603C4F262
:1015800000034FF031021A7045F68703C4F20003DE
:101590004FF000021A7045F68803C4F200034FF0C2
:1015A00012021A7045F68903C4F200034FF01302C9
:1015B0001A7045F68A03C4F200034FF044021A7011
:1015C00045F68B03C4F200034FF048021A7045F64B
:1015D0008C03C4F200034FF001021A7045F68E032B
:1015E000C4F200034FF001021A7045F68F03C4F2F3
:1015F00000034FF011021A7045F69003C4F2000385
:101600004FF019021A7045F69103C4F200036FF00F
:1016100068021A704FF0520000F030FC45F6940357
:10162000C4F200034FF058021A7045F69503C4F255
:1016300000034FF000021A7045F69A03C4F200034B
:101640004FF005021A7045F69B03C4F200034FF0F9
:1016500002021A7045F69C03C4F200034FF0010227
:101660001A7045F69D03C4F200034FF000021A7091
:1016700045F60733C4F2000345F60732C4F2000210
:101680001278D2B242F01802D2B21A704FF00000B3
:1016900000F0B2FC48F22053C1F6FF734FF066022F
:1016A0001A604FF01D004FF00701FFF7DDF94FF012
:1016B0001D0041F61171C0F20001FFF7A5F94EF2CD
:1016C0000013CEF200034FF000521A60FB79022B98
:1016D00040F0F68044F60063C4F200034FF0380295
:1016E0001A7044F60263C4F200034FF004021A7049
:1016F00044F60363C4F200034FF006021A7044F686
:101700000463C4F200034FF000021A7044F605634C
:10171000C4F200034FF000021A7044F60663C4F2EC
:1017200000034FF03F021A7044F60863C4F200034E
:101730004FF000021A7044F60963C4F200034FF040
:1017400000021A7044F60A63C4F200034FF000026C
:101750001A7045F68403C4F200034FF050021A7069
:1017600045F68503C4F200034FF027021A7045F6D0
:101770008603C4F200034FF02C021A7045F687036B
:10178000C4F200034FF000021A7045F68803C4F259
:1017900000034FF012021A7045F68903C4F20003E9
:1017A0004FF013021A7045F68A03C4F200034FF09B
:1017B00055021A7045F68B03C4F200034FF05A022B
:1017C0001A7045F68C03C4F200034FF005021A703C
:1017D00045F68E03C4F200034FF001021A7045F67D
:1017E0008F03C4F200034FF011021A7045F6900304
:1017F000C4F200034FF019021A7045F69103C4F2C7
:1018000000036FF068021A704FF0440000F036FBDE
:1018100045F69403C4F200034FF058021A7045F6DF
:101820009503C4F200034FF000021A7045F69A03C4
:10183000C4F200034FF005021A7045F69B03C4F290
:1018400000034FF002021A7045F69C03C4F2000335
:101850004FF001021A7045F69D03C4F200034FF0E9
:1018600000021A7045F60733C4F2000345F607324A
:10187000C4F200021278D2B242F01802D2B21A7048
:101880004FF0000000F0B8FB48F22053C1F6FF73A0
:101890004FF47A421A604FF01D004FF00701FFF736
:1018A000E3F84FF01D0041F62971C0F20001FFF787
:1018B000ABF84EF20013CEF200034FF000521A6064
:1018C000FB79032B40F0F68044F60063C4F200037A
:1018D0004FF038021A7044F60263C4F200034FF06E
:1018E00004021A7044F60363C4F200034FF00602C8
:1018F0001A7044F60463C4F200034FF000021A7039
:1019000044F60563C4F200034FF000021A7044F677
:101910000663C4F200034FF03F021A7044F60863F6
:10192000C4F200034FF000021A7044F60963C4F2D7
:1019300000034FF000021A7044F60A63C4F2000379
:101940004FF000021A7045F68403C4F200034FF012
:1019500050021A7045F68503C4F200034FF02702C7
:101960001A7045F68603C4F200034FF02C021A7079
:1019700045F68703C4F200034FF000021A7045F6E3
:101980008803C4F200034FF012021A7045F689036F
:10199000C4F200034FF013021A7045F68A03C4F232
:1019A00000034FF055021A7045F68B03C4F2000392
:1019B0004FF05A021A7045F68C03C4F200034FF040
:1019C00005021A7045F68E03C4F200034FF00102BF
:1019D0001A7045F68F03C4F200034FF011021A701B
:1019E00045F69003C4F200034FF019021A7045F651
:1019F0009103C4F200036FF068021A704FF04400C4
:101A000000F03CFA45F69403C4F200034FF058028C
:101A10001A7045F69503C4F200034FF000021A70E5
:101A200045F69A03C4F200034FF005021A7045F61A
:101A30009B03C4F200034FF002021A7045F69C03A8
:101A4000C4F200034FF001021A7045F69D03C4F280
:101A500000034FF000021A7045F60733C4F200038A
:101A600045F60732C4F200021278D2B242F01802F0
:101A7000D2B21A704FF0000000F0BEFA48F22053C4
:101A8000C1F6FF734FF47A421A604FF01D004FF019
:101A90000701FEF7E9FF4FF01D0041F63571C0F276
:101AA0000001FEF7B1FF4EF20013CEF200034FF03B
:101AB00000521A60FB79042B40F0F68044F6006374
:101AC000C4F200034FF038021A7044F60263C4F205
:101AD00000034FF004021A7044F60363C4F20003DB
:101AE0004FF006021A7044F60463C4F200034FF08C
:101AF00000021A7044F60563C4F200034FF00002BE
:101B00001A7044F60663C4F200034FF03F021A70E5
:101B100044F60863C4F200034FF000021A7044F662
:101B20000963C4F200034FF000021A7044F60A631E
:101B3000C4F200034FF000021A7045F68403C4F2A9
:101B400000034FF050021A7045F68503C4F20003FB
:101B50004FF027021A7045F68603C4F200034FF0D7
:101B60002C021A7045F68703C4F200034FF00002FE
:101B70001A7045F68803C4F200034FF012021A707F
:101B800045F68903C4F200034FF013021A7045F6BC
:101B90008A03C4F200034FF055021A7045F68B0316
:101BA000C4F200034FF05A021A7045F68C03C4F2D7
:101BB00000034FF005021A7045F68E03C4F20003CD
:101BC0004FF001021A7045F68F03C4F200034FF084
:101BD00011021A7045F69003C4F200034FF0190287
:101BE0001A7045F69103C4F200036FF068021A7090
:101BF0004FF0440000F042F945F69403C4F20003AC
:101C00004FF058021A7045F69503C4F200034FF0E6
:101C100000021A7045F69A03C4F200034FF0050261
:101C20001A7045F69B03C4F200034FF002021A70CB
:101C300045F69C03C4F200034FF001021A7045F60A
:101C40009D03C4F200034FF000021A7045F60733FB
:101C5000C4F2000345F60732C4F200021278D2B291
:101C600042F01802D2B21A704FF0000000F0C4F92E
:101C700048F22053C1F6FF734FF47A421A604FF0D6
:101C80001D004FF00701FEF7EFFE4FF01D0041F67B
:101C90004171C0F20001FEF7B7FE4EF20013CEF222
:101CA00000034FF000521A6007F10807BD4680BDDF
:101CB00080B487B000AFF871B9807A807B70FB790F
:101CC000A3F10403062B5DD801A252F823F000BF54
:101CD000ED1C0000851D0000851D0000131D000087
:101CE000391D0000851D00005F1D00007B780F2B53
:101CF00007D940F21413C4F600131B78DBB2FB7350
:101D000043E040F21813C4F600131B78DBB2FB73F8
:101D10003BE07B780F2B07D940F21513C4F6001374
:101D20001B78DBB2FB7330E040F21913C4F60013EA
:101D30001B78DBB2FB7328E07B780F2B07D940F2CE
:101D40001613C4F600131B78DBB2FB731DE040F2E0
:101D50001A13C4F600131B78DBB2FB7315E07B7813
:101D60000F2B07D940F21713C4F600131B78DBB210
:101D7000FB730AE040F21B13C4F600131B78DBB2BE
:101D8000FB7302E04FF00003FB73FB79002B11D0D3
:101D9000FB79012B0ED0FB79022B0BD0FB79032BA7
:101DA00008D0FB79052B05D0FB79062B02D0FB79F7
:101DB000092B03D14FF000033B8206E097F90F3067
:101DC0009BB24FEA43139BB23B823A8ABB881344CF
:101DD0007B827B8A7A8802FB03F37B617B694FEA13
:101DE000D3337B827B780D2B12D87A8A7B786FEA8B
:101DF000030303F10F0342FA03F37B8244F60E63FD
:101E0000C4F200037A7802F10102D2B21A7006E03D
:101E100044F60E63C4F200034FF00F021A7044F64A
:101E20000C63C4F200037A8AD2B21A7044F60D63CE
:101E3000C4F200037A8A4FEA122292B2D2B21A7026
:101E4000FB79012B14D144F60C63C4F200034FF06C
:101E500000021A7044F60D63C4F200034FF0000252
:101E60001A7044F60E63C4F200034FF000021A70B9
:101E700007F11C07BD4680BC704700BF80B582B02B
:101E800000AF0346FB7144F2F563C4F2000344F271
:101E9000F562C4F200021278D2B242F01002D2B25D
:101EA0001A7044F2F763C4F2000344F2F762C4F21A
:101EB00000021278D2B242F00802D2B21A7045F68D
:101EC0009203C4F20003FA791A704FF00300FEF790
:101ED00087FD44F2F563C4F2000344F2F562C4F2F4
:101EE00000021278D2B202F0EF021A7044F2F763E5
:101EF000C4F2000344F2F762C4F200021278D2B2D4
:101F000002F0F7021A7007F10807BD4680BD00BF56
:101F100080B500AFFFF752FA03469AB248F23A533F
:101F2000C1F6FF731A8080BD80B400AFBD4680BC8F
:101F3000704700BF80B400AFBD4680BC704700BF93
:101F400080B400AFBD4680BC704700BF80B483B092
:101F500000AF0346FB7144F20A13C4F2000344F2DB
:101F60000A12C4F200021278D1B2FA7902F0F80231
:101F700041EA0202D2B21A7007F10C07BD4680BCDA
:101F8000704700BF80B483B000AF0346FB7144F2DA
:101F90008603C4F2000344F28602C4F200021278FF
:101FA000D1B2FA7902F0F80241EA0202D2B21A7012
:101FB00007F10C07BD4680BC704700BF80B582B0FA
:101FC00000AF4FF00003FB7107E0FB79184600F00B
:101FD00035FBFB7903F10103FB71FB79012BF4D98C
:101FE00048F23053C1F6FF734FF0FF321A7007F119
:101FF0000807BD4680BD00BF80B582B000AF034674
:10200000FB71FFF7DBFFFB79184600F0F1FA48F2AD
:102010003053C1F6FF73FA791A7007F10807BD460D
:1020200080BD00BF80B500AF48F25453C1F6FF73C6
:102030001B78002B08D100F00BF848F25453C1F67E
:10204000FF734FF001021A7000F02AF880BD00BF44
:1020500080B400AF46F28D43C4F200034FF0720229
:102060001A7046F28B43C4F200034FF000021A705C
:1020700046F22343C4F200034FF007021A7046F2FF
:102080003343C4F200034FF048021A7046F28F4304
:10209000C4F200034FF000021A70BD4680BC7047C6
:1020A00080B582B000AFFEF763FC0346FB7146F2D9
:1020B0009D43C4F2000346F29D42C4F2000212782E
:1020C000D2B242F02002D2B21A7046F29B43C4F25E
:1020D000000346F29B42C4F200021278D2B242F0F0
:1020E0001002D2B21A7046F29F43C4F2000346F2C5
:1020F0009F42C4F200021278D2B242F01002D2B271
:102100001A7000F049F8FB791846FEF735FC07F124
:102110000807BD4680BD00BF80B483B000AF4FF05C
:102120000003BB7146F26B43C4F200031B78FB71E2
:10213000FB7903F02003002B0DD046F24E43C4F28E
:1021400000031B78BB71FB7903F01E03002B02D048
:102150004FF00003BB71BB79184607F10C07BD4671
:1021600080BC704780B483B000AF0346FB7146F279
:102170006F43C4F200031B78DBB203F00403002BAF
:10218000F5D146F24F43C4F20003FA791A7007F111
:102190000C07BD4680BC704780B400AF44F2A23348
:1021A000C4F2000344F2A232C4F200021278D2B2A6
:1021B00042F00802D2B21A7044F2B233C4F2000301
:1021C00044F2B232C4F200021278D2B242F00802F3
:1021D000D2B21A70BD4680BC704700BF80B485B0D3
:1021E00000AF786039607B68BB604FF00003FB6034
:1021F00009E0BA68FB6813444FF000021A70FB68EC
:1022000003F10103FB60FA683B689A42F1D307F1DE
:102210001407BD4680BC704780B489B000AFF86039
:10222000B9607A60FB687B61BB68BB614FF00003FB
:10223000FB610BE07A69FB691344B969FA690A44E6
:1022400012781A70FB6903F10103FB61FA697B687C
:102250009A42EFD307F12407BD4680BC704700BF08
:1022600080B582B000AF7860396078684FF00001C7
:102270003A6800F05FFC07F10807BD4680BD00BF6B
:1022800080B584B000AFF860B9607A60F868B9686A
:102290007A6800F087FB07F11007BD4680BD00BFDC
:1022A00080B487B000AF786039604FF00003FB6006
:1022B0004FF00003BB602CE0BB684FEA83027B68F1
:1022C00013441B683B613B69FB753B6923F0FF03CB
:1022D0003B6117E0FB684FEA43023B6813441B78FD
:1022E0001A463B691344FA684FEA42013A680A44C5
:1022F00052781A70FB6803F10103FB60FB7D03F168
:10230000FF33FB75FB7D002BE4D1BB6803F10103B8
:10231000BB60BB68242BCFD907F11C07BD4680BC2E
:10232000704700BF80B500AF44F28003C4F20003E1
:102330004FF000021A8044F28203C4F200034FF00F
:1023400058021A7044F28403C4F200034FF00502ED
:102350001A8044F28603C4F200034FF018021A7088
:1023600044F28803C4F200034FF017021A8044F2CB
:102370008A03C4F200034FF018021A7044F28C036F
:10238000C4F200034FF49C721A8044F28E03C4F22C
:1023900000034FF018021A7044F29003C4F20003D5
:1023A00040F21A621A8044F29203C4F200034FF022
:1023B00018021A7044F20010C4F2000040F6B42172
:1023C000C4F600014FF00C02FFF75AFF44F200334D
:1023D000C4F200034FF002021A7044F20003C4F288
:1023E00000034FF008021A7044F20023C4F2000305
:1023F0004FF003021A7044F2A163C4F2000340F2EA
:102400000812C4F600121278D2B21A7044F22223D3
:10241000C4F200034FF008021A8044F22023C4F2F1
:10242000000341F251021A8040F6B830FEF798FAE4
:1024300044F20403C4F200034FF003021A7044F2A2
:102440000503C4F200034FF001021A7044F20403C2
:10245000C4F200034FF000021A7044F20403C4F205
:1024600000034FF007021A7044F20603C4F200039F
:102470004FF000021A7044F20803C4F200034FF058
:1024800048021A7044F20403C4F200034FF0000241
:102490001A7044F20103C4F200034FF002021A70F2
:1024A00044F20B03C4F200034FF004021A7044F22A
:1024B000A233C4F2000344F2A232C4F20002127842
:1024C000D2B242F01F02D2B21A7044F2A133C4F267
:1024D000000344F2A132C4F200021278D2B242F0F8
:1024E0000702D2B21A7080BD80B400AF44F2AA33A2
:1024F000C4F200034FF444721A8045F23D13C4F253
:1025000000034FF008021A7045F24D13C4F20003A5
:102510004FF002021A7045F26D13C4F200034FF03F
:1025200020021A7045F62003C4F200034FF01E0289
:102530001A7045F62403C4F200034FF01E021A700D
:1025400045F62803C4F200034FF01E021A7045F648
:102550002C03C4F200034FF01E021A7045F600135C
:10256000C4F2000348F2C0021A8045F60313C4F215
:1025700000034FF00C021A7045F60813C4F2000372
:1025800048F2C0021A8045F60B13C4F200034FF064
:102590000C021A7045F60033C4F200034FF0020239
:1025A0001A7045F62033C4F200034FF020021A706F
:1025B00045F62333C4F200034FF020021A7045F6AB
:1025C0002833C4F200036FF07F021A7045F62B33F4
:1025D000C4F200034FF020021A7045F67603C4F2ED
:1025E00000034FF044021A70BD4680BC704700BF24
:1025F00080B483B000AF0346FB71FB79012B18D880
:10260000FA7942F6B043C0F2000353F82220F97978
:1026100042F6B043C0F2000353F821301978F8793C
:1026200042F6B843C0F200031B5C41EA0303DBB28D
:10263000137007F10C07BD4680BC704780B483B0AF
:1026400000AF0346FB71FB79012B1BD8FA7942F6E8
:10265000B043C0F2000353F82220F97942F6B043A8
:10266000C0F2000353F821301978F87942F6B843E4
:10267000C0F200031B5C6FEA0303DBB201EA030351
:10268000DBB2137007F10C07BD4680BC704700BF7A
:1026900080B582B000AF72B644F60003C4F2000306
:1026A0004FF000021A70FFF73DFE44F60003C4F23B
:1026B00000036FF07F021A7047F21003C4F20003A8
:1026C0004FF000021A7047F22003C4F200034FF0EB
:1026D00000021A7045F67C03C4F200034FF00102B9
:1026E0001A7044F2E863C4F2000344F2E862C4F2F0
:1026F00000021278D2B242F00102D2B21A704FF048
:102700000003FB702FE0FA7813464FEA43031344AB
:102710004FEA43031A4642F6BC43C0F20003134497
:102720007B607B681A7859784FEA012141EA0202FE
:1027300099784FEA014141EA0202DB784FEA0363EC
:1027400043EA02031A467B6819795B794FEA03234F
:1027500043EA01039BB210461946FFF781FDFB785F
:1027600003F10103FB70FB78042BCCD94FF09040B0
:1027700040F29401C4F60001FFF792FD45F20020FB
:10278000C4F2000040F68C21C4F600014FF00702AD
:10279000FFF742FD45F20820C4F200004FF00701A8
:1027A000FFF71CFD45F21020C4F200004FF00701B6
:1027B000FFF714FD45F21820C4F200004FF00701A6
:1027C000FFF70CFD45F22020C4F2000040F69421F2
:1027D000C4F600014FF00702FFF71EFD45F2282066
:1027E000C4F2000040F69C21C4F600014FF007023D
:1027F000FFF712FD45F23020C4F200004FF0070150
:10280000FFF7ECFC45F26020C4F2000040F6A42182
:10281000C4F600014FF00602FFF7FEFC45F27820F7
:10282000C4F2000040F6AC21C4F600014FF00702EC
:10283000FFF7F2FC45F20303C4F2010345F2030281
:10284000C4F201021278D2B242F00202D2B21A707D
:1028500045F21303C4F2010345F21302C4F201026C
:102860001278D2B242F00202D2B21A7044F2A0330D
:10287000C4F2000344F2A032C4F200021278D2B2D1
:1028800042F04002D2B21A7044F2C233C4F20003E2
:1028900044F2C232C4F200021278D2B242F0100204
:1028A000D2B21A7045F20010C4F2000040F648217E
:1028B000C4F600014FF00A02FFF7E2FC45F2C21035
:1028C000C4F2000040F65421C4F600014FF00802A3
:1028D000FFF7A2FC45F2F210C4F2000040F65C21C2
:1028E000C4F600014FF00802FFF7CAFC45F22210BF
:1028F000C4F2000040F66421C4F600014FF0080263
:10290000FFF7BEFC45F23210C4F2000040F66C2125
:10291000C4F600014FF00802FFF7B2FC45F2421086
:10292000C4F2000040F67421C4F600014FF0080222
:10293000FFF7A6FC45F25210C4F2000040F67C21DD
:10294000C4F600014FF00802FFF79AFC45F262104E
:10295000C4F2000040F68421C4F600014FF00802E2
:10296000FFF78EFCFFF7C0FD44F2B030C4F2000068
:1029700044F2A031C4F200014FF00C02FFF780FCDA
:1029800044F2B033C4F2000344F2B032C4F20002A5
:102990001278D2B202F0FD021A7007F10807BD46A4
:1029A00080BD00BF032A2DE9F0070BD83AB1002300
:1029B00011F803C000F803C001339342F8D1BDE819
:1029C000F007704782180C46034603E014F8011C18
:1029D00003F8011C03F003061946A4460133013431
:1029E000002EF3D11CF00304634608BFC1EB020CB8
:1029F00068D06542C4F1040A0CEB050733464FEA80
:102A0000CA0A5CF805604FEAC408551A08E057F88E
:102A1000044F264604FA0AF449EA0404CC5004336D
:102A20005C18032D26FA08F9A5F104050CEB030642
:102A3000EDDC002302E0F15CE1540133191991420D
:102A4000F9D3BCE753F8404C41F8404C53F83C4CA8
:102A500041F83C4C53F8384C41F8384C53F8344C5E
:102A600041F8344C53F8304C41F8304C53F82C4C6E
:102A700041F82C4C53F8284C41F8284C53F8244C7E
:102A800041F8244C53F8204C41F8204C53F81C4C8E
:102A900041F81C4C53F8184C41F8184C53F8144C9E
:102AA00041F8144C53F8104C41F8104C53F80C4CAE
:102AB00041F80C4C53F8084C41F8084C53F8044CBE
:102AC00041F8044C1C460D4640334031BCF13F0FE9
:102AD000ACF1400CB6DC21462B46541B0FE051F8FC
:102AE000105C43F8105C51F80C5C43F80C5C51F836
:102AF000085C43F8085C51F8045C43F8045C0F2C54
:102B00000D469C4601F1100103F11003A4F11004DD
:102B1000E5DCCCEB0201002303E0EC584CF8034069
:102B200004335E19032903EB0C04A1F10401F4DC66
:102B30007FE700BF032AC9B230B407D822B100230F
:102B4000C15401339342FBD130BC704700EB020CFF
:102B5000034601E003F8011C03F003041A460133A5
:102B6000002CF7D14FF00133C2EB0C0403FB01F34F
:102B70001FE042F8403C42F83C3C42F8383C42F806
:102B8000343C42F8303C42F82C3C42F8283C42F8B5
:102B9000243C42F8203C42F81C3C42F8183C42F8E5
:102BA000143C42F8103C42F80C3C42F8083C42F815
:102BB000043C154640323F2CA4F14004D9DC2A469F
:102BC000C5EB0C0407E042F8103C42F80C3C42F81C
:102BD000083C42F8043C154610320F2CA4F11004B6
:102BE000F1DC2A46C5EB0C0501E042F8043C144632
:102BF0000432032DA5F10405F7DC01E004F8011B04
:102C00006445FBD3A0E700BF08B500F017F80748FC
:102C100000B10068064901B109680022FDF73EFADB
:102C2000044B0BB1AFF30080FEE700BF00000000D3
:102C30000000000000000000FEE7000070B542F652
:102C4000E84642F6E845C0F20006C0F20005761BF1
:102C5000B61006D0002455F8243001349847A64217
:102C6000F9D842F6E84542F6F046C0F20005C0F257
:102C70000006761B00F032F8B61006D0002455F896
:0C2C8000243001349847A642F9D870BDFA
:102C8C00536F6D65206261736963206D6573736149
:102C9C0067650000303132333435363738394142CC
:102CAC0043444546035B0040035B0040404000004A
:102CBC0010510040100000000140001000140140B1
:102CCC00000800400140000A004C014000020000D6
:102CDC00F8B500BFF8BC08BC9E46704781000000E8
:102CEC00C9010000F8B500BFF8BC08BC9E4670478F
:102CFC006D00000000000000182D00000881FF1F6F
:0C2D0C003004000028000000000000005F
:102D18000000000000010301060109010D01100176
:102D28001301160119011C011F01220126012901A5
:102D38002C012F013201350138013B013E014101CF
:102D4800440147014A014D015001530156015901FF
:102D58005C015F016201650168016B016D01700131
:102D68007301760179017B017E018101840186016D
:102D780089018C018E0191019301960198019B01B3
:102D88009D01A001A201A501A701AA01AC01AE0104
:102D9800B101B301B501B701B901BC01BE01C00160
:102DA800C201C401C601C801CA01CC01CE01CF01CC
:102DB800D101D301D501D701D801DA01DC01DD0148
:102DC800DF01E001E201E301E501E601E701E901D4
:102DD800EA01EB01ED01EE01EF01F001F101F20171
:102DE800F301F401F501F601F701F801F801F90121
:102DF800FA01FA01FB01FC01FC01FD01FD01FE01E4
:102E0800FE01FE01FF01FF01FF01000200020002B6
:102E1800000200020002000200020002000200029A
:102E2800FF01FF01FF01FE01FE01FE01FD01FD01A1
:102E3800FC01FC01FB01FA01FA01F901F801F801B2
:102E4800F701F601F501F401F301F201F101F001D6
:102E5800EF01EE01ED01EB01EA01E901E701E6010D
:102E6800E501E301E201E001DF01DD01DC01DA0156
:102E7800D801D701D501D301D101CF01CE01CC01B1
:102E8800CA01C801C601C401C201C001BE01BC011A
:102E9800B901B701B501B301B101AE01AC01AA0195
:102EA800A701A501A201A0019D019B01980196011E
:102EB800930191018E018C018901860184018101B0
:102EC8007E017B0179017601730170016D016B014F
:102ED8006801650162015F015C01590156015301F6
:102EE80050014D014A014701440141013E013B01A6
:102EF8003801350132012F012C0129012601220157
:102F08001F011C0119011601130110010D0109010E
:102F1800060103010001FD00FA00F700F300F000CC
:102F2800ED00EA00E700E400E100DE00DA00D70087
:102F3800D400D100CE00CB00C800C500C200BF003D
:102F4800BC00B900B600B300B000AD00AA00A700ED
:102F5800A400A1009E009B0098009500930090009B
:102F68008D008A008700850082007F007C007A003F
:102F78007700740072006F006D006A0068006500D9
:102F8800630060005E005B00590056005400520068
:102F98004F004D004B0049004700440042004000EC
:102FA8003E003C003A003800360034003200310060
:102FB8002F002D002B0029002800260024002300C4
:102FC800210020001E001D001B001A001900170018
:102FD8001600150013001200110010000F000E005B
:102FE8000D000C000B000A0009000800080007008B
:102FF80006000600050004000400030003000200A8
:1030080002000200010001000100000000000000B1
:1030180000000000000000000000000000000000A8
:103028000100010001000200020002000300030089
:103038000400040005000600060007000800080058
:1030480009000A000B000C000D000E000F00100014
:1030580011001200130015001600170019001A00BD
:103068001B001D001E002000210023002400260054
:10307800280029002B002D002F00310032003400D9
:10308800360038003A003C003E0040004200440050
:10309800470049004B004D004F00520054005600B5
:1030A80059005B005E0060006300650068006A000C
:1030B8006D006F007200740077007A007C007F005A
:1030C8008200850087008A008D009000930095009B
:1030D80098009B009E00A100A400A700AA00AD00D4
:1030E800B000B300B600B900BC00BF00C200C50004
:1030F800C800CB00CE00D100D400D700DA00DE0033
:10310800E100E400E700EA00ED00F000F300F7005A
:10311800FA00FD0000366E01C05D000018000000D6
:103128000000E02E01000000660000000111199760
:103138005205021800000000FF0000000000000017
:04000003000001A553
:00000001FF
